{
  "abi": [
    {
      "type": "receive",
      "stateMutability": "payable"
    },
    {
      "type": "function",
      "name": "GAME_DESCRIPTION",
      "inputs": [],
      "outputs": [
        {
          "name": "",
          "type": "string",
          "internalType": "string"
        }
      ],
      "stateMutability": "view"
    },
    {
      "type": "function",
      "name": "GAME_ID",
      "inputs": [],
      "outputs": [
        {
          "name": "",
          "type": "uint256",
          "internalType": "uint256"
        }
      ],
      "stateMutability": "view"
    },
    {
      "type": "function",
      "name": "GAME_IMAGE",
      "inputs": [],
      "outputs": [
        {
          "name": "",
          "type": "string",
          "internalType": "string"
        }
      ],
      "stateMutability": "view"
    },
    {
      "type": "function",
      "name": "GAME_LINK",
      "inputs": [],
      "outputs": [
        {
          "name": "",
          "type": "string",
          "internalType": "string"
        }
      ],
      "stateMutability": "view"
    },
    {
      "type": "function",
      "name": "GAME_NAME",
      "inputs": [],
      "outputs": [
        {
          "name": "",
          "type": "string",
          "internalType": "string"
        }
      ],
      "stateMutability": "view"
    },
    {
      "type": "function",
      "name": "GAME_TYPE",
      "inputs": [],
      "outputs": [
        {
          "name": "",
          "type": "string",
          "internalType": "string"
        }
      ],
      "stateMutability": "view"
    },
    {
      "type": "function",
      "name": "GAME_UPDATE_APPROVAL_DURATION",
      "inputs": [],
      "outputs": [
        {
          "name": "",
          "type": "uint256",
          "internalType": "uint256"
        }
      ],
      "stateMutability": "view"
    },
    {
      "type": "function",
      "name": "MAX_PLAYERS",
      "inputs": [],
      "outputs": [
        {
          "name": "",
          "type": "uint256",
          "internalType": "uint256"
        }
      ],
      "stateMutability": "view"
    },
    {
      "type": "function",
      "name": "MIN_PLAYERS",
      "inputs": [],
      "outputs": [
        {
          "name": "",
          "type": "uint256",
          "internalType": "uint256"
        }
      ],
      "stateMutability": "view"
    },
    {
      "type": "function",
      "name": "acceptInvitation",
      "inputs": [
        {
          "name": "_betId",
          "type": "uint256",
          "internalType": "uint256"
        }
      ],
      "outputs": [
        {
          "name": "",
          "type": "bool",
          "internalType": "bool"
        }
      ],
      "stateMutability": "nonpayable"
    },
    {
      "type": "function",
      "name": "activateBet",
      "inputs": [
        {
          "name": "id",
          "type": "uint256",
          "internalType": "uint256"
        }
      ],
      "outputs": [],
      "stateMutability": "nonpayable"
    },
    {
      "type": "function",
      "name": "addUserToGroup",
      "inputs": [
        {
          "name": "_betId",
          "type": "uint256",
          "internalType": "uint256"
        },
        {
          "name": "user",
          "type": "address",
          "internalType": "address"
        },
        {
          "name": "userType",
          "type": "uint8",
          "internalType": "enum HubStruct.UserType"
        }
      ],
      "outputs": [],
      "stateMutability": "nonpayable"
    },
    {
      "type": "function",
      "name": "betId",
      "inputs": [],
      "outputs": [
        {
          "name": "",
          "type": "uint256",
          "internalType": "uint256"
        }
      ],
      "stateMutability": "view"
    },
    {
      "type": "function",
      "name": "bets",
      "inputs": [
        {
          "name": "",
          "type": "uint256",
          "internalType": "uint256"
        }
      ],
      "outputs": [
        {
          "name": "betType",
          "type": "uint8",
          "internalType": "enum HubStruct.BetType"
        },
        {
          "name": "name",
          "type": "string",
          "internalType": "string"
        },
        {
          "name": "description",
          "type": "string",
          "internalType": "string"
        },
        {
          "name": "image",
          "type": "string",
          "internalType": "string"
        },
        {
          "name": "link",
          "type": "string",
          "internalType": "string"
        },
        {
          "name": "owner",
          "type": "address",
          "internalType": "address"
        },
        {
          "name": "result",
          "type": "uint256",
          "internalType": "uint256"
        },
        {
          "name": "status",
          "type": "uint8",
          "internalType": "enum HubStruct.BetStatus"
        },
        {
          "name": "createdAt",
          "type": "uint256",
          "internalType": "uint256"
        },
        {
          "name": "updatedAt",
          "type": "uint256",
          "internalType": "uint256"
        },
        {
          "name": "betDuration",
          "type": "uint256",
          "internalType": "uint256"
        },
        {
          "name": "privateBet",
          "type": "bool",
          "internalType": "bool"
        }
      ],
      "stateMutability": "view"
    },
    {
      "type": "function",
      "name": "calculateReward",
      "inputs": [
        {
          "name": "id",
          "type": "uint256",
          "internalType": "uint256"
        },
        {
          "name": "user",
          "type": "address",
          "internalType": "address"
        }
      ],
      "outputs": [
        {
          "name": "",
          "type": "uint256",
          "internalType": "uint256"
        }
      ],
      "stateMutability": "view"
    },
    {
      "type": "function",
      "name": "cancelBet",
      "inputs": [
        {
          "name": "id",
          "type": "uint256",
          "internalType": "uint256"
        }
      ],
      "outputs": [],
      "stateMutability": "nonpayable"
    },
    {
      "type": "function",
      "name": "claimReward",
      "inputs": [
        {
          "name": "id",
          "type": "uint256",
          "internalType": "uint256"
        }
      ],
      "outputs": [],
      "stateMutability": "nonpayable"
    },
    {
      "type": "function",
      "name": "createBet",
      "inputs": [
        {
          "name": "bet",
          "type": "tuple",
          "internalType": "struct HubStruct.Bet",
          "components": [
            {
              "name": "options",
              "type": "tuple[]",
              "internalType": "struct HubStruct.Options[]",
              "components": [
                {
                  "name": "option",
                  "type": "string",
                  "internalType": "string"
                },
                {
                  "name": "totalStaked",
                  "type": "uint256",
                  "internalType": "uint256"
                }
              ]
            },
            {
              "name": "betType",
              "type": "uint8",
              "internalType": "enum HubStruct.BetType"
            },
            {
              "name": "name",
              "type": "string",
              "internalType": "string"
            },
            {
              "name": "description",
              "type": "string",
              "internalType": "string"
            },
            {
              "name": "image",
              "type": "string",
              "internalType": "string"
            },
            {
              "name": "link",
              "type": "string",
              "internalType": "string"
            },
            {
              "name": "owner",
              "type": "address",
              "internalType": "address"
            },
            {
              "name": "result",
              "type": "uint256",
              "internalType": "uint256"
            },
            {
              "name": "status",
              "type": "uint8",
              "internalType": "enum HubStruct.BetStatus"
            },
            {
              "name": "createdAt",
              "type": "uint256",
              "internalType": "uint256"
            },
            {
              "name": "updatedAt",
              "type": "uint256",
              "internalType": "uint256"
            },
            {
              "name": "betDuration",
              "type": "uint256",
              "internalType": "uint256"
            },
            {
              "name": "privateBet",
              "type": "bool",
              "internalType": "bool"
            }
          ]
        }
      ],
      "outputs": [
        {
          "name": "",
          "type": "uint256",
          "internalType": "uint256"
        }
      ],
      "stateMutability": "nonpayable"
    },
    {
      "type": "function",
      "name": "gameIpfs",
      "inputs": [],
      "outputs": [
        {
          "name": "",
          "type": "string",
          "internalType": "string"
        }
      ],
      "stateMutability": "view"
    },
    {
      "type": "function",
      "name": "getBet",
      "inputs": [
        {
          "name": "id",
          "type": "uint256",
          "internalType": "uint256"
        }
      ],
      "outputs": [
        {
          "name": "",
          "type": "tuple",
          "internalType": "struct HubStruct.Bet",
          "components": [
            {
              "name": "options",
              "type": "tuple[]",
              "internalType": "struct HubStruct.Options[]",
              "components": [
                {
                  "name": "option",
                  "type": "string",
                  "internalType": "string"
                },
                {
                  "name": "totalStaked",
                  "type": "uint256",
                  "internalType": "uint256"
                }
              ]
            },
            {
              "name": "betType",
              "type": "uint8",
              "internalType": "enum HubStruct.BetType"
            },
            {
              "name": "name",
              "type": "string",
              "internalType": "string"
            },
            {
              "name": "description",
              "type": "string",
              "internalType": "string"
            },
            {
              "name": "image",
              "type": "string",
              "internalType": "string"
            },
            {
              "name": "link",
              "type": "string",
              "internalType": "string"
            },
            {
              "name": "owner",
              "type": "address",
              "internalType": "address"
            },
            {
              "name": "result",
              "type": "uint256",
              "internalType": "uint256"
            },
            {
              "name": "status",
              "type": "uint8",
              "internalType": "enum HubStruct.BetStatus"
            },
            {
              "name": "createdAt",
              "type": "uint256",
              "internalType": "uint256"
            },
            {
              "name": "updatedAt",
              "type": "uint256",
              "internalType": "uint256"
            },
            {
              "name": "betDuration",
              "type": "uint256",
              "internalType": "uint256"
            },
            {
              "name": "privateBet",
              "type": "bool",
              "internalType": "bool"
            }
          ]
        }
      ],
      "stateMutability": "view"
    },
    {
      "type": "function",
      "name": "getGroups",
      "inputs": [
        {
          "name": "_betId",
          "type": "uint256",
          "internalType": "uint256"
        }
      ],
      "outputs": [
        {
          "name": "",
          "type": "address[]",
          "internalType": "address[]"
        }
      ],
      "stateMutability": "view"
    },
    {
      "type": "function",
      "name": "getResult",
      "inputs": [
        {
          "name": "id",
          "type": "uint256",
          "internalType": "uint256"
        }
      ],
      "outputs": [
        {
          "name": "",
          "type": "uint256",
          "internalType": "uint256"
        }
      ],
      "stateMutability": "view"
    },
    {
      "type": "function",
      "name": "getStaked",
      "inputs": [
        {
          "name": "id",
          "type": "uint256",
          "internalType": "uint256"
        },
        {
          "name": "user",
          "type": "address",
          "internalType": "address"
        },
        {
          "name": "optionIndex",
          "type": "uint256",
          "internalType": "uint256"
        }
      ],
      "outputs": [
        {
          "name": "",
          "type": "uint256",
          "internalType": "uint256"
        }
      ],
      "stateMutability": "view"
    },
    {
      "type": "function",
      "name": "groups",
      "inputs": [
        {
          "name": "",
          "type": "uint256",
          "internalType": "uint256"
        },
        {
          "name": "",
          "type": "uint256",
          "internalType": "uint256"
        }
      ],
      "outputs": [
        {
          "name": "",
          "type": "address",
          "internalType": "address"
        }
      ],
      "stateMutability": "view"
    },
    {
      "type": "function",
      "name": "initialize",
      "inputs": [],
      "outputs": [],
      "stateMutability": "nonpayable"
    },
    {
      "type": "function",
      "name": "invitedUsers",
      "inputs": [
        {
          "name": "",
          "type": "uint256",
          "internalType": "uint256"
        },
        {
          "name": "",
          "type": "uint256",
          "internalType": "uint256"
        }
      ],
      "outputs": [
        {
          "name": "user",
          "type": "address",
          "internalType": "address"
        },
        {
          "name": "userType",
          "type": "uint8",
          "internalType": "enum HubStruct.UserType"
        }
      ],
      "stateMutability": "view"
    },
    {
      "type": "function",
      "name": "isModerator",
      "inputs": [
        {
          "name": "_betId",
          "type": "uint256",
          "internalType": "uint256"
        },
        {
          "name": "user",
          "type": "address",
          "internalType": "address"
        }
      ],
      "outputs": [
        {
          "name": "",
          "type": "bool",
          "internalType": "bool"
        }
      ],
      "stateMutability": "view"
    },
    {
      "type": "function",
      "name": "isUserInGroup",
      "inputs": [
        {
          "name": "_betId",
          "type": "uint256",
          "internalType": "uint256"
        },
        {
          "name": "user",
          "type": "address",
          "internalType": "address"
        }
      ],
      "outputs": [
        {
          "name": "",
          "type": "bool",
          "internalType": "bool"
        }
      ],
      "stateMutability": "view"
    },
    {
      "type": "function",
      "name": "joinGroup",
      "inputs": [
        {
          "name": "_betId",
          "type": "uint256",
          "internalType": "uint256"
        }
      ],
      "outputs": [],
      "stateMutability": "nonpayable"
    },
    {
      "type": "function",
      "name": "moderator",
      "inputs": [
        {
          "name": "",
          "type": "uint256",
          "internalType": "uint256"
        },
        {
          "name": "",
          "type": "address",
          "internalType": "address"
        }
      ],
      "outputs": [
        {
          "name": "",
          "type": "bool",
          "internalType": "bool"
        }
      ],
      "stateMutability": "view"
    },
    {
      "type": "function",
      "name": "owner",
      "inputs": [],
      "outputs": [
        {
          "name": "",
          "type": "address",
          "internalType": "address"
        }
      ],
      "stateMutability": "view"
    },
    {
      "type": "function",
      "name": "removeUserFromGroup",
      "inputs": [
        {
          "name": "_betId",
          "type": "uint256",
          "internalType": "uint256"
        },
        {
          "name": "user",
          "type": "address",
          "internalType": "address"
        }
      ],
      "outputs": [],
      "stateMutability": "nonpayable"
    },
    {
      "type": "function",
      "name": "renounceOwnership",
      "inputs": [],
      "outputs": [],
      "stateMutability": "nonpayable"
    },
    {
      "type": "function",
      "name": "requestId",
      "inputs": [
        {
          "name": "",
          "type": "uint256",
          "internalType": "uint256"
        }
      ],
      "outputs": [
        {
          "name": "",
          "type": "bytes",
          "internalType": "bytes"
        }
      ],
      "stateMutability": "view"
    },
    {
      "type": "function",
      "name": "resolveBet",
      "inputs": [
        {
          "name": "id",
          "type": "uint256",
          "internalType": "uint256"
        }
      ],
      "outputs": [],
      "stateMutability": "nonpayable"
    },
    {
      "type": "function",
      "name": "setResult",
      "inputs": [
        {
          "name": "id",
          "type": "uint256",
          "internalType": "uint256"
        },
        {
          "name": "resultIndex",
          "type": "uint256",
          "internalType": "uint256"
        }
      ],
      "outputs": [],
      "stateMutability": "nonpayable"
    },
    {
      "type": "function",
      "name": "stake",
      "inputs": [
        {
          "name": "id",
          "type": "uint256",
          "internalType": "uint256"
        },
        {
          "name": "optionIndex",
          "type": "uint256",
          "internalType": "uint256"
        }
      ],
      "outputs": [],
      "stateMutability": "payable"
    },
    {
      "type": "function",
      "name": "staked",
      "inputs": [
        {
          "name": "",
          "type": "uint256",
          "internalType": "uint256"
        },
        {
          "name": "",
          "type": "address",
          "internalType": "address"
        },
        {
          "name": "",
          "type": "uint256",
          "internalType": "uint256"
        }
      ],
      "outputs": [
        {
          "name": "",
          "type": "uint256",
          "internalType": "uint256"
        }
      ],
      "stateMutability": "view"
    },
    {
      "type": "function",
      "name": "totalBalance",
      "inputs": [
        {
          "name": "",
          "type": "uint256",
          "internalType": "uint256"
        }
      ],
      "outputs": [
        {
          "name": "",
          "type": "uint256",
          "internalType": "uint256"
        }
      ],
      "stateMutability": "view"
    },
    {
      "type": "function",
      "name": "transferOwnership",
      "inputs": [
        {
          "name": "newOwner",
          "type": "address",
          "internalType": "address"
        }
      ],
      "outputs": [],
      "stateMutability": "nonpayable"
    },
    {
      "type": "function",
      "name": "userInGroups",
      "inputs": [
        {
          "name": "",
          "type": "uint256",
          "internalType": "uint256"
        },
        {
          "name": "",
          "type": "address",
          "internalType": "address"
        }
      ],
      "outputs": [
        {
          "name": "",
          "type": "bool",
          "internalType": "bool"
        }
      ],
      "stateMutability": "view"
    },
    {
      "type": "function",
      "name": "withdraw",
      "inputs": [
        {
          "name": "amount",
          "type": "uint256",
          "internalType": "uint256"
        }
      ],
      "outputs": [],
      "stateMutability": "nonpayable"
    },
    {
      "type": "event",
      "name": "AcceptedInvite",
      "inputs": [
        {
          "name": "id",
          "type": "uint256",
          "indexed": true,
          "internalType": "uint256"
        },
        {
          "name": "user",
          "type": "address",
          "indexed": false,
          "internalType": "address"
        }
      ],
      "anonymous": false
    },
    {
      "type": "event",
      "name": "BetCancelled",
      "inputs": [
        {
          "name": "id",
          "type": "uint256",
          "indexed": false,
          "internalType": "uint256"
        }
      ],
      "anonymous": false
    },
    {
      "type": "event",
      "name": "BetCreated",
      "inputs": [
        {
          "name": "id",
          "type": "uint256",
          "indexed": false,
          "internalType": "uint256"
        },
        {
          "name": "bet",
          "type": "tuple",
          "indexed": false,
          "internalType": "struct HubStruct.Bet",
          "components": [
            {
              "name": "options",
              "type": "tuple[]",
              "internalType": "struct HubStruct.Options[]",
              "components": [
                {
                  "name": "option",
                  "type": "string",
                  "internalType": "string"
                },
                {
                  "name": "totalStaked",
                  "type": "uint256",
                  "internalType": "uint256"
                }
              ]
            },
            {
              "name": "betType",
              "type": "uint8",
              "internalType": "enum HubStruct.BetType"
            },
            {
              "name": "name",
              "type": "string",
              "internalType": "string"
            },
            {
              "name": "description",
              "type": "string",
              "internalType": "string"
            },
            {
              "name": "image",
              "type": "string",
              "internalType": "string"
            },
            {
              "name": "link",
              "type": "string",
              "internalType": "string"
            },
            {
              "name": "owner",
              "type": "address",
              "internalType": "address"
            },
            {
              "name": "result",
              "type": "uint256",
              "internalType": "uint256"
            },
            {
              "name": "status",
              "type": "uint8",
              "internalType": "enum HubStruct.BetStatus"
            },
            {
              "name": "createdAt",
              "type": "uint256",
              "internalType": "uint256"
            },
            {
              "name": "updatedAt",
              "type": "uint256",
              "internalType": "uint256"
            },
            {
              "name": "betDuration",
              "type": "uint256",
              "internalType": "uint256"
            },
            {
              "name": "privateBet",
              "type": "bool",
              "internalType": "bool"
            }
          ]
        },
        {
          "name": "user",
          "type": "address",
          "indexed": false,
          "internalType": "address"
        },
        {
          "name": "requestId",
          "type": "bytes",
          "indexed": false,
          "internalType": "bytes"
        }
      ],
      "anonymous": false
    },
    {
      "type": "event",
      "name": "BetRequest",
      "inputs": [
        {
          "name": "id",
          "type": "uint256",
          "indexed": false,
          "internalType": "uint256"
        },
        {
          "name": "requestId",
          "type": "bytes",
          "indexed": false,
          "internalType": "bytes"
        }
      ],
      "anonymous": false
    },
    {
      "type": "event",
      "name": "BetResolved",
      "inputs": [
        {
          "name": "id",
          "type": "uint256",
          "indexed": false,
          "internalType": "uint256"
        },
        {
          "name": "resultIndex",
          "type": "uint256",
          "indexed": false,
          "internalType": "uint256"
        }
      ],
      "anonymous": false
    },
    {
      "type": "event",
      "name": "Initialized",
      "inputs": [
        {
          "name": "version",
          "type": "uint64",
          "indexed": false,
          "internalType": "uint64"
        }
      ],
      "anonymous": false
    },
    {
      "type": "event",
      "name": "OwnershipTransferred",
      "inputs": [
        {
          "name": "previousOwner",
          "type": "address",
          "indexed": true,
          "internalType": "address"
        },
        {
          "name": "newOwner",
          "type": "address",
          "indexed": true,
          "internalType": "address"
        }
      ],
      "anonymous": false
    },
    {
      "type": "event",
      "name": "RewardClaimed",
      "inputs": [
        {
          "name": "id",
          "type": "uint256",
          "indexed": true,
          "internalType": "uint256"
        },
        {
          "name": "user",
          "type": "address",
          "indexed": false,
          "internalType": "address"
        },
        {
          "name": "reward",
          "type": "uint256",
          "indexed": false,
          "internalType": "uint256"
        }
      ],
      "anonymous": false
    },
    {
      "type": "event",
      "name": "Staked",
      "inputs": [
        {
          "name": "id",
          "type": "uint256",
          "indexed": true,
          "internalType": "uint256"
        },
        {
          "name": "user",
          "type": "address",
          "indexed": false,
          "internalType": "address"
        },
        {
          "name": "optionIndex",
          "type": "uint256",
          "indexed": false,
          "internalType": "uint256"
        },
        {
          "name": "amount",
          "type": "uint256",
          "indexed": false,
          "internalType": "uint256"
        }
      ],
      "anonymous": false
    },
    {
      "type": "event",
      "name": "UserInvitation",
      "inputs": [
        {
          "name": "id",
          "type": "uint256",
          "indexed": true,
          "internalType": "uint256"
        },
        {
          "name": "user",
          "type": "address",
          "indexed": false,
          "internalType": "address"
        },
        {
          "name": "userType",
          "type": "uint8",
          "indexed": false,
          "internalType": "enum HubStruct.UserType"
        }
      ],
      "anonymous": false
    },
    {
      "type": "error",
      "name": "InvalidInitialization",
      "inputs": []
    },
    {
      "type": "error",
      "name": "NotInitializing",
      "inputs": []
    },
    {
      "type": "error",
      "name": "OwnableInvalidOwner",
      "inputs": [
        {
          "name": "owner",
          "type": "address",
          "internalType": "address"
        }
      ]
    },
    {
      "type": "error",
      "name": "OwnableUnauthorizedAccount",
      "inputs": [
        {
          "name": "account",
          "type": "address",
          "internalType": "address"
        }
      ]
    }
  ],
  "bytecode": {
    "object": "0x608060405234610027576100116101cd565b61001961002c565b614dde6101d98239614dde90f35b610032565b60405190565b5f80fd5b634e487b7160e01b5f52602260045260245ffd5b906001600283049216801561006a575b602083101461006557565b610036565b91607f169161005a565b5f5260205f2090565b601f602091010490565b1b90565b919060086100a69102916100a05f1984610087565b92610087565b9181191691161790565b90565b90565b6100ca6100c56100cf926100b0565b6100b3565b6100b0565b90565b90565b91906100eb6100e66100f3936100b6565b6100d2565b90835461008b565b9055565b5f90565b61010d916101076100f7565b916100d5565b565b5b81811061011b575050565b806101285f6001936100fb565b01610110565b9190601f811161013e575b505050565b61014a61016f93610074565b9060206101568461007d565b83019310610177575b6101689061007d565b019061010f565b5f8080610139565b91506101688192905061015f565b61019a6016610194835461004a565b8361012e565b602c7f68747470733a2f2f7777772e676f6f676c652e636f6d00000000000000000000019055565b6101cb90610185565b565b6101d65f6101c2565b56fe60806040526004361015610015575b3661205557005b61001f5f356102be565b8063061e494f146102b95780630793aa53146102b457806321b40b03146102af57806322af00fa146102aa57806327bce91b146102a55780632e1a7d4d146102a0578063310efb481461029b578063357401f5146102965780633f2900961461029157806342c3196e1461028c5780634411b3eb14610287578063464c5b6c146102825780634ae855cf1461027d5780634c36c36e146102785780635aed78021461027357806363d62ae41461026e578063715018a6146102695780637638301e146102645780637b0472f01461025f5780638129fc1c1461025a578063815ff1ac14610255578063840413a61461025057806385383ad51461024b57806385f07bbe146102465780638da5cb5b14610241578063995e43391461023c5780639ebb038814610237578063a1845dcf14610232578063a18f07a01461022d578063a769c0fe14610228578063ae169a5014610223578063aee323911461021e578063b7201c8314610219578063c0eb83c514610214578063c6ff33061461020f578063d113f6f61461020a578063dbbf2c4714610205578063e43e216614610200578063eed02e4b146101fb578063f082f17a146101f6578063f2fde38b146101f15763fdcdb06b0361000e57612020565b611fb6565b611f63565b611ecf565b611e9b565b611e66565b611dd0565b611d8c565b611d55565b611c0d565b611bbf565b611b53565b611b1e565b611ac1565b611a8b565b611a55565b611a20565b6119eb565b6119b6565b61194b565b6118bf565b6114ee565b61133e565b611314565b6112e1565b6112ae565b611278565b611222565b61118e565b611158565b611054565b61101f565b610fb3565b610eeb565b610e03565b610dcf565b610d6f565b610d35565b610ce1565b61092b565b61078a565b610607565b60e01c90565b60405190565b5f80fd5b5f80fd5b5f80fd5b90565b6102e2816102d6565b036102e957565b5f80fd5b905035906102fa826102d9565b565b9060208282031261031557610312915f016102ed565b90565b6102ce565b5190565b60209181520190565b60200190565b5190565b60209181520190565b90825f9392825e0152565b601f801991011690565b61036e61037760209361037c936103658161032d565b93848093610331565b9586910161033a565b610345565b0190565b610389906102d6565b9052565b906103b7906020806103ac604084015f8701518582035f87015261034f565b940151910190610380565b90565b906103c49161038d565b90565b60200190565b906103e16103da8361031a565b809261031e565b90816103f260208302840194610327565b925f915b83831061040557505050505090565b90919293946020610427610421838560019503875289516103ba565b976103c7565b93019301919392906103f6565b634e487b7160e01b5f52602160045260245ffd5b6003111561045257565b610434565b9061046182610448565b565b61046c90610457565b90565b61047890610463565b9052565b60018060a01b031690565b6104909061047c565b90565b61049c90610487565b9052565b600411156104aa57565b610434565b906104b9826104a0565b565b6104c4906104af565b90565b6104d0906104bb565b9052565b151590565b6104e2906104d4565b9052565b906105ec906101808061056d61055b6105496105376105136101a088015f8b01518982035f8b01526103cd565b61052560208b015160208a019061046f565b60408a015188820360408a015261034f565b6060890151878203606089015261034f565b6080880151868203608088015261034f565b60a087015185820360a087015261034f565b9461058060c082015160c0860190610493565b61059260e082015160e0860190610380565b6105a66101008201516101008601906104c7565b6105ba610120820151610120860190610380565b6105ce610140820151610140860190610380565b6105e2610160820151610160860190610380565b01519101906104d9565b90565b6106049160208201915f8184039101526104e6565b90565b346106375761063361062261061d3660046102fc565b61239e565b61062a6102c4565b918291826105ef565b0390f35b6102ca565b5f91031261064657565b6102ce565b634e487b7160e01b5f52604160045260245ffd5b9061066990610345565b810190811067ffffffffffffffff82111761068357604052565b61064b565b9061069b6106946102c4565b928361065f565b565b67ffffffffffffffff81116106bb576106b7602091610345565b0190565b61064b565b906106d26106cd8361069d565b610688565b918252565b5f7f68747470733a2f2f7669612e706c616365686f6c6465722e636f6d2f31353000910152565b610708601f6106c0565b90610715602083016106d7565b565b61071f6106fe565b90565b61072a610717565b90565b610735610722565b90565b60209181520190565b61076061076960209361076e936107578161032d565b93848093610738565b9586910161033a565b610345565b0190565b6107879160208201915f818403910152610741565b90565b346107ba5761079a36600461063c565b6107b66107a561072d565b6107ad6102c4565b91829182610772565b0390f35b6102ca565b6107c881610487565b036107cf57565b5f80fd5b905035906107e0826107bf565b565b9091606082840312610817576108146107fd845f85016102ed565b9361080b81602086016107d3565b936040016102ed565b90565b6102ce565b90565b61083361082e610838926102d6565b61081c565b6102d6565b90565b906108459061081f565b5f5260205260405f2090565b61086561086061086a9261047c565b61081c565b61047c565b90565b61087690610851565b90565b6108829061086d565b90565b9061088f90610879565b5f5260205260405f2090565b906108a59061081f565b5f5260205260405f2090565b1c90565b90565b6108c89060086108cd93026108b1565b6108b5565b90565b906108db91546108b8565b90565b90610906926108fc610901926108f76007955f9661083b565b610885565b61089b565b6108d0565b90565b610912906102d6565b9052565b9190610929905f60208501940190610909565b565b3461095c576109586109476109413660046107e2565b916108de565b61094f6102c4565b91829182610916565b0390f35b6102ca565b9061096b9061081f565b5f5260205260405f2090565b5f1c90565b60ff1690565b61098e61099391610977565b61097c565b90565b6109a09054610982565b90565b634e487b7160e01b5f52602260045260245ffd5b90600160028304921680156109d7575b60208310146109d257565b6109a3565b91607f16916109c7565b5f5260205f2090565b905f9291805490610a046109fd836109b7565b8094610331565b916001811690815f14610a5b5750600114610a1f575b505050565b610a2c91929394506109e1565b915f925b818410610a4357505001905f8080610a1a565b60018160209295939554848601520191019290610a30565b92949550505060ff19168252151560200201905f8080610a1a565b90610a80916109ea565b90565b90610aa3610a9c92610a936102c4565b93848092610a76565b038361065f565b565b60018060a01b031690565b610abc610ac191610977565b610aa5565b90565b610ace9054610ab0565b90565b610add610ae291610977565b6108b5565b90565b610aef9054610ad1565b90565b60ff1690565b610b04610b0991610977565b610af2565b90565b610b169054610af8565b90565b60ff1690565b610b2b610b3091610977565b610b19565b90565b610b3d9054610b1f565b90565b610b4b906001610961565b90610b5860018301610996565b91610b6560028201610a83565b91610b7260038301610a83565b91610b7f60048201610a83565b91610b8c60058301610a83565b91610b9960068201610ac4565b91610ba660078301610ae5565b91610bb360088201610b0c565b91610bc060098301610ae5565b91610bcd600a8201610ae5565b91610be6600c610bdf600b8501610ae5565b9301610b33565b90565b610bf290610463565b9052565b610bff90610487565b9052565b610c0c906104bb565b9052565b610c19906104d4565b9052565b9997959c9b9a989694939291906101808b01905f8c01610c3c91610be9565b8a810360208c0152610c4d91610741565b89810360408b0152610c5e91610741565b88810360608a0152610c6f91610741565b8781036080890152610c8091610741565b9860a08701610c8e91610bf6565b60c08601610c9b91610909565b60e08501610ca891610c03565b6101008401610cb691610909565b6101208301610cc491610909565b6101408201610cd291610909565b61016001610cdf91610c10565b565b34610d2157610d1d610cfc610cf73660046102fc565b610b40565b98610d149c9a9c9891989792979693969594956102c4565b9c8d9c8d610c1d565b0390f35b6102ca565b610d3260095f906108d0565b90565b34610d6557610d4536600461063c565b610d61610d50610d26565b610d586102c4565b91829182610916565b0390f35b6102ca565b5f0190565b34610d9d57610d87610d823660046102fc565b612438565b610d8f6102c4565b80610d9981610d6a565b0390f35b6102ca565b9190604083820312610dca5780610dbe610dc7925f86016102ed565b936020016102ed565b90565b6102ce565b34610dfe57610de8610de2366004610da2565b906125ed565b610df06102c4565b80610dfa81610d6a565b0390f35b6102ca565b34610e3157610e1b610e163660046102fc565b6126cb565b610e236102c4565b80610e2d81610d6a565b0390f35b6102ca565b9190604083820312610e5e5780610e52610e5b925f86016102ed565b936020016107d3565b90565b6102ce565b90610e6d9061081f565b5f5260205260405f2090565b90610e8390610879565b5f5260205260405f2090565b610e9f906008610ea493026108b1565b610b19565b90565b90610eb29154610e8f565b90565b610ece610ed392610ec96002935f94610e63565b610e79565b610ea7565b90565b9190610ee9905f60208501940190610c10565b565b34610f1c57610f18610f07610f01366004610e36565b90610eb5565b610f0f6102c4565b91829182610ed6565b0390f35b6102ca565b5190565b60209181520190565b60200190565b90610f4181602093610493565b0190565b60200190565b90610f68610f62610f5b84610f21565b8093610f25565b92610f2e565b905f5b818110610f785750505090565b909192610f91610f8b6001928651610f34565b94610f45565b9101919091610f6b565b610fb09160208201915f818403910152610f4b565b90565b34610fe357610fdf610fce610fc93660046102fc565b612805565b610fd66102c4565b91829182610f9b565b0390f35b6102ca565b90565b610fff610ffa61100492610fe8565b61081c565b6102d6565b90565b611011600a610feb565b90565b61101c611007565b90565b3461104f5761102f36600461063c565b61104b61103a611014565b6110426102c4565b91829182610916565b0390f35b6102ca565b346110845761108061106f61106a3660046102fc565b612a3e565b6110776102c4565b91829182610ed6565b0390f35b6102ca565b906110939061081f565b5f5260205260405f2090565b634e487b7160e01b5f52603260045260245ffd5b5490565b5f5260205f2090565b6110c9816110b3565b8210156110e3576110db6001916110b7565b910201905f90565b61109f565b6110f89060086110fd93026108b1565b610aa5565b90565b9061110b91546110e8565b90565b611119906003611089565b611122816110b3565b82101561113f5761113c91611136916110c0565b90611100565b90565b5f80fd5b9190611156905f60208501940190610bf6565b565b346111895761118561117461116e366004610da2565b9061110e565b61117c6102c4565b91829182611143565b0390f35b6102ca565b346111bc576111a66111a13660046102fc565b612c17565b6111ae6102c4565b806111b881610d6a565b0390f35b6102ca565b5f7f47616d6531000000000000000000000000000000000000000000000000000000910152565b6111f260056106c0565b906111ff602083016111c1565b565b6112096111e8565b90565b611214611201565b90565b61121f61120c565b90565b346112525761123236600461063c565b61124e61123d611217565b6112456102c4565b91829182610772565b0390f35b6102ca565b6112706112759261126b6006935f94610e63565b610e79565b610ea7565b90565b346112a9576112a561129461128e366004610e36565b90611257565b61129c6102c4565b91829182610ed6565b0390f35b6102ca565b346112dc576112be36600461063c565b6112c6612d21565b6112ce6102c4565b806112d881610d6a565b0390f35b6102ca565b3461130f576112f96112f43660046102fc565b612e74565b6113016102c4565b8061130b81610d6a565b0390f35b6102ca565b611328611322366004610da2565b90613016565b6113306102c4565b8061133a81610d6a565b0390f35b3461136c5761134e36600461063c565b611356613450565b61135e6102c4565b8061136881610d6a565b0390f35b6102ca565b9061137b9061081f565b5f5260205260405f2090565b634e487b7160e01b5f525f60045260245ffd5b60209181520190565b5f5260205f2090565b905f92918054906113c66113bf836109b7565b809461139a565b916001811690815f1461141d57506001146113e1575b505050565b6113ee91929394506113a3565b915f925b81841061140557505001905f80806113dc565b600181602092959395548486015201910192906113f2565b92949550505060ff19168252151560200201905f80806113dc565b90611442916113ac565b90565b9061146561145e926114556102c4565b93848092611438565b038361065f565b565b905f1061147a5761147790611445565b90565b611387565b611495906114906004915f92611371565b611467565b90565b5190565b60209181520190565b6114c46114cd6020936114d2936114bb81611498565b9384809361149c565b9586910161033a565b610345565b0190565b6114eb9160208201915f8184039101526114a5565b90565b3461151e5761151a6115096115043660046102fc565b61147f565b6115116102c4565b918291826114d6565b0390f35b6102ca565b5f80fd5b5f80fd5b5f80fd5b67ffffffffffffffff81116115475760208091020190565b61064b565b5f80fd5b5f80fd5b90825f939282370152565b9092919261157461156f8261069d565b610688565b938185526020850190828401116115905761158e92611554565b565b611550565b9080601f830112156115b3578160206115b09335910161155f565b90565b61152b565b91909160408184031261160b576115cf6040610688565b925f8201359167ffffffffffffffff8311611606576115f3826115ff948301611595565b5f8601526020016102ed565b6020830152565b611527565b611523565b92919061162461161f8261152f565b610688565b938185526020808601920281019183831161167b5781905b83821061164a575050505050565b813567ffffffffffffffff81116116765760209161166b87849387016115b8565b81520191019061163c565b61152b565b61154c565b9080601f8301121561169e5781602061169b93359101611610565b90565b61152b565b600311156116ad57565b5f80fd5b905035906116be826116a3565b565b600411156116ca57565b5f80fd5b905035906116db826116c0565b565b6116e6816104d4565b036116ed57565b5f80fd5b905035906116fe826116dd565b565b9190916101a081840312611885576117196101a0610688565b925f82013567ffffffffffffffff81116118805781611739918401611680565b5f85015261174a81602084016116b1565b6020850152604082013567ffffffffffffffff811161187b578161176f918401611595565b6040850152606082013567ffffffffffffffff81116118765781611794918401611595565b6060850152608082013567ffffffffffffffff811161187157816117b9918401611595565b608085015260a08201359167ffffffffffffffff831161186c576117e282611864948301611595565b60a08601526117f48260c083016107d3565b60c08601526118068260e083016102ed565b60e08601526118198261010083016116ce565b61010086015261182d8261012083016102ed565b6101208601526118418261014083016102ed565b6101408601526118558261016083016102ed565b610160860152610180016116f1565b610180830152565b611527565b611527565b611527565b611527565b611527565b611523565b906020828203126118ba575f82013567ffffffffffffffff81116118b5576118b29201611700565b90565b6102d2565b6102ce565b346118ef576118eb6118da6118d536600461188a565b613c9d565b6118e26102c4565b91829182610916565b0390f35b6102ca565b600211156118fe57565b5f80fd5b9050359061190f826118f4565b565b90916060828403126119465761194361192c845f85016102ed565b9361193a81602086016107d3565b93604001611902565b90565b6102ce565b3461197a5761196461195e366004611911565b91614293565b61196c6102c4565b8061197681610d6a565b0390f35b6102ca565b90565b61199661199161199b9261197f565b61081c565b6102d6565b90565b6119a86002611982565b90565b6119b361199e565b90565b346119e6576119c636600461063c565b6119e26119d16119ab565b6119d96102c4565b91829182610916565b0390f35b6102ca565b34611a1b576119fb36600461063c565b611a17611a066142a4565b611a0e6102c4565b91829182611143565b0390f35b6102ca565b34611a5057611a4c611a3b611a363660046102fc565b6142c2565b611a436102c4565b91829182610916565b0390f35b6102ca565b34611a8657611a82611a71611a6b3660046107e2565b916142e4565b611a796102c4565b91829182610916565b0390f35b6102ca565b34611abc57611ab8611aa7611aa1366004610e36565b90614315565b611aaf6102c4565b91829182610ed6565b0390f35b6102ca565b34611af257611aee611add611ad7366004610e36565b90614373565b611ae56102c4565b91829182610916565b0390f35b6102ca565b905f10611b0a57611b0790610a83565b90565b611387565b611b1b600a5f90611af7565b90565b34611b4e57611b2e36600461063c565b611b4a611b39611b0f565b611b416102c4565b91829182610772565b0390f35b6102ca565b34611b8157611b6b611b663660046102fc565b614589565b611b736102c4565b80611b7d81610d6a565b0390f35b6102ca565b90565b611b9d611b98611ba292611b86565b61081c565b6102d6565b90565b611bb16203f480611b89565b90565b611bbc611ba5565b90565b34611bef57611bcf36600461063c565b611beb611bda611bb4565b611be26102c4565b91829182610916565b0390f35b6102ca565b611c0a90611c056008915f9261089b565b6108d0565b90565b34611c3d57611c39611c28611c233660046102fc565b611bf4565b611c306102c4565b91829182610916565b0390f35b6102ca565b90611c4c9061081f565b5f5260205260405f2090565b5490565b5f5260205f2090565b611c6e81611c58565b821015611c8857611c80600191611c5c565b910201905f90565b61109f565b60a01c90565b60ff1690565b611ca5611caa91611c8d565b611c93565b90565b611cb79054611c99565b90565b611cc5906005611c42565b90611ccf82611c58565b811015611cfa57611cdf91611c65565b5090611cf75f611cf0818501610ac4565b9301611cad565b90565b5f80fd5b60021115611d0857565b610434565b90611d1782611cfe565b565b611d2290611d0d565b90565b611d2e90611d19565b9052565b916020611d53929493611d4c60408201965f830190610bf6565b0190611d25565b565b34611d8757611d6e611d68366004610da2565b90611cba565b90611d83611d7a6102c4565b92839283611d32565b0390f35b6102ca565b34611dbd57611db9611da8611da2366004610e36565b906146e1565b611db06102c4565b91829182610ed6565b0390f35b6102ca565b611dcd5f5f90611af7565b90565b34611e0057611de036600461063c565b611dfc611deb611dc2565b611df36102c4565b91829182610772565b0390f35b6102ca565b5f7f53696e676c650000000000000000000000000000000000000000000000000000910152565b611e3660066106c0565b90611e4360208301611e05565b565b611e4d611e2c565b90565b611e58611e45565b90565b611e63611e50565b90565b34611e9657611e7636600461063c565b611e92611e81611e5b565b611e896102c4565b91829182610772565b0390f35b6102ca565b34611eca57611eb4611eae366004610e36565b9061484c565b611ebc6102c4565b80611ec681610d6a565b0390f35b6102ca565b34611efd57611ee7611ee23660046102fc565b614858565b611eef6102c4565b80611ef981610d6a565b0390f35b6102ca565b5f7f48656c6c6f20576f726c64000000000000000000000000000000000000000000910152565b611f33600b6106c0565b90611f4060208301611f02565b565b611f4a611f29565b90565b611f55611f42565b90565b611f60611f4d565b90565b34611f9357611f7336600461063c565b611f8f611f7e611f58565b611f866102c4565b91829182610772565b0390f35b6102ca565b90602082820312611fb157611fae915f016107d3565b90565b6102ce565b34611fe457611fce611fc9366004611f98565b61496c565b611fd66102c4565b80611fe081610d6a565b0390f35b6102ca565b90565b612000611ffb61200592611fe9565b61081c565b6102d6565b90565b6120126001611fec565b90565b61201d612008565b90565b346120505761203036600461063c565b61204c61203b612015565b6120436102c4565b91829182610916565b0390f35b6102ca565b5f80fd5b6120646101a0610688565b90565b606090565b5f90565b606090565b5f90565b5f90565b5f90565b5f90565b60209081808080808080808080808061209c612059565b9d8e6120a6612067565b8152016120b161206c565b8152016120bc612070565b8152016120c7612070565b8152016120d2612070565b8152016120dd612070565b8152016120e8612075565b8152016120f3612079565b8152016120fe61207d565b815201612109612079565b815201612114612079565b81520161211f612079565b81520161212a612081565b81525050565b612138612085565b90565b5490565b9061215161214c8361152f565b610688565b918252565b5f5260205f2090565b52565b9061216c906102d6565b9052565b61217a6040610688565b90565b906121b46121ab600161218e612170565b946121a561219d5f8301610a83565b5f880161215f565b01610ae5565b60208401612162565b565b6121bf9061217d565b90565b906121cc8261213b565b6121d58161213f565b926121e36020850191612156565b5f915b8383106121f35750505050565b60026020600192612203856121b6565b8152019201920191906121e6565b52565b9061221e90610457565b9052565b9061222c90610487565b9052565b9061223a906104af565b9052565b90612248906104d4565b9052565b90612390612386600c61225d612059565b9461227461226c5f83016121c2565b5f8801612211565b61228c61228360018301610996565b60208801612214565b6122a461229b60028301610a83565b6040880161215f565b6122bc6122b360038301610a83565b6060880161215f565b6122d46122cb60048301610a83565b6080880161215f565b6122ec6122e360058301610a83565b60a0880161215f565b6123046122fb60068301610ac4565b60c08801612222565b61231c61231360078301610ae5565b60e08801612162565b61233561232b60088301610b0c565b6101008801612230565b61234e61234460098301610ae5565b6101208801612162565b61236761235d600a8301610ae5565b6101408801612162565b612380612376600b8301610ae5565b6101608801612162565b01610b33565b610180840161223e565b565b61239b9061224c565b90565b6123b56123ba916123ad612130565b506001610961565b612392565b90565b6123ce906123c9614977565b612404565b565b6123d990610851565b90565b6123e5906123d0565b90565b6123f19061086d565b90565b6123fc6102c4565b3d5f823e3d90fd5b5f8080809361241a612415336123dc565b6123e8565b82821561242f575bf11561242a57565b6123f4565b506108fc612422565b612441906123bd565b565b5f7f426574206e6f742070656e64696e670000000000000000000000000000000000910152565b612477600f602092610738565b61248081612443565b0190565b6124999060208101905f81830391015261246a565b90565b156124a357565b6124ab6102c4565b62461bcd60e51b8152806124c160048201612484565b0390fd5b5f7f4f6e6c79206d6f64657261746f722063616e2073657420726573756c74000000910152565b6124f9601d602092610738565b612502816124c5565b0190565b61251b9060208101905f8183039101526124ec565b90565b1561252557565b61252d6102c4565b62461bcd60e51b81528061254360048201612506565b0390fd5b5f1b90565b9061255860ff91612547565b9181191691161790565b61256b906104af565b90565b90565b9061258661258161258d92612562565b61256e565b825461254c565b9055565b9061259d5f1991612547565b9181191691161790565b90565b906125bf6125ba6125c69261081f565b6125a7565b8254612591565b9055565b9160206125eb9294936125e460408201965f830190610909565b0190610909565b565b612620612607600861260160018590610961565b01610b0c565b61261a61261460016104af565b916104af565b1461249c565b61264661264161263c61263560068590610e63565b3390610e79565b610b33565b61251e565b61265f6002600861265960018590610961565b01612571565b61267782600761267160018590610961565b016125aa565b61268f42600a61268960018590610961565b016125aa565b907f6f014aa1fc0c12b56c099fa8727bbf780907046b16c01199f4092f5c721187ab916126c66126bd6102c4565b928392836125ca565b0390a1565b6126fe6126e560086126df60018590610961565b01610b0c565b6126f86126f260016104af565b916104af565b1461249c565b6127176003600861271160018590610961565b01612571565b61274d7fe3906e8d1e2167ef706b023e6e83af697db5cd38f233c71bf5021b26b316c3a2916127446102c4565b91829182610916565b0390a1565b606090565b60209181520190565b61276a9054610ab0565b90565b60010190565b9061279061278a612783846110b3565b8093612757565b926110b7565b905f5b8181106127a05750505090565b9091926127c06127ba6001926127b587612760565b610f34565b9461276d565b9101919091612793565b906127d491612773565b90565b906127f76127f0926127e76102c4565b938480926127ca565b038361065f565b565b612802906127d7565b90565b61281c61282191612814612752565b506003611089565b6127f9565b90565b5f90565b90565b61283f61283a61284492612828565b61081c565b6102d6565b90565b5f7f4e6f20696e7669746174696f6e20666f756e6400000000000000000000000000910152565b61287b6013602092610738565b61288481612847565b0190565b61289d9060208101905f81830391015261286e565b90565b156128a757565b6128af6102c4565b62461bcd60e51b8152806128c560048201612888565b0390fd5b60016128d591016102d6565b90565b6128e1906104d4565b90565b90565b906128fc6128f7612903926128d8565b6128e4565b825461254c565b9055565b5f80910155565b905f036129205761291e90612907565b565b611387565b90565b5f5260205f2090565b5490565b61293e81612931565b82101561295857612950600191612928565b910201905f90565b61109f565b1b90565b9190600861298191029161297b60018060a01b038461295d565b9261295d565b9181191691161790565b90565b91906129a461299f6129ac93610879565b61298b565b908354612961565b9055565b90815491680100000000000000008310156129e057826129d89160016129de95018155612935565b9061298e565b565b61064b565b5f7f55736572206e6f7420696e766974656400000000000000000000000000000000910152565b612a196010602092610738565b612a22816129e5565b0190565b612a3b9060208101905f818303910152612a0c565b90565b612a46612824565b50612a76612a5e612a5960058490611c42565b611c58565b612a70612a6a5f61282b565b916102d6565b116128a0565b612a7f5f61282b565b5b80612aa6612aa0612a9b612a9660058790611c42565b611c58565b6102d6565b916102d6565b1015612bf557612acd5f612ac6612abf60058690611c42565b8490611c65565b5001610ac4565b612adf612ad933610487565b91610487565b14612af257612aed906128c9565b612a80565b612b63612b6991612b196001612b14612b0d60028890610e63565b3390610e79565b6128e7565b612b3a5f612b33612b2c60058890611c42565b8490611c65565b5001611cad565b612b4c612b465f611d0d565b91611d0d565b14612bd0575b612b5e60058590611c42565b611c65565b9061290e565b612b87612b80612b7b60038490611089565b612925565b33906129b0565b3390612bc8612bb67f9c980bf56be121fc68a81d95fabc5213737d3a63221832243b680166f4585ddd9261081f565b92612bbf6102c4565b91829182611143565b0390a2600190565b612bf06001612beb612be460068890610e63565b3390610e79565b6128e7565b612b52565b612bfd6102c4565b62461bcd60e51b815280612c1360048201612a26565b0390fd5b612c4a612c316008612c2b60018590610961565b01610b0c565b612c44612c3e60016104af565b916104af565b1461249c565b612c6360026008612c5d60018590610961565b01612571565b612c83612c6f826149fb565b6007612c7d60018590610961565b016125aa565b612c996007612c93836001610961565b01610ae5565b7f6f014aa1fc0c12b56c099fa8727bbf780907046b16c01199f4092f5c721187ab91612ccf612cc66102c4565b928392836125ca565b0390a1565b612cdc614977565b612ce4612d0e565b565b612cfa612cf5612cff92612828565b61081c565b61047c565b90565b612d0b90612ce6565b90565b612d1f612d1a5f612d02565b614a3c565b565b612d29612cd4565b565b60207f756e6374696f6e00000000000000000000000000000000000000000000000000917f4f6e6c79206265742063726561746f722063616e2063616c6c207468697320665f8201520152565b612d856027604092610738565b612d8e81612d2b565b0190565b612da79060208101905f818303910152612d78565b90565b15612db157565b612db96102c4565b62461bcd60e51b815280612dcf60048201612d92565b0390fd5b612e0d90612e08612df06006612dea846001610961565b01610ac4565b612e02612dfc33610487565b91610487565b14612daa565b612e0f565b565b612e7290612e45612e2d6008612e2760018590610961565b01610b0c565b612e3f612e395f6104af565b916104af565b1461249c565b612e5e60016008612e5860018590610961565b01612571565b600a612e6c42926001610961565b016125aa565b565b612e7d90612dd3565b565b5f7f55736572206e6f7420696e2067726f7570000000000000000000000000000000910152565b612eb36011602092610738565b612ebc81612e7f565b0190565b612ed59060208101905f818303910152612ea6565b90565b15612edf57565b612ee76102c4565b62461bcd60e51b815280612efd60048201612ec0565b0390fd5b5f7f496e76616c6964206f7074696f6e20696e646578000000000000000000000000910152565b612f356014602092610738565b612f3e81612f01565b0190565b612f579060208101905f818303910152612f28565b90565b15612f6157565b612f696102c4565b62461bcd60e51b815280612f7f60048201612f42565b0390fd5b634e487b7160e01b5f52601160045260245ffd5b612fa6612fac919392936102d6565b926102d6565b8201809211612fb757565b612f83565b612fc58161213b565b821015612fdf57612fd7600291612156565b910201905f90565b61109f565b60409061300d613014949695939661300360608401985f850190610bf6565b6020830190610909565b0190610909565b565b613049613030600861302a60018590610961565b01610b0c565b61304361303d60016104af565b916104af565b1461249c565b61306f61306a61306561305e60028590610e63565b3390610e79565b610b33565b612ed8565b6130a08261309a61309461308f5f61308960018890610961565b0161213b565b6102d6565b916102d6565b10612f5a565b6130dc346130d66130c76130c06130b96007879061083b565b3390610885565b869061089b565b916130d183610ae5565b612f97565b906125aa565b6131133461310d60016130fc5f6130f4838890610961565b018790612fbc565b50019161310883610ae5565b612f97565b906125aa565b61313b346131356131266008859061089b565b9161313083610ae5565b612f97565b906125aa565b3391349261317e61316c7f17700ceb1658b18206f427c1578048e87504106b14ec69e9b4586d9a95174a329461081f565b946131756102c4565b93849384612fe4565b0390a2565b60401c90565b61319561319a91613183565b610b19565b90565b6131a79054613189565b90565b67ffffffffffffffff1690565b6131c36131c891610977565b6131aa565b90565b6131d590546131b7565b90565b67ffffffffffffffff1690565b6131f96131f46131fe92612828565b61081c565b6131d8565b90565b61321561321061321a92611fe9565b61081c565b6131d8565b90565b6132269061086d565b90565b9061323c67ffffffffffffffff91612547565b9181191691161790565b61325a61325561325f926131d8565b61081c565b6131d8565b90565b90565b9061327a61327561328192613246565b613262565b8254613229565b9055565b60401b90565b9061329f68ff000000000000000091613285565b9181191691161790565b906132be6132b96132c5926128d8565b6128e4565b825461328b565b9055565b6132d290613201565b9052565b91906132e9905f602085019401906132c9565b565b6132f3614aa8565b6133076133015f830161319d565b156104d4565b6133125f83016131cb565b8061332561331f5f6131e5565b916131d8565b148061343e575b9061334061333a6001613201565b916131d8565b1480613416575b6133529091156104d4565b9081613405575b506133e95761337361336b6001613201565b5f8401613265565b806133d7575b613381613445565b613389575b50565b613396905f8091016132a9565b60016133ce7fc7f505b2f371ae2175ee4913f4499e1f2633a7b5936321eed1cdaeb6115181d2916133c56102c4565b918291826132d6565b0390a15f613386565b6133e460015f84016132a9565b613379565b5f63f92ee8a960e01b81528061340160048201610d6a565b0390fd5b6134109150156104d4565b5f613359565b506133526134233061321d565b3b6134366134305f61282b565b916102d6565b149050613347565b508161332c565b61344e33614ad1565b565b6134586132eb565b565b5f90565b613467906102d6565b5f1981146134755760010190565b612f83565b6134849051610457565b90565b61349190516102d6565b90565b61349e90516104d4565b90565b6134ac6101a0610688565b90565b5190565b6134c26134c8919392936102d6565b926102d6565b916134d48382026102d6565b9281840414901517156134e357565b612f83565b6134f39060026134b3565b90565b90613509905f19906020036008026108b1565b8154169055565b9190600861352b9102916135255f198461295d565b9261295d565b9181191691161790565b919061354b6135466135539361081f565b6125a7565b908354613510565b9055565b6135699161356361345a565b91613535565b565b5b818110613577575050565b806135845f600193613557565b0161356c565b9061359a905f19906008026108b1565b191690565b816135a99161358a565b906002021790565b905f916135c86135c0826109e1565b92835461359f565b905555565b601f602091010490565b919290602082105f1461363057601f8411600114613600576135fa92935061359f565b90555b5b565b509061362661362b93600161361d613617856109e1565b926135cd565b8201910161356b565b6135b1565b6135fd565b5061366782936136416001946109e1565b61366061364d856135cd565b820192601f861680613672575b506135cd565b019061356b565b6002021790556135fe565b61367e908886036134f6565b5f61365a565b9290916801000000000000000082116136e4576020115f146136d557602081105f146136b9576136b39161359f565b90555b5b565b60019160ff19166136c9846109e1565b556002020190556136b6565b600191506002020190556136b7565b61064b565b9081546136f5816109b7565b9081831161371e575b81831061370c575b50505050565b613715936135d7565b5f808080613706565b61372a83838387613684565b6136fe565b5f613739916136e9565b565b905f0361374d5761374b9061372f565b565b611387565b5f600161376b926137658380830161373b565b01613557565b565b905f0361377f5761377d90613752565b565b611387565b5b818110613790575050565b8061379d5f60029361376d565b01613785565b90918281106137b2575b505050565b6137d06137ca6137c46137db956134e8565b926134e8565b92612156565b918201910190613784565b5f80806137ad565b9068010000000000000000811161380c578161380161380a9361213b565b908281556137a3565b565b61064b565b5190565b5190565b9190601f8111613829575b505050565b61383561385a936109e1565b906020613841846135cd565b83019310613862575b613853906135cd565b019061356b565b5f8080613824565b91506138538192905061384a565b9061387a8161032d565b9067ffffffffffffffff821161393a5761389e8261389885546109b7565b85613819565b602090601f83116001146138d2579180916138c1935f926138c6575b505061359f565b90555b565b90915001515f806138ba565b601f198316916138e1856109e1565b925f5b81811061392257509160029391856001969410613908575b505050020190556138c4565b613918910151601f84169061358a565b90555f80806138fc565b919360206001819287870151815501950192016138e4565b61064b565b9061394991613870565b565b906139766020600161397c9461396e5f82016139685f8801613815565b9061393f565b019201613487565b906125aa565b565b906139889161394b565b565b6139af6139a96139998461031a565b936139a485856137e3565b610327565b91612156565b5f915b8383106139bf5750505050565b60026020826139d86139d2600195613811565b8661397e565b019201920191906139b2565b906139ee9161398a565b565b6139f990610457565b90565b90565b90613a14613a0f613a1b926139f0565b6139fc565b825461254c565b9055565b613a299051610487565b90565b90613a3d60018060a01b0391612547565b9181191691161790565b90613a5c613a57613a6392610879565b61298b565b8254613a2c565b9055565b613a7190516104af565b90565b90613bb7610180600c613bbd94613a985f8201613a925f88016134af565b906139e4565b613ab160018201613aab6020880161347a565b906139ff565b613aca60028201613ac460408801613815565b9061393f565b613ae360038201613add60608801613815565b9061393f565b613afc60048201613af660808801613815565b9061393f565b613b1560058201613b0f60a08801613815565b9061393f565b613b2e60068201613b2860c08801613a1f565b90613a47565b613b4760078201613b4160e08801613487565b906125aa565b613b6160088201613b5b6101008801613a67565b90612571565b613b7b60098201613b756101208801613487565b906125aa565b613b95600a8201613b8f6101408801613487565b906125aa565b613baf600b8201613ba96101608801613487565b906125aa565b019201613494565b906128e7565b565b90613bc991613a74565b565b905f9291805490613be5613bde836109b7565b809461149c565b916001811690815f14613c3c5750600114613c00575b505050565b613c0d91929394506113a3565b915f925b818410613c2457505001905f8080613bfb565b60018160209295939554848601520191019290613c11565b92949550505060ff19168252151560200201905f8080613bfb565b90613c82613c8d91613c9a9694613c7560808601925f870190610909565b84820360208601526104e6565b936040830190610bf6565b6060818403910152613bcb565b90565b613ca561345a565b50613cb06009610ae5565b613cb99061345e565b613cc49060096125aa565b805f015181602001613cd59061347a565b826040015190836060015184608001518560a00151338760e001613cf890613487565b905f928961012001613d0990613487565b948a61014001613d1890613487565b968b61018001613d2790613494565b998c61016001613d3690613487565b99613d3f6134a1565b9c5f8e0190613d4d91612211565b60208d0190613d5b91612214565b60408c0190613d699161215f565b60608b0190613d779161215f565b60808a0190613d859161215f565b60a0890190613d939161215f565b60c0880190613da191612222565b60e0870190613daf91612162565b610100860190613dbe91612230565b610120850190613dcd91612162565b610140840190613ddc91612162565b610160830190613deb91612162565b610180820190613dfa9161223e565b6001613e066009610ae5565b613e0f91610961565b90613e1991613bbf565b613e236009610ae5565b613e2c90614c0e565b80602001613e399061347a565b5f613e4390610457565b90613e4d90610457565b14613efa575b613e5f6020820161347a565b613e72613e6c6001610457565b91610457565b14613ee0575b613e826009610ae5565b903391613ed0613e9d6004613e976009610ae5565b90611371565b7f90a595c3f2ada4f0d647c38c697c9f120589a88898734e3c15e8e6e998df9a7a94613ec76102c4565b94859485613c57565b0390a1613edd6009610ae5565b90565b613ef5613eed6009610ae5565b335f91614293565b613e78565b613f0f613f076009610ae5565b335f91614293565b613e53565b90613f509291613f4b613f336006613f2d846001610961565b01610ac4565b613f45613f3f33610487565b91610487565b14612daa565b614181565b565b5f7f5573657220616c726561647920696e2067726f75700000000000000000000000910152565b613f866015602092610738565b613f8f81613f52565b0190565b613fa89060208101905f818303910152613f79565b90565b15613fb257565b613fba6102c4565b62461bcd60e51b815280613fd060048201613f93565b0390fd5b5f7f47616d652069732066756c6c0000000000000000000000000000000000000000910152565b614008600c602092610738565b61401181613fd4565b0190565b61402a9060208101905f818303910152613ffb565b90565b1561403457565b61403c6102c4565b62461bcd60e51b81528061405260048201614015565b0390fd5b90565b6140636040610688565b90565b9061407090611d0d565b9052565b5f5260205f2090565b5490565b61408a8161407d565b8210156140a45761409c600191614074565b910201905f90565b61109f565b6140b39051611d0d565b90565b60a01b90565b906140cb60ff60a01b916140b6565b9181191691161790565b6140de90611d0d565b90565b90565b906140f96140f4614100926140d5565b6140e1565b82546140bc565b9055565b9061412e60205f61413494614126828201614120848801613a1f565b90613a47565b0192016140a9565b906140e4565b565b91906141475761414591614104565b565b611387565b908154916801000000000000000083101561417c578261417491600161417a95018155614081565b90614136565b565b61064b565b6141ba6141a261419d61419660028590610e63565b8590610e79565b610b33565b6141b46141ae5f6104d4565b916104d4565b14613fab565b6141f06141d16141cc60038490611089565b6110b3565b6141ea6141e46141df611007565b6102d6565b916102d6565b1061402d565b61422f61420761420260058490611c42565b614056565b839061422a86614221614218614059565b945f8601612222565b60208401614066565b61414c565b61424d61424661424160038490611089565b612925565b83906129b0565b90916142797f8d0a28bca046bb7b061280953becbdf1c01cbded5f21c6cc573531a5f1516a8a9261081f565b9261428e6142856102c4565b92839283611d32565b0390a2565b9061429e9291613f14565b565b5f90565b6142ac6142a0565b506142bf5f6142b9614c50565b01610ac4565b90565b60076142db6142e1926142d361345a565b506001610961565b01610ae5565b90565b9161430861430d92614303614312956142fb61345a565b50600761083b565b610885565b61089b565b610ae5565b90565b61433a9161433061433592614328612824565b506002610e63565b610e79565b610b33565b90565b634e487b7160e01b5f52601260045260245ffd5b61435d614363916102d6565b916102d6565b90811561436e570490565b61433d565b61437b61345a565b506144046143ff6143ba60016143b35f614396838890610961565b016143ad60076143a7858a90610961565b01610ae5565b90612fbc565b5001610ae5565b926143f960076143f36143eb6143da6143d56008879061089b565b610ae5565b986143e684879061083b565b610885565b936001610961565b01610ae5565b9061089b565b610ae5565b91816144186144125f61282b565b916102d6565b148015614448575b6144395761443692614431916134b3565b614351565b90565b5050506144455f61282b565b90565b508261445c6144565f61282b565b916102d6565b14614420565b5f7f426574206e6f7420636f6d706c65746564000000000000000000000000000000910152565b6144966011602092610738565b61449f81614462565b0190565b6144b89060208101905f818303910152614489565b90565b156144c257565b6144ca6102c4565b62461bcd60e51b8152806144e0600482016144a3565b0390fd5b5f7f4e6f207374616b65000000000000000000000000000000000000000000000000910152565b6145186008602092610738565b614521816144e4565b0190565b61453a9060208101905f81830391015261450b565b90565b1561454457565b61454c6102c4565b62461bcd60e51b81528061456260048201614525565b0390fd5b91602061458792949361458060408201965f830190610bf6565b0190610909565b565b6145bc6145a3600861459d60018590610961565b01610b0c565b6145b66145b060026104af565b916104af565b146144bb565b6146156145fd6145f86145db6145d46007869061083b565b3390610885565b6145f260076145ec60018890610961565b01610ae5565b9061089b565b610ae5565b61460f6146095f61282b565b916102d6565b1161453d565b614620813390614373565b9061466861462d5f61282b565b61466361464661463f6007869061083b565b3390610885565b61465d600761465760018890610961565b01610ae5565b9061089b565b6125aa565b5f80808061467d614678336123dc565b6123e8565b86908282156146d8575bf1156146d35733916146b97f24b5efa61dd1cfc659205a97fb8ed868f3cb8c81922bab2b96423e5de1de2cb79261081f565b926146ce6146c56102c4565b92839283614566565b0390a2565b6123f4565b506108fc614687565b614706916146fc614701926146f4612824565b506006610e63565b610e79565b610b33565b90565b906147449161473f6147276006614721846001610961565b01610ac4565b61473961473333610487565b91610487565b14612daa565b614746565b565b61478061476761476261475b60028590610e63565b8590610e79565b610b33565b61477a61477460016104d4565b916104d4565b14612ed8565b61479f5f61479a61479360028590610e63565b8590610e79565b6128e7565b6147a85f61282b565b5b806147cf6147c96147c46147bf60038790611089565b6110b3565b6102d6565b916102d6565b101561484757614815906147f86147f26147eb60038690611089565b83906110c0565b90611100565b61480a61480486610487565b91610487565b1461481a575b6128c9565b6147a9565b6148426148265f612d02565b61483c61483560038790611089565b84906110c0565b9061298e565b614810565b505050565b9061485691614709565b565b6149059061489561487d61487861487160028590610e63565b3390610e79565b610b33565b61488f6148895f6104d4565b916104d4565b14613fab565b6148cb6148ac6148a760038490611089565b6110b3565b6148c56148bf6148ba611007565b6102d6565b916102d6565b1061402d565b6148e96148e26148dd60038490611089565b612925565b33906129b0565b6149006148f96001926002610e63565b3390610e79565b6128e7565b565b61491890614913614977565b61491a565b565b8061493561492f61492a5f612d02565b610487565b91610487565b146149455761494390614a3c565b565b6149686149515f612d02565b5f918291631e4fbdf760e01b835260048301611143565b0390fd5b61497590614907565b565b61497f6142a4565b61499861499261498d614c74565b610487565b91610487565b0361499f57565b6149c16149aa614c74565b5f91829163118cdaa760e01b835260048301611143565b0390fd5b90565b6149d46149d9916102d6565b6149c5565b9052565b6020816149ef6149f7938396956149c8565b0180926149c8565b0190565b614a3090614a0761345a565b504290614a21614a156102c4565b928392602084016149dd565b6020820181038252039061065f565b614a395f61282b565b90565b614a44614c50565b614a5c614a525f8301610ac4565b915f849101613a47565b90614a90614a8a7f8be0079c531659141344cd1fd0a4f28419497f9722a3daafe3b4186f6b6457e093610879565b91610879565b91614a996102c4565b80614aa381610d6a565b0390a3565b614ab0614cd3565b90565b614ac490614abf614ce7565b614ac6565b565b614acf90614d7f565b565b614ada90614ab3565b565b9190601f8111614aec575b505050565b614af8614b1d936113a3565b906020614b04846135cd565b83019310614b25575b614b16906135cd565b019061356b565b5f8080614ae7565b9150614b1681929050614b0d565b90614b3d81611498565b9067ffffffffffffffff8211614bfd57614b6182614b5b85546109b7565b85614adc565b602090601f8311600114614b9557918091614b84935f92614b89575b505061359f565b90555b565b90915001515f80614b7d565b601f19831691614ba4856113a3565b925f5b818110614be557509160029391856001969410614bcb575b50505002019055614b87565b614bdb910151601f84169061358a565b90555f8080614bbf565b91936020600181928787015181550195019201614ba7565b61064b565b90614c0c91614b33565b565b614c4e90614c4981614c414291614c32614c266102c4565b938492602084016149dd565b6020820181038252038261065f565b916004611371565b614c02565b565b7f9016d09d72d40fdae2fd8ceac6b6234c7706214fd39c1cd1e609a0528c19930090565b614c7c6142a0565b503390565b5f90565b90565b90565b614c9f614c9a614ca492614c85565b612547565b614c88565b90565b614cd07ff0c57e16840df040f15088dc2f81fe391c3923bec73e23a9662efc9c229c6a00614c8b565b90565b614cdb614c81565b50614ce4614ca7565b90565b614cf8614cf2614d8a565b156104d4565b614cfe57565b5f631afcd79f60e31b815280614d1660048201610d6a565b0390fd5b614d2b90614d26614ce7565b614d2d565b565b80614d48614d42614d3d5f612d02565b610487565b91610487565b14614d5857614d5690614a3c565b565b614d7b614d645f612d02565b5f918291631e4fbdf760e01b835260048301611143565b0390fd5b614d8890614d1a565b565b614d92612824565b50614da55f614d9f614aa8565b0161319d565b9056fea26469706673582212201452c47f58c01b964ad3815ead468cd74d0e2733885bfcb2542853215bb29da464736f6c634300081c0033",
    "linkReferences": {}
  },
  "methodIdentifiers": {
    "GAME_DESCRIPTION()": "f082f17a",
    "GAME_ID()": "fdcdb06b",
    "GAME_IMAGE()": "0793aa53",
    "GAME_LINK()": "d113f6f6",
    "GAME_NAME()": "5aed7802",
    "GAME_TYPE()": "dbbf2c47",
    "GAME_UPDATE_APPROVAL_DURATION()": "aee32391",
    "MAX_PLAYERS()": "4411b3eb",
    "MIN_PLAYERS()": "85f07bbe",
    "acceptInvitation(uint256)": "464c5b6c",
    "activateBet(uint256)": "7638301e",
    "addUserToGroup(uint256,address,uint8)": "85383ad5",
    "betId()": "27bce91b",
    "bets(uint256)": "22af00fa",
    "calculateReward(uint256,address)": "a18f07a0",
    "cancelBet(uint256)": "357401f5",
    "claimReward(uint256)": "ae169a50",
    "createBet(((string,uint256)[],uint8,string,string,string,string,address,uint256,uint8,uint256,uint256,uint256,bool))": "840413a6",
    "gameIpfs()": "a769c0fe",
    "getBet(uint256)": "061e494f",
    "getGroups(uint256)": "42c3196e",
    "getResult(uint256)": "995e4339",
    "getStaked(uint256,address,uint256)": "9ebb0388",
    "groups(uint256,uint256)": "4ae855cf",
    "initialize()": "8129fc1c",
    "invitedUsers(uint256,uint256)": "c0eb83c5",
    "isModerator(uint256,address)": "c6ff3306",
    "isUserInGroup(uint256,address)": "a1845dcf",
    "joinGroup(uint256)": "eed02e4b",
    "moderator(uint256,address)": "63d62ae4",
    "owner()": "8da5cb5b",
    "removeUserFromGroup(uint256,address)": "e43e2166",
    "renounceOwnership()": "715018a6",
    "requestId(uint256)": "815ff1ac",
    "resolveBet(uint256)": "4c36c36e",
    "setResult(uint256,uint256)": "310efb48",
    "stake(uint256,uint256)": "7b0472f0",
    "staked(uint256,address,uint256)": "21b40b03",
    "totalBalance(uint256)": "b7201c83",
    "transferOwnership(address)": "f2fde38b",
    "userInGroups(uint256,address)": "3f290096",
    "withdraw(uint256)": "2e1a7d4d"
  },
  "id": 21
}