{
  "abi": [
    {
      "type": "function",
      "name": "GAME_DESCRIPTION",
      "inputs": [],
      "outputs": [
        {
          "name": "",
          "type": "string",
          "internalType": "string"
        }
      ],
      "stateMutability": "view"
    },
    {
      "type": "function",
      "name": "GAME_ID",
      "inputs": [],
      "outputs": [
        {
          "name": "",
          "type": "uint256",
          "internalType": "uint256"
        }
      ],
      "stateMutability": "view"
    },
    {
      "type": "function",
      "name": "GAME_IMAGE",
      "inputs": [],
      "outputs": [
        {
          "name": "",
          "type": "string",
          "internalType": "string"
        }
      ],
      "stateMutability": "view"
    },
    {
      "type": "function",
      "name": "GAME_LINK",
      "inputs": [],
      "outputs": [
        {
          "name": "",
          "type": "string",
          "internalType": "string"
        }
      ],
      "stateMutability": "view"
    },
    {
      "type": "function",
      "name": "GAME_NAME",
      "inputs": [],
      "outputs": [
        {
          "name": "",
          "type": "string",
          "internalType": "string"
        }
      ],
      "stateMutability": "view"
    },
    {
      "type": "function",
      "name": "GAME_TYPE",
      "inputs": [],
      "outputs": [
        {
          "name": "",
          "type": "string",
          "internalType": "string"
        }
      ],
      "stateMutability": "view"
    },
    {
      "type": "function",
      "name": "GAME_UPDATE_APPROVAL_DURATION",
      "inputs": [],
      "outputs": [
        {
          "name": "",
          "type": "uint256",
          "internalType": "uint256"
        }
      ],
      "stateMutability": "view"
    },
    {
      "type": "function",
      "name": "MAX_PLAYERS",
      "inputs": [],
      "outputs": [
        {
          "name": "",
          "type": "uint256",
          "internalType": "uint256"
        }
      ],
      "stateMutability": "view"
    },
    {
      "type": "function",
      "name": "MIN_PLAYERS",
      "inputs": [],
      "outputs": [
        {
          "name": "",
          "type": "uint256",
          "internalType": "uint256"
        }
      ],
      "stateMutability": "view"
    },
    {
      "type": "function",
      "name": "acceptInvitation",
      "inputs": [
        {
          "name": "_betId",
          "type": "uint256",
          "internalType": "uint256"
        }
      ],
      "outputs": [
        {
          "name": "",
          "type": "bool",
          "internalType": "bool"
        }
      ],
      "stateMutability": "nonpayable"
    },
    {
      "type": "function",
      "name": "addUserToGroup",
      "inputs": [
        {
          "name": "gameId",
          "type": "uint256",
          "internalType": "uint256"
        },
        {
          "name": "user",
          "type": "address",
          "internalType": "address"
        }
      ],
      "outputs": [],
      "stateMutability": "nonpayable"
    },
    {
      "type": "function",
      "name": "betId",
      "inputs": [],
      "outputs": [
        {
          "name": "",
          "type": "uint256",
          "internalType": "uint256"
        }
      ],
      "stateMutability": "view"
    },
    {
      "type": "function",
      "name": "bets",
      "inputs": [
        {
          "name": "",
          "type": "uint256",
          "internalType": "uint256"
        }
      ],
      "outputs": [
        {
          "name": "betType",
          "type": "uint8",
          "internalType": "enum HubStruct.BetType"
        },
        {
          "name": "name",
          "type": "string",
          "internalType": "string"
        },
        {
          "name": "description",
          "type": "string",
          "internalType": "string"
        },
        {
          "name": "image",
          "type": "string",
          "internalType": "string"
        },
        {
          "name": "link",
          "type": "string",
          "internalType": "string"
        },
        {
          "name": "owner",
          "type": "address",
          "internalType": "address"
        },
        {
          "name": "result",
          "type": "string",
          "internalType": "string"
        },
        {
          "name": "status",
          "type": "uint8",
          "internalType": "enum HubStruct.BetStatus"
        },
        {
          "name": "createdAt",
          "type": "uint256",
          "internalType": "uint256"
        },
        {
          "name": "updatedAt",
          "type": "uint256",
          "internalType": "uint256"
        },
        {
          "name": "betDuration",
          "type": "uint256",
          "internalType": "uint256"
        },
        {
          "name": "privateBet",
          "type": "bool",
          "internalType": "bool"
        }
      ],
      "stateMutability": "view"
    },
    {
      "type": "function",
      "name": "cancelBet",
      "inputs": [
        {
          "name": "id",
          "type": "uint256",
          "internalType": "uint256"
        }
      ],
      "outputs": [],
      "stateMutability": "nonpayable"
    },
    {
      "type": "function",
      "name": "createBet",
      "inputs": [
        {
          "name": "bet",
          "type": "tuple",
          "internalType": "struct HubStruct.Bet",
          "components": [
            {
              "name": "options",
              "type": "tuple[]",
              "internalType": "struct HubStruct.Options[]",
              "components": [
                {
                  "name": "option",
                  "type": "string",
                  "internalType": "string"
                },
                {
                  "name": "odds",
                  "type": "uint256",
                  "internalType": "uint256"
                }
              ]
            },
            {
              "name": "betType",
              "type": "uint8",
              "internalType": "enum HubStruct.BetType"
            },
            {
              "name": "name",
              "type": "string",
              "internalType": "string"
            },
            {
              "name": "description",
              "type": "string",
              "internalType": "string"
            },
            {
              "name": "image",
              "type": "string",
              "internalType": "string"
            },
            {
              "name": "link",
              "type": "string",
              "internalType": "string"
            },
            {
              "name": "owner",
              "type": "address",
              "internalType": "address"
            },
            {
              "name": "result",
              "type": "string",
              "internalType": "string"
            },
            {
              "name": "status",
              "type": "uint8",
              "internalType": "enum HubStruct.BetStatus"
            },
            {
              "name": "createdAt",
              "type": "uint256",
              "internalType": "uint256"
            },
            {
              "name": "updatedAt",
              "type": "uint256",
              "internalType": "uint256"
            },
            {
              "name": "betDuration",
              "type": "uint256",
              "internalType": "uint256"
            },
            {
              "name": "privateBet",
              "type": "bool",
              "internalType": "bool"
            }
          ]
        }
      ],
      "outputs": [
        {
          "name": "",
          "type": "uint256",
          "internalType": "uint256"
        }
      ],
      "stateMutability": "nonpayable"
    },
    {
      "type": "function",
      "name": "gameIpfs",
      "inputs": [],
      "outputs": [
        {
          "name": "",
          "type": "string",
          "internalType": "string"
        }
      ],
      "stateMutability": "view"
    },
    {
      "type": "function",
      "name": "getBet",
      "inputs": [
        {
          "name": "id",
          "type": "uint256",
          "internalType": "uint256"
        }
      ],
      "outputs": [
        {
          "name": "",
          "type": "tuple",
          "internalType": "struct HubStruct.Bet",
          "components": [
            {
              "name": "options",
              "type": "tuple[]",
              "internalType": "struct HubStruct.Options[]",
              "components": [
                {
                  "name": "option",
                  "type": "string",
                  "internalType": "string"
                },
                {
                  "name": "odds",
                  "type": "uint256",
                  "internalType": "uint256"
                }
              ]
            },
            {
              "name": "betType",
              "type": "uint8",
              "internalType": "enum HubStruct.BetType"
            },
            {
              "name": "name",
              "type": "string",
              "internalType": "string"
            },
            {
              "name": "description",
              "type": "string",
              "internalType": "string"
            },
            {
              "name": "image",
              "type": "string",
              "internalType": "string"
            },
            {
              "name": "link",
              "type": "string",
              "internalType": "string"
            },
            {
              "name": "owner",
              "type": "address",
              "internalType": "address"
            },
            {
              "name": "result",
              "type": "string",
              "internalType": "string"
            },
            {
              "name": "status",
              "type": "uint8",
              "internalType": "enum HubStruct.BetStatus"
            },
            {
              "name": "createdAt",
              "type": "uint256",
              "internalType": "uint256"
            },
            {
              "name": "updatedAt",
              "type": "uint256",
              "internalType": "uint256"
            },
            {
              "name": "betDuration",
              "type": "uint256",
              "internalType": "uint256"
            },
            {
              "name": "privateBet",
              "type": "bool",
              "internalType": "bool"
            }
          ]
        }
      ],
      "stateMutability": "view"
    },
    {
      "type": "function",
      "name": "getGroups",
      "inputs": [
        {
          "name": "_betId",
          "type": "uint256",
          "internalType": "uint256"
        }
      ],
      "outputs": [
        {
          "name": "",
          "type": "address[]",
          "internalType": "address[]"
        }
      ],
      "stateMutability": "view"
    },
    {
      "type": "function",
      "name": "getResult",
      "inputs": [
        {
          "name": "id",
          "type": "uint256",
          "internalType": "uint256"
        }
      ],
      "outputs": [
        {
          "name": "",
          "type": "string",
          "internalType": "string"
        }
      ],
      "stateMutability": "view"
    },
    {
      "type": "function",
      "name": "groups",
      "inputs": [
        {
          "name": "",
          "type": "uint256",
          "internalType": "uint256"
        },
        {
          "name": "",
          "type": "uint256",
          "internalType": "uint256"
        }
      ],
      "outputs": [
        {
          "name": "",
          "type": "address",
          "internalType": "address"
        }
      ],
      "stateMutability": "view"
    },
    {
      "type": "function",
      "name": "initialize",
      "inputs": [],
      "outputs": [],
      "stateMutability": "nonpayable"
    },
    {
      "type": "function",
      "name": "invitedUsers",
      "inputs": [
        {
          "name": "",
          "type": "uint256",
          "internalType": "uint256"
        },
        {
          "name": "",
          "type": "uint256",
          "internalType": "uint256"
        }
      ],
      "outputs": [
        {
          "name": "",
          "type": "address",
          "internalType": "address"
        }
      ],
      "stateMutability": "view"
    },
    {
      "type": "function",
      "name": "isUserInGroup",
      "inputs": [
        {
          "name": "_betId",
          "type": "uint256",
          "internalType": "uint256"
        },
        {
          "name": "user",
          "type": "address",
          "internalType": "address"
        }
      ],
      "outputs": [
        {
          "name": "",
          "type": "bool",
          "internalType": "bool"
        }
      ],
      "stateMutability": "view"
    },
    {
      "type": "function",
      "name": "removeUserFromGroup",
      "inputs": [
        {
          "name": "_betId",
          "type": "uint256",
          "internalType": "uint256"
        },
        {
          "name": "user",
          "type": "address",
          "internalType": "address"
        }
      ],
      "outputs": [],
      "stateMutability": "nonpayable"
    },
    {
      "type": "function",
      "name": "requestId",
      "inputs": [
        {
          "name": "",
          "type": "uint256",
          "internalType": "uint256"
        }
      ],
      "outputs": [
        {
          "name": "",
          "type": "bytes",
          "internalType": "bytes"
        }
      ],
      "stateMutability": "view"
    },
    {
      "type": "function",
      "name": "resolveBet",
      "inputs": [
        {
          "name": "id",
          "type": "uint256",
          "internalType": "uint256"
        }
      ],
      "outputs": [],
      "stateMutability": "nonpayable"
    },
    {
      "type": "function",
      "name": "userInGroups",
      "inputs": [
        {
          "name": "",
          "type": "uint256",
          "internalType": "uint256"
        },
        {
          "name": "",
          "type": "address",
          "internalType": "address"
        }
      ],
      "outputs": [
        {
          "name": "",
          "type": "bool",
          "internalType": "bool"
        }
      ],
      "stateMutability": "view"
    },
    {
      "type": "event",
      "name": "BetCancelled",
      "inputs": [
        {
          "name": "id",
          "type": "uint256",
          "indexed": false,
          "internalType": "uint256"
        }
      ],
      "anonymous": false
    },
    {
      "type": "event",
      "name": "BetCreated",
      "inputs": [
        {
          "name": "id",
          "type": "uint256",
          "indexed": false,
          "internalType": "uint256"
        },
        {
          "name": "bet",
          "type": "tuple",
          "indexed": false,
          "internalType": "struct HubStruct.Bet",
          "components": [
            {
              "name": "options",
              "type": "tuple[]",
              "internalType": "struct HubStruct.Options[]",
              "components": [
                {
                  "name": "option",
                  "type": "string",
                  "internalType": "string"
                },
                {
                  "name": "odds",
                  "type": "uint256",
                  "internalType": "uint256"
                }
              ]
            },
            {
              "name": "betType",
              "type": "uint8",
              "internalType": "enum HubStruct.BetType"
            },
            {
              "name": "name",
              "type": "string",
              "internalType": "string"
            },
            {
              "name": "description",
              "type": "string",
              "internalType": "string"
            },
            {
              "name": "image",
              "type": "string",
              "internalType": "string"
            },
            {
              "name": "link",
              "type": "string",
              "internalType": "string"
            },
            {
              "name": "owner",
              "type": "address",
              "internalType": "address"
            },
            {
              "name": "result",
              "type": "string",
              "internalType": "string"
            },
            {
              "name": "status",
              "type": "uint8",
              "internalType": "enum HubStruct.BetStatus"
            },
            {
              "name": "createdAt",
              "type": "uint256",
              "internalType": "uint256"
            },
            {
              "name": "updatedAt",
              "type": "uint256",
              "internalType": "uint256"
            },
            {
              "name": "betDuration",
              "type": "uint256",
              "internalType": "uint256"
            },
            {
              "name": "privateBet",
              "type": "bool",
              "internalType": "bool"
            }
          ]
        },
        {
          "name": "user",
          "type": "address",
          "indexed": false,
          "internalType": "address"
        },
        {
          "name": "requestId",
          "type": "bytes",
          "indexed": false,
          "internalType": "bytes"
        }
      ],
      "anonymous": false
    },
    {
      "type": "event",
      "name": "BetRequest",
      "inputs": [
        {
          "name": "id",
          "type": "uint256",
          "indexed": false,
          "internalType": "uint256"
        },
        {
          "name": "requestId",
          "type": "bytes",
          "indexed": false,
          "internalType": "bytes"
        }
      ],
      "anonymous": false
    },
    {
      "type": "event",
      "name": "BetResolved",
      "inputs": [
        {
          "name": "id",
          "type": "uint256",
          "indexed": false,
          "internalType": "uint256"
        },
        {
          "name": "result",
          "type": "string",
          "indexed": false,
          "internalType": "string"
        }
      ],
      "anonymous": false
    },
    {
      "type": "event",
      "name": "Initialized",
      "inputs": [
        {
          "name": "version",
          "type": "uint64",
          "indexed": false,
          "internalType": "uint64"
        }
      ],
      "anonymous": false
    },
    {
      "type": "error",
      "name": "InvalidInitialization",
      "inputs": []
    },
    {
      "type": "error",
      "name": "NotInitializing",
      "inputs": []
    }
  ],
  "bytecode": {
    "object": "0x608060405234610027576100116101cd565b61001961002c565b6139926101d9823961399290f35b610032565b60405190565b5f80fd5b634e487b7160e01b5f52602260045260245ffd5b906001600283049216801561006a575b602083101461006557565b610036565b91607f169161005a565b5f5260205f2090565b601f602091010490565b1b90565b919060086100a69102916100a05f1984610087565b92610087565b9181191691161790565b90565b90565b6100ca6100c56100cf926100b0565b6100b3565b6100b0565b90565b90565b91906100eb6100e66100f3936100b6565b6100d2565b90835461008b565b9055565b5f90565b61010d916101076100f7565b916100d5565b565b5b81811061011b575050565b806101285f6001936100fb565b01610110565b9190601f811161013e575b505050565b61014a61016f93610074565b9060206101568461007d565b83019310610177575b6101689061007d565b019061010f565b5f8080610139565b91506101688192905061015f565b61019a6016610194835461004a565b8361012e565b602c7f68747470733a2f2f7777772e676f6f676c652e636f6d00000000000000000000019055565b6101cb90610185565b565b6101d65f6101c2565b56fe60806040526004361015610013575b611a47565b61001d5f356101cc565b8063061e494f146101c75780630793aa53146101c257806322af00fa146101bd57806327bce91b146101b8578063357401f5146101b35780633f290096146101ae57806342c3196e146101a95780634411b3eb146101a4578063464c5b6c1461019f5780634ae855cf1461019a5780634c36c36e146101955780635aed7802146101905780638129fc1c1461018b578063815ff1ac1461018657806385f07bbe14610181578063995e43391461017c578063a1845dcf14610177578063a769c0fe14610172578063aee323911461016d578063c0eb83c514610168578063cfa8c6f014610163578063d113f6f61461015e578063dbbf2c4714610159578063e43e216614610154578063f082f17a1461014f578063f3e7f6861461014a5763fdcdb06b0361000e57611a12565b6119a6565b6115bd565b611528565b6114f3565b61145d565b61141b565b6113e5565b61137b565b61130d565b6112b0565b61127b565b611246565b6111da565b61102a565b610ff5565b610f61565b610f2b565b610dfa565b610dc5565b610d59565b610c91565b610b52565b610b18565b610a85565b61069b565b610518565b60e01c90565b60405190565b5f80fd5b5f80fd5b5f80fd5b90565b6101f0816101e4565b036101f757565b5f80fd5b90503590610208826101e7565b565b9060208282031261022357610220915f016101fb565b90565b6101dc565b5190565b60209181520190565b60200190565b5190565b60209181520190565b90825f9392825e0152565b601f801991011690565b61027c61028560209361028a936102738161023b565b9384809361023f565b95869101610248565b610253565b0190565b610297906101e4565b9052565b906102c5906020806102ba604084015f8701518582035f87015261025d565b94015191019061028e565b90565b906102d29161029b565b90565b60200190565b906102ef6102e883610228565b809261022c565b908161030060208302840194610235565b925f915b83831061031357505050505090565b9091929394602061033561032f838560019503875289516102c8565b976102d5565b9301930191939290610304565b634e487b7160e01b5f52602160045260245ffd5b6003111561036057565b610342565b9061036f82610356565b565b61037a90610365565b90565b61038690610371565b9052565b60018060a01b031690565b61039e9061038a565b90565b6103aa90610395565b9052565b600411156103b857565b610342565b906103c7826103ae565b565b6103d2906103bd565b90565b6103de906103c9565b9052565b151590565b6103f0906103e2565b9052565b906104fd90610180806104a261047e61046c61045a6104486104246101a089015f8c01518a82035f8c01526102db565b61043660208c015160208b019061037d565b60408b015189820360408b015261025d565b60608a015188820360608a015261025d565b6080890151878203608089015261025d565b60a088015186820360a088015261025d565b61049060c088015160c08701906103a1565b60e087015185820360e087015261025d565b946104b76101008201516101008601906103d5565b6104cb61012082015161012086019061028e565b6104df61014082015161014086019061028e565b6104f361016082015161016086019061028e565b01519101906103e7565b90565b6105159160208201915f8184039101526103f4565b90565b346105485761054461053361052e36600461020a565b611d90565b61053b6101d2565b91829182610500565b0390f35b6101d8565b5f91031261055757565b6101dc565b634e487b7160e01b5f52604160045260245ffd5b9061057a90610253565b810190811067ffffffffffffffff82111761059457604052565b61055c565b906105ac6105a56101d2565b9283610570565b565b67ffffffffffffffff81116105cc576105c8602091610253565b0190565b61055c565b906105e36105de836105ae565b610599565b918252565b5f7f68747470733a2f2f7669612e706c616365686f6c6465722e636f6d2f31353000910152565b610619601f6105d1565b90610626602083016105e8565b565b61063061060f565b90565b61063b610628565b90565b610646610633565b90565b60209181520190565b61067161067a60209361067f936106688161023b565b93848093610649565b95869101610248565b610253565b0190565b6106989160208201915f818403910152610652565b90565b346106cb576106ab36600461054d565b6106c76106b661063e565b6106be6101d2565b91829182610683565b0390f35b6101d8565b90565b6106e76106e26106ec926101e4565b6106d0565b6101e4565b90565b906106f9906106d3565b5f5260205260405f2090565b5f1c90565b60ff1690565b61071c61072191610705565b61070a565b90565b61072e9054610710565b90565b634e487b7160e01b5f52602260045260245ffd5b9060016002830492168015610765575b602083101461076057565b610731565b91607f1691610755565b5f5260205f2090565b905f929180549061079261078b83610745565b809461023f565b916001811690815f146107e957506001146107ad575b505050565b6107ba919293945061076f565b915f925b8184106107d157505001905f80806107a8565b600181602092959395548486015201910192906107be565b92949550505060ff19168252151560200201905f80806107a8565b9061080e91610778565b90565b9061083161082a926108216101d2565b93848092610804565b0383610570565b565b60018060a01b031690565b61084a61084f91610705565b610833565b90565b61085c905461083e565b90565b60ff1690565b61087161087691610705565b61085f565b90565b6108839054610865565b90565b90565b61089561089a91610705565b610886565b90565b6108a79054610889565b90565b60ff1690565b6108bc6108c191610705565b6108aa565b90565b6108ce90546108b0565b90565b6108dc9060016106ef565b906108e960018301610724565b916108f660028201610811565b9161090360038301610811565b9161091060048201610811565b9161091d60058301610811565b9161092a60068201610852565b9161093760078301610811565b9161094460088201610879565b916109516009830161089d565b9161095e600a820161089d565b91610977600c610970600b850161089d565b93016108c4565b90565b61098390610371565b9052565b61099090610395565b9052565b61099d906103c9565b9052565b6109aa906101e4565b9052565b6109b7906103e2565b9052565b979c9b9993610a839b96610a7c98610a43610a388c610a719a6101609f98610a5097610a1c610a669c610a0e610a5b9c610a2a95610a016101808a01925f8b019061097a565b88820360208a0152610652565b908682036040880152610652565b908482036060860152610652565b916080818403910152610652565b9260a08d0190610987565b8a820360c08c0152610652565b9c60e0890190610994565b6101008701906109a1565b6101208501906109a1565b6101408301906109a1565b01906109ae565b565b34610ac557610ac1610aa0610a9b36600461020a565b6108d1565b98610ab89c9a9c9891989792979693969594956101d2565b9c8d9c8d6109bb565b0390f35b6101d8565b1c90565b610ade906008610ae39302610aca565b610886565b90565b90610af19154610ace565b90565b610b0060065f90610ae6565b90565b9190610b16905f602085019401906109a1565b565b34610b4857610b2836600461054d565b610b44610b33610af4565b610b3b6101d2565b91829182610b03565b0390f35b6101d8565b5f0190565b34610b8057610b6a610b6536600461020a565b611e7b565b610b726101d2565b80610b7c81610b4d565b0390f35b6101d8565b610b8e81610395565b03610b9557565b5f80fd5b90503590610ba682610b85565b565b9190604083820312610bd05780610bc4610bcd925f86016101fb565b93602001610b99565b90565b6101dc565b90610bdf906106d3565b5f5260205260405f2090565b610bff610bfa610c049261038a565b6106d0565b61038a565b90565b610c1090610beb565b90565b610c1c90610c07565b90565b90610c2990610c13565b5f5260205260405f2090565b610c45906008610c4a9302610aca565b6108aa565b90565b90610c589154610c35565b90565b610c74610c7992610c6f6002935f94610bd5565b610c1f565b610c4d565b90565b9190610c8f905f602085019401906109ae565b565b34610cc257610cbe610cad610ca7366004610ba8565b90610c5b565b610cb56101d2565b91829182610c7c565b0390f35b6101d8565b5190565b60209181520190565b60200190565b90610ce7816020936103a1565b0190565b60200190565b90610d0e610d08610d0184610cc7565b8093610ccb565b92610cd4565b905f5b818110610d1e5750505090565b909192610d37610d316001928651610cda565b94610ceb565b9101919091610d11565b610d569160208201915f818403910152610cf1565b90565b34610d8957610d85610d74610d6f36600461020a565b611fb5565b610d7c6101d2565b91829182610d41565b0390f35b6101d8565b90565b610da5610da0610daa92610d8e565b6106d0565b6101e4565b90565b610db7600a610d91565b90565b610dc2610dad565b90565b34610df557610dd536600461054d565b610df1610de0610dba565b610de86101d2565b91829182610b03565b0390f35b6101d8565b34610e2a57610e26610e15610e1036600461020a565b61219f565b610e1d6101d2565b91829182610c7c565b0390f35b6101d8565b9190604083820312610e575780610e4b610e54925f86016101fb565b936020016101fb565b90565b6101dc565b90610e66906106d3565b5f5260205260405f2090565b634e487b7160e01b5f52603260045260245ffd5b5490565b5f5260205f2090565b610e9c81610e86565b821015610eb657610eae600191610e8a565b910201905f90565b610e72565b610ecb906008610ed09302610aca565b610833565b90565b90610ede9154610ebb565b90565b610eec906003610e5c565b610ef581610e86565b821015610f1257610f0f91610f0991610e93565b90610ed3565b90565b5f80fd5b9190610f29905f60208501940190610987565b565b34610f5c57610f58610f47610f41366004610e2f565b90610ee1565b610f4f6101d2565b91829182610f16565b0390f35b6101d8565b34610f8f57610f79610f7436600461020a565b612558565b610f816101d2565b80610f8b81610b4d565b0390f35b6101d8565b5f7f47616d6531000000000000000000000000000000000000000000000000000000910152565b610fc560056105d1565b90610fd260208301610f94565b565b610fdc610fbb565b90565b610fe7610fd4565b90565b610ff2610fdf565b90565b346110255761100536600461054d565b611021611010610fea565b6110186101d2565b91829182610683565b0390f35b6101d8565b346110585761103a36600461054d565b6110426128c7565b61104a6101d2565b8061105481610b4d565b0390f35b6101d8565b90611067906106d3565b5f5260205260405f2090565b634e487b7160e01b5f525f60045260245ffd5b60209181520190565b5f5260205f2090565b905f92918054906110b26110ab83610745565b8094611086565b916001811690815f1461110957506001146110cd575b505050565b6110da919293945061108f565b915f925b8184106110f157505001905f80806110c8565b600181602092959395548486015201910192906110de565b92949550505060ff19168252151560200201905f80806110c8565b9061112e91611098565b90565b9061115161114a926111416101d2565b93848092611124565b0383610570565b565b905f106111665761116390611131565b90565b611073565b6111819061117c6004915f9261105d565b611153565b90565b5190565b60209181520190565b6111b06111b96020936111be936111a781611184565b93848093611188565b95869101610248565b610253565b0190565b6111d79160208201915f818403910152611191565b90565b3461120a576112066111f56111f036600461020a565b61116b565b6111fd6101d2565b918291826111c2565b0390f35b6101d8565b90565b61122661122161122b9261120f565b6106d0565b6101e4565b90565b6112386002611212565b90565b61124361122e565b90565b346112765761125636600461054d565b61127261126161123b565b6112696101d2565b91829182610b03565b0390f35b6101d8565b346112ab576112a761129661129136600461020a565b6128e2565b61129e6101d2565b91829182610683565b0390f35b6101d8565b346112e1576112dd6112cc6112c6366004610ba8565b90612904565b6112d46101d2565b91829182610c7c565b0390f35b6101d8565b905f106112f9576112f690610811565b90565b611073565b61130a60075f906112e6565b90565b3461133d5761131d36600461054d565b6113396113286112fe565b6113306101d2565b91829182610683565b0390f35b6101d8565b90565b61135961135461135e92611342565b6106d0565b6101e4565b90565b61136d6203f480611345565b90565b611378611361565b90565b346113ab5761138b36600461054d565b6113a7611396611370565b61139e6101d2565b91829182610b03565b0390f35b6101d8565b6113bb906005610e5c565b6113c481610e86565b8210156113e1576113de916113d891610e93565b90610ed3565b90565b5f80fd5b34611416576114126114016113fb366004610e2f565b906113b0565b6114096101d2565b91829182610f16565b0390f35b6101d8565b3461144a5761143461142e366004610ba8565b90612bc0565b61143c6101d2565b8061144681610b4d565b0390f35b6101d8565b61145a5f5f906112e6565b90565b3461148d5761146d36600461054d565b61148961147861144f565b6114806101d2565b91829182610683565b0390f35b6101d8565b5f7f53696e676c650000000000000000000000000000000000000000000000000000910152565b6114c360066105d1565b906114d060208301611492565b565b6114da6114b9565b90565b6114e56114d2565b90565b6114f06114dd565b90565b346115235761150336600461054d565b61151f61150e6114e8565b6115166101d2565b91829182610683565b0390f35b6101d8565b346115575761154161153b366004610ba8565b90612d91565b6115496101d2565b8061155381610b4d565b0390f35b6101d8565b5f7f48656c6c6f20576f726c64000000000000000000000000000000000000000000910152565b61158d600b6105d1565b9061159a6020830161155c565b565b6115a4611583565b90565b6115af61159c565b90565b6115ba6115a7565b90565b346115ed576115cd36600461054d565b6115e96115d86115b2565b6115e06101d2565b91829182610683565b0390f35b6101d8565b5f80fd5b5f80fd5b5f80fd5b67ffffffffffffffff81116116165760208091020190565b61055c565b5f80fd5b5f80fd5b90825f939282370152565b9092919261164361163e826105ae565b610599565b9381855260208501908284011161165f5761165d92611623565b565b61161f565b9080601f830112156116825781602061167f9335910161162e565b90565b6115fa565b9190916040818403126116da5761169e6040610599565b925f8201359167ffffffffffffffff83116116d5576116c2826116ce948301611664565b5f8601526020016101fb565b6020830152565b6115f6565b6115f2565b9291906116f36116ee826115fe565b610599565b938185526020808601920281019183831161174a5781905b838210611719575050505050565b813567ffffffffffffffff81116117455760209161173a8784938701611687565b81520191019061170b565b6115fa565b61161b565b9080601f8301121561176d5781602061176a933591016116df565b90565b6115fa565b6003111561177c57565b5f80fd5b9050359061178d82611772565b565b6004111561179957565b5f80fd5b905035906117aa8261178f565b565b6117b5816103e2565b036117bc57565b5f80fd5b905035906117cd826117ac565b565b9190916101a08184031261196c576117e86101a0610599565b925f82013567ffffffffffffffff8111611967578161180891840161174f565b5f8501526118198160208401611780565b6020850152604082013567ffffffffffffffff8111611962578161183e918401611664565b6040850152606082013567ffffffffffffffff811161195d5781611863918401611664565b6060850152608082013567ffffffffffffffff81116119585781611888918401611664565b608085015260a082013567ffffffffffffffff811161195357816118ad918401611664565b60a08501526118bf8160c08401610b99565b60c085015260e08201359167ffffffffffffffff831161194e576118e882611946948301611664565b60e08601526118fb82610100830161179d565b61010086015261190f8261012083016101fb565b6101208601526119238261014083016101fb565b6101408601526119378261016083016101fb565b610160860152610180016117c0565b610180830152565b6115f6565b6115f6565b6115f6565b6115f6565b6115f6565b6115f6565b6115f2565b906020828203126119a1575f82013567ffffffffffffffff811161199c5761199992016117cf565b90565b6101e0565b6101dc565b346119d6576119d26119c16119bc366004611971565b613449565b6119c96101d2565b91829182610b03565b0390f35b6101d8565b90565b6119f26119ed6119f7926119db565b6106d0565b6101e4565b90565b611a0460016119de565b90565b611a0f6119fa565b90565b34611a4257611a2236600461054d565b611a3e611a2d611a07565b611a356101d2565b91829182610b03565b0390f35b6101d8565b5f80fd5b611a566101a0610599565b90565b606090565b5f90565b606090565b5f90565b5f90565b5f90565b5f90565b602090818080808080808080808080611a8e611a4b565b9d8e611a98611a59565b815201611aa3611a5e565b815201611aae611a62565b815201611ab9611a62565b815201611ac4611a62565b815201611acf611a62565b815201611ada611a67565b815201611ae5611a62565b815201611af0611a6b565b815201611afb611a6f565b815201611b06611a6f565b815201611b11611a6f565b815201611b1c611a73565b81525050565b611b2a611a77565b90565b5490565b90611b43611b3e836115fe565b610599565b918252565b5f5260205f2090565b52565b90611b5e906101e4565b9052565b611b6c6040610599565b90565b90611ba6611b9d6001611b80611b62565b94611b97611b8f5f8301610811565b5f8801611b51565b0161089d565b60208401611b54565b565b611bb190611b6f565b90565b90611bbe82611b2d565b611bc781611b31565b92611bd56020850191611b48565b5f915b838310611be55750505050565b60026020600192611bf585611ba8565b815201920192019190611bd8565b52565b90611c1090610365565b9052565b90611c1e90610395565b9052565b90611c2c906103bd565b9052565b90611c3a906103e2565b9052565b90611d82611d78600c611c4f611a4b565b94611c66611c5e5f8301611bb4565b5f8801611c03565b611c7e611c7560018301610724565b60208801611c06565b611c96611c8d60028301610811565b60408801611b51565b611cae611ca560038301610811565b60608801611b51565b611cc6611cbd60048301610811565b60808801611b51565b611cde611cd560058301610811565b60a08801611b51565b611cf6611ced60068301610852565b60c08801611c14565b611d0e611d0560078301610811565b60e08801611b51565b611d27611d1d60088301610879565b6101008801611c22565b611d40611d366009830161089d565b6101208801611b54565b611d59611d4f600a830161089d565b6101408801611b54565b611d72611d68600b830161089d565b6101608801611b54565b016108c4565b6101808401611c30565b565b611d8d90611c3e565b90565b611da7611dac91611d9f611b22565b5060016106ef565b611d84565b90565b5f7f426574206e6f742070656e64696e670000000000000000000000000000000000910152565b611de3600f602092610649565b611dec81611daf565b0190565b611e059060208101905f818303910152611dd6565b90565b15611e0f57565b611e176101d2565b62461bcd60e51b815280611e2d60048201611df0565b0390fd5b5f1b90565b90611e4260ff91611e31565b9181191691161790565b611e55906103bd565b90565b90565b90611e70611e6b611e7792611e4c565b611e58565b8254611e36565b9055565b611eae611e956008611e8f600185906106ef565b01610879565b611ea8611ea260016103bd565b916103bd565b14611e08565b611ec760036008611ec1600185906106ef565b01611e5b565b611efd7fe3906e8d1e2167ef706b023e6e83af697db5cd38f233c71bf5021b26b316c3a291611ef46101d2565b91829182610b03565b0390a1565b606090565b60209181520190565b611f1a905461083e565b90565b60010190565b90611f40611f3a611f3384610e86565b8093611f07565b92610e8a565b905f5b818110611f505750505090565b909192611f70611f6a600192611f6587611f10565b610cda565b94611f1d565b9101919091611f43565b90611f8491611f23565b90565b90611fa7611fa092611f976101d2565b93848092611f7a565b0383610570565b565b611fb290611f87565b90565b611fcc611fd191611fc4611f02565b506003610e5c565b611fa9565b90565b5f90565b90565b611fef611fea611ff492611fd8565b6106d0565b6101e4565b90565b5f7f4e6f20696e7669746174696f6e20666f756e6400000000000000000000000000910152565b61202b6013602092610649565b61203481611ff7565b0190565b61204d9060208101905f81830391015261201e565b90565b1561205757565b61205f6101d2565b62461bcd60e51b81528061207560048201612038565b0390fd5b600161208591016101e4565b90565b612091906103e2565b90565b90565b906120ac6120a76120b392612088565b612094565b8254611e36565b9055565b6120cb6120c66120d092611fd8565b6106d0565b61038a565b90565b6120dc906120b7565b90565b1b90565b919060086121039102916120fd60018060a01b03846120df565b926120df565b9181191691161790565b90565b919061212661212161212e93610c13565b61210d565b9083546120e3565b9055565b90565b5f5260205f2090565b5490565b61214b8161213e565b8210156121655761215d600191612135565b910201905f90565b610e72565b908154916801000000000000000083101561219a578261219291600161219895018155612142565b90612110565b565b61055c565b6121a7611fd4565b506121d76121bf6121ba60058490610e5c565b610e86565b6121d16121cb5f611fdb565b916101e4565b11612050565b6121e05f611fdb565b5b806122076122016121fc6121f760058790610e5c565b610e86565b6101e4565b916101e4565b10156122bb5761222c61222661221f60058590610e5c565b8390610e93565b90610ed3565b61223e61223833610395565b91610395565b146122515761224c90612079565b6121e1565b6122aa6122b6926122a36122af9361227f600161227a61227360028790610bd5565b3390610c1f565b612097565b61229d61228b5f6120d3565b9161229860058690610e5c565b610e93565b90612110565b6003610e5c565b612132565b339061216a565b600190565b5050600190565b601f602091010490565b919060086122e79102916122e15f19846120df565b926120df565b9181191691161790565b90565b919061230a612305612312936106d3565b6122f1565b9083546122cc565b9055565b5f90565b61232c91612326612316565b916122f4565b565b5b81811061233a575050565b806123475f60019361231a565b0161232f565b9190601f811161235d575b505050565b61236961238e9361076f565b906020612375846122c2565b83019310612396575b612387906122c2565b019061232e565b5f8080612358565b91506123878192905061237e565b906123b4905f1990600802610aca565b191690565b816123c3916123a4565b906002021790565b906123d58161023b565b9067ffffffffffffffff8211612495576123f9826123f38554610745565b8561234d565b602090601f831160011461242d5791809161241c935f92612421575b50506123b9565b90555b565b90915001515f80612415565b601f1983169161243c8561076f565b925f5b81811061247d57509160029391856001969410612463575b5050500201905561241f565b612473910151601f8416906123a4565b90555f8080612457565b9193602060018192878701518155019501920161243f565b61055c565b906124a4916123cb565b565b905f92918054906124c06124b983610745565b8094610649565b916001811690815f1461251757506001146124db575b505050565b6124e8919293945061076f565b915f925b8184106124ff57505001905f80806124d6565b600181602092959395548486015201910192906124ec565b92949550505060ff19168252151560200201905f80806124d6565b916125559261254860408201935f8301906109a1565b60208184039101526124a6565b90565b61258b612572600861256c600185906106ef565b01610879565b61258561257f60016103bd565b916103bd565b14611e08565b6125a46002600861259e600185906106ef565b01611e5b565b6125c46125b082613737565b60076125be600185906106ef565b0161249a565b60076125d18260016106ef565b017fc2e1982e2e7e5f430d49f79ef7583b4996724b83c9e7429c42b12eb9f706de94916126086125ff6101d2565b92839283612532565b0390a1565b60401c90565b61261f6126249161260d565b6108aa565b90565b6126319054612613565b90565b67ffffffffffffffff1690565b61264d61265291610705565b612634565b90565b61265f9054612641565b90565b67ffffffffffffffff1690565b61268361267e61268892611fd8565b6106d0565b612662565b90565b61269f61269a6126a4926119db565b6106d0565b612662565b90565b6126b090610c07565b90565b906126c667ffffffffffffffff91611e31565b9181191691161790565b6126e46126df6126e992612662565b6106d0565b612662565b90565b90565b906127046126ff61270b926126d0565b6126ec565b82546126b3565b9055565b60401b90565b9061272968ff00000000000000009161270f565b9181191691161790565b9061274861274361274f92612088565b612094565b8254612715565b9055565b61275c9061268b565b9052565b9190612773905f60208501940190612753565b565b61277d613777565b61279161278b5f8301612627565b156103e2565b61279c5f8301612655565b806127af6127a95f61266f565b91612662565b14806128c0575b906127ca6127c4600161268b565b91612662565b1480612898575b6127dc9091156103e2565b9081612887575b5061286b576127fd6127f5600161268b565b5f84016126ef565b80612859575b61280b575b50565b612818905f809101612733565b60016128507fc7f505b2f371ae2175ee4913f4499e1f2633a7b5936321eed1cdaeb6115181d2916128476101d2565b91829182612760565b0390a15f612808565b61286660015f8401612733565b612803565b5f63f92ee8a960e01b81528061288360048201610b4d565b0390fd5b6128929150156103e2565b5f6127e3565b506127dc6128a5306126a7565b3b6128b86128b25f611fdb565b916101e4565b1490506127d1565b50816127b6565b6128cf612775565b565b606090565b6128df90610811565b90565b60076128fb612901926128f36128d1565b5060016106ef565b016128d6565b90565b6129299161291f61292492612917611fd4565b506002610bd5565b610c1f565b6108c4565b90565b60207f756e6374696f6e00000000000000000000000000000000000000000000000000917f4f6e6c79206265742063726561746f722063616e2063616c6c207468697320665f8201520152565b6129866027604092610649565b61298f8161292c565b0190565b6129a89060208101905f818303910152612979565b90565b156129b257565b6129ba6101d2565b62461bcd60e51b8152806129d060048201612993565b0390fd5b90612a0f91612a0a6129f260066129ec8460016106ef565b01610852565b612a046129fe33610395565b91610395565b146129ab565b612b15565b565b5f7f5573657220616c726561647920696e2067726f75700000000000000000000000910152565b612a456015602092610649565b612a4e81612a11565b0190565b612a679060208101905f818303910152612a38565b90565b15612a7157565b612a796101d2565b62461bcd60e51b815280612a8f60048201612a52565b0390fd5b5f7f47616d652069732066756c6c0000000000000000000000000000000000000000910152565b612ac7600c602092610649565b612ad081612a93565b0190565b612ae99060208101905f818303910152612aba565b90565b15612af357565b612afb6101d2565b62461bcd60e51b815280612b1160048201612ad4565b0390fd5b90612bb9612bb4612bbe93612b59612b41612b3c612b3560028590610bd5565b8790610c1f565b6108c4565b612b53612b4d5f6103e2565b916103e2565b14612a6a565b612b8f612b70612b6b60038490610e5c565b610e86565b612b89612b83612b7e610dad565b6101e4565b916101e4565b10612aec565b612bad612ba6612ba160058490610e5c565b612132565b859061216a565b6003610e5c565b612132565b61216a565b565b90612bca916129d4565b565b90612c0791612c02612bea6006612be48460016106ef565b01610852565b612bfc612bf633610395565b91610395565b146129ab565b612c8b565b565b5f7f55736572206e6f7420696e2067726f7570000000000000000000000000000000910152565b612c3d6011602092610649565b612c4681612c09565b0190565b612c5f9060208101905f818303910152612c30565b90565b15612c6957565b612c716101d2565b62461bcd60e51b815280612c8760048201612c4a565b0390fd5b612cc5612cac612ca7612ca060028590610bd5565b8590610c1f565b6108c4565b612cbf612cb960016103e2565b916103e2565b14612c62565b612ce45f612cdf612cd860028590610bd5565b8590610c1f565b612097565b612ced5f611fdb565b5b80612d14612d0e612d09612d0460038790610e5c565b610e86565b6101e4565b916101e4565b1015612d8c57612d5a90612d3d612d37612d3060038690610e5c565b8390610e93565b90610ed3565b612d4f612d4986610395565b91610395565b14612d5f575b612079565b612cee565b612d87612d6b5f6120d3565b612d81612d7a60038790610e5c565b8490610e93565b90612110565b612d55565b505050565b90612d9b91612bcc565b565b634e487b7160e01b5f52601160045260245ffd5b612dba906101e4565b5f198114612dc85760010190565b612d9d565b90612dd95f1991611e31565b9181191691161790565b90612df8612df3612dff926106d3565b6122f1565b8254612dcd565b9055565b612e0d9051610365565b90565b612e1a90516101e4565b90565b612e2790516103e2565b90565b612e356101a0610599565b90565b5190565b612e4b612e51919392936101e4565b926101e4565b91612e5d8382026101e4565b928184041490151715612e6c57565b612d9d565b612e7c906002612e3c565b90565b90612e92905f1990602003600802610aca565b8154169055565b905f91612eb0612ea88261076f565b9283546123b9565b905555565b919290602082105f14612f0e57601f8411600114612ede57612ed89293506123b9565b90555b5b565b5090612f04612f09936001612efb612ef58561076f565b926122c2565b8201910161232e565b612e99565b612edb565b50612f458293612f1f60019461076f565b612f3e612f2b856122c2565b820192601f861680612f50575b506122c2565b019061232e565b600202179055612edc565b612f5c90888603612e7f565b5f612f38565b929091680100000000000000008211612fc2576020115f14612fb357602081105f14612f9757612f91916123b9565b90555b5b565b60019160ff1916612fa78461076f565b55600202019055612f94565b60019150600202019055612f95565b61055c565b908154612fd381610745565b90818311612ffc575b818310612fea575b50505050565b612ff393612eb5565b5f808080612fe4565b61300883838387612f62565b612fdc565b5f61301791612fc7565b565b905f0361302b576130299061300d565b565b611073565b5f60016130499261304383808301613019565b0161231a565b565b905f0361305d5761305b90613030565b565b611073565b5b81811061306e575050565b8061307b5f60029361304b565b01613063565b9091828110613090575b505050565b6130ae6130a86130a26130b995612e71565b92612e71565b92611b48565b918201910190613062565b5f808061308b565b906801000000000000000081116130ea57816130df6130e893611b2d565b90828155613081565b565b61055c565b5190565b5190565b90613122602060016131289461311a5f82016131145f88016130f3565b9061249a565b019201612e10565b90612de3565b565b90613134916130f7565b565b61315b61315561314584610228565b9361315085856130c1565b610235565b91611b48565b5f915b83831061316b5750505050565b600260208261318461317e6001956130ef565b8661312a565b0192019201919061315e565b9061319a91613136565b565b6131a590610365565b90565b90565b906131c06131bb6131c79261319c565b6131a8565b8254611e36565b9055565b6131d59051610395565b90565b906131e960018060a01b0391611e31565b9181191691161790565b9061320861320361320f92610c13565b61210d565b82546131d8565b9055565b61321d90516103bd565b90565b90613363610180600c613369946132445f820161323e5f8801612e38565b90613190565b61325d6001820161325760208801612e03565b906131ab565b61327660028201613270604088016130f3565b9061249a565b61328f60038201613289606088016130f3565b9061249a565b6132a8600482016132a2608088016130f3565b9061249a565b6132c1600582016132bb60a088016130f3565b9061249a565b6132da600682016132d460c088016131cb565b906131f3565b6132f3600782016132ed60e088016130f3565b9061249a565b61330d600882016133076101008801613213565b90611e5b565b613327600982016133216101208801612e10565b90612de3565b613341600a820161333b6101408801612e10565b90612de3565b61335b600b82016133556101608801612e10565b90612de3565b019201612e1d565b90612097565b565b9061337591613220565b565b905f929180549061339161338a83610745565b8094611188565b916001811690815f146133e857506001146133ac575b505050565b6133b9919293945061108f565b915f925b8184106133d057505001905f80806133a7565b600181602092959395548486015201910192906133bd565b92949550505060ff19168252151560200201905f80806133a7565b9061342e61343991613446969461342160808601925f8701906109a1565b84820360208601526103f4565b936040830190610987565b6060818403910152613377565b90565b613451612316565b5061345c600661089d565b61346590612db1565b613470906006612de3565b805f01518160200161348190612e03565b826040015190836060015184608001518560a00151338760e00151905f9289610120016134ad90612e10565b948a610140016134bc90612e10565b968b610180016134cb90612e1d565b998c610160016134da90612e10565b996134e3612e2a565b9c5f8e01906134f191611c03565b60208d01906134ff91611c06565b60408c019061350d91611b51565b60608b019061351b91611b51565b60808a019061352991611b51565b60a089019061353791611b51565b60c088019061354591611c14565b60e087019061355391611b51565b61010086019061356291611c22565b61012085019061357191611b54565b61014084019061358091611b54565b61016083019061358f91611b54565b61018082019061359e91611c30565b60016135aa600661089d565b6135b3916106ef565b906135bd9161336b565b6135c7600661089d565b6135d0906138b4565b806020016135dd90612e03565b5f6135e790610365565b906135f190610365565b1461369d575b61360360208201612e03565b6136166136106001610365565b91610365565b14613684575b613626600661089d565b903391613674613641600461363b600661089d565b9061105d565b7f02d3e628b51d4e48285be140d25367fc767604d277e8f4255b0928716abfbabe9461366b6101d2565b94859485613403565b0390a1613681600661089d565b90565b613698613691600661089d565b3390612bc0565b61361c565b6136b16136aa600661089d565b3390612bc0565b6135f7565b90565b6136c56136ca916101e4565b6136b6565b9052565b6020816136e06136e8938396956136b9565b0180926136b9565b0190565b5f7f726573756c740000000000000000000000000000000000000000000000000000910152565b61371d60066105d1565b9061372a602083016136ec565b565b613734613713565b90565b61376c906137436128d1565b50429061375d6137516101d2565b928392602084016136ce565b60208201810382520390610570565b61377461372c565b90565b61377f613948565b90565b9190601f8111613792575b505050565b61379e6137c39361108f565b9060206137aa846122c2565b830193106137cb575b6137bc906122c2565b019061232e565b5f808061378d565b91506137bc819290506137b3565b906137e381611184565b9067ffffffffffffffff82116138a357613807826138018554610745565b85613782565b602090601f831160011461383b5791809161382a935f9261382f575b50506123b9565b90555b565b90915001515f80613823565b601f1983169161384a8561108f565b925f5b81811061388b57509160029391856001969410613871575b5050500201905561382d565b613881910151601f8416906123a4565b90555f8080613865565b9193602060018192878701518155019501920161384d565b61055c565b906138b2916137d9565b565b6138f4906138ef816138e742916138d86138cc6101d2565b938492602084016136ce565b60208201810382520382610570565b91600461105d565b6138a8565b565b5f90565b90565b90565b61391461390f613919926138fa565b611e31565b6138fd565b90565b6139457ff0c57e16840df040f15088dc2f81fe391c3923bec73e23a9662efc9c229c6a00613900565b90565b6139506138f6565b5061395961391c565b9056fea26469706673582212205dcdc73954500e5db1b893f187b033b4244dd43c5de2217eb0733164afbe1dd064736f6c634300081c0033",
    "linkReferences": {}
  },
  "methodIdentifiers": {
    "GAME_DESCRIPTION()": "f082f17a",
    "GAME_ID()": "fdcdb06b",
    "GAME_IMAGE()": "0793aa53",
    "GAME_LINK()": "d113f6f6",
    "GAME_NAME()": "5aed7802",
    "GAME_TYPE()": "dbbf2c47",
    "GAME_UPDATE_APPROVAL_DURATION()": "aee32391",
    "MAX_PLAYERS()": "4411b3eb",
    "MIN_PLAYERS()": "85f07bbe",
    "acceptInvitation(uint256)": "464c5b6c",
    "addUserToGroup(uint256,address)": "cfa8c6f0",
    "betId()": "27bce91b",
    "bets(uint256)": "22af00fa",
    "cancelBet(uint256)": "357401f5",
    "createBet(((string,uint256)[],uint8,string,string,string,string,address,string,uint8,uint256,uint256,uint256,bool))": "f3e7f686",
    "gameIpfs()": "a769c0fe",
    "getBet(uint256)": "061e494f",
    "getGroups(uint256)": "42c3196e",
    "getResult(uint256)": "995e4339",
    "groups(uint256,uint256)": "4ae855cf",
    "initialize()": "8129fc1c",
    "invitedUsers(uint256,uint256)": "c0eb83c5",
    "isUserInGroup(uint256,address)": "a1845dcf",
    "removeUserFromGroup(uint256,address)": "e43e2166",
    "requestId(uint256)": "815ff1ac",
    "resolveBet(uint256)": "4c36c36e",
    "userInGroups(uint256,address)": "3f290096"
  },
  "id": 19
}