{
  "abi": [
    {
      "type": "function",
      "name": "GAME_DESCRIPTION",
      "inputs": [],
      "outputs": [
        {
          "name": "",
          "type": "string",
          "internalType": "string"
        }
      ],
      "stateMutability": "view"
    },
    {
      "type": "function",
      "name": "GAME_ID",
      "inputs": [],
      "outputs": [
        {
          "name": "",
          "type": "uint256",
          "internalType": "uint256"
        }
      ],
      "stateMutability": "view"
    },
    {
      "type": "function",
      "name": "GAME_IMAGE",
      "inputs": [],
      "outputs": [
        {
          "name": "",
          "type": "string",
          "internalType": "string"
        }
      ],
      "stateMutability": "view"
    },
    {
      "type": "function",
      "name": "GAME_LINK",
      "inputs": [],
      "outputs": [
        {
          "name": "",
          "type": "string",
          "internalType": "string"
        }
      ],
      "stateMutability": "view"
    },
    {
      "type": "function",
      "name": "GAME_NAME",
      "inputs": [],
      "outputs": [
        {
          "name": "",
          "type": "string",
          "internalType": "string"
        }
      ],
      "stateMutability": "view"
    },
    {
      "type": "function",
      "name": "GAME_TYPE",
      "inputs": [],
      "outputs": [
        {
          "name": "",
          "type": "string",
          "internalType": "string"
        }
      ],
      "stateMutability": "view"
    },
    {
      "type": "function",
      "name": "GAME_UPDATE_APPROVAL_DURATION",
      "inputs": [],
      "outputs": [
        {
          "name": "",
          "type": "uint256",
          "internalType": "uint256"
        }
      ],
      "stateMutability": "view"
    },
    {
      "type": "function",
      "name": "MAX_PLAYERS",
      "inputs": [],
      "outputs": [
        {
          "name": "",
          "type": "uint256",
          "internalType": "uint256"
        }
      ],
      "stateMutability": "view"
    },
    {
      "type": "function",
      "name": "MIN_PLAYERS",
      "inputs": [],
      "outputs": [
        {
          "name": "",
          "type": "uint256",
          "internalType": "uint256"
        }
      ],
      "stateMutability": "view"
    },
    {
      "type": "function",
      "name": "acceptInvitation",
      "inputs": [
        {
          "name": "gameId",
          "type": "uint256",
          "internalType": "uint256"
        }
      ],
      "outputs": [
        {
          "name": "",
          "type": "bool",
          "internalType": "bool"
        }
      ],
      "stateMutability": "nonpayable"
    },
    {
      "type": "function",
      "name": "addUserToGroups",
      "inputs": [
        {
          "name": "gameId",
          "type": "uint256",
          "internalType": "uint256"
        },
        {
          "name": "user",
          "type": "address",
          "internalType": "address"
        }
      ],
      "outputs": [],
      "stateMutability": "nonpayable"
    },
    {
      "type": "function",
      "name": "betId",
      "inputs": [],
      "outputs": [
        {
          "name": "",
          "type": "uint256",
          "internalType": "uint256"
        }
      ],
      "stateMutability": "view"
    },
    {
      "type": "function",
      "name": "bets",
      "inputs": [
        {
          "name": "",
          "type": "uint256",
          "internalType": "uint256"
        }
      ],
      "outputs": [
        {
          "name": "id",
          "type": "uint256",
          "internalType": "uint256"
        },
        {
          "name": "betType",
          "type": "uint8",
          "internalType": "enum HubStruct.BetType"
        },
        {
          "name": "name",
          "type": "string",
          "internalType": "string"
        },
        {
          "name": "description",
          "type": "string",
          "internalType": "string"
        },
        {
          "name": "image",
          "type": "string",
          "internalType": "string"
        },
        {
          "name": "link",
          "type": "string",
          "internalType": "string"
        },
        {
          "name": "owner",
          "type": "address",
          "internalType": "address"
        },
        {
          "name": "result",
          "type": "string",
          "internalType": "string"
        },
        {
          "name": "status",
          "type": "uint8",
          "internalType": "enum HubStruct.BetStatus"
        },
        {
          "name": "createdAt",
          "type": "string",
          "internalType": "string"
        },
        {
          "name": "updatedAt",
          "type": "string",
          "internalType": "string"
        },
        {
          "name": "privateBet",
          "type": "bool",
          "internalType": "bool"
        }
      ],
      "stateMutability": "view"
    },
    {
      "type": "function",
      "name": "cancelBet",
      "inputs": [
        {
          "name": "id",
          "type": "uint256",
          "internalType": "uint256"
        }
      ],
      "outputs": [],
      "stateMutability": "nonpayable"
    },
    {
      "type": "function",
      "name": "createBet",
      "inputs": [
        {
          "name": "bet",
          "type": "tuple",
          "internalType": "struct HubStruct.Bet",
          "components": [
            {
              "name": "id",
              "type": "uint256",
              "internalType": "uint256"
            },
            {
              "name": "options",
              "type": "tuple[]",
              "internalType": "struct HubStruct.Options[]",
              "components": [
                {
                  "name": "option",
                  "type": "string",
                  "internalType": "string"
                },
                {
                  "name": "odds",
                  "type": "uint256",
                  "internalType": "uint256"
                }
              ]
            },
            {
              "name": "betType",
              "type": "uint8",
              "internalType": "enum HubStruct.BetType"
            },
            {
              "name": "name",
              "type": "string",
              "internalType": "string"
            },
            {
              "name": "description",
              "type": "string",
              "internalType": "string"
            },
            {
              "name": "image",
              "type": "string",
              "internalType": "string"
            },
            {
              "name": "link",
              "type": "string",
              "internalType": "string"
            },
            {
              "name": "owner",
              "type": "address",
              "internalType": "address"
            },
            {
              "name": "result",
              "type": "string",
              "internalType": "string"
            },
            {
              "name": "status",
              "type": "uint8",
              "internalType": "enum HubStruct.BetStatus"
            },
            {
              "name": "createdAt",
              "type": "string",
              "internalType": "string"
            },
            {
              "name": "updatedAt",
              "type": "string",
              "internalType": "string"
            },
            {
              "name": "privateBet",
              "type": "bool",
              "internalType": "bool"
            }
          ]
        }
      ],
      "outputs": [
        {
          "name": "",
          "type": "uint256",
          "internalType": "uint256"
        }
      ],
      "stateMutability": "nonpayable"
    },
    {
      "type": "function",
      "name": "gameIpfs",
      "inputs": [],
      "outputs": [
        {
          "name": "",
          "type": "string",
          "internalType": "string"
        }
      ],
      "stateMutability": "view"
    },
    {
      "type": "function",
      "name": "getBet",
      "inputs": [
        {
          "name": "id",
          "type": "uint256",
          "internalType": "uint256"
        }
      ],
      "outputs": [
        {
          "name": "",
          "type": "tuple",
          "internalType": "struct HubStruct.Bet",
          "components": [
            {
              "name": "id",
              "type": "uint256",
              "internalType": "uint256"
            },
            {
              "name": "options",
              "type": "tuple[]",
              "internalType": "struct HubStruct.Options[]",
              "components": [
                {
                  "name": "option",
                  "type": "string",
                  "internalType": "string"
                },
                {
                  "name": "odds",
                  "type": "uint256",
                  "internalType": "uint256"
                }
              ]
            },
            {
              "name": "betType",
              "type": "uint8",
              "internalType": "enum HubStruct.BetType"
            },
            {
              "name": "name",
              "type": "string",
              "internalType": "string"
            },
            {
              "name": "description",
              "type": "string",
              "internalType": "string"
            },
            {
              "name": "image",
              "type": "string",
              "internalType": "string"
            },
            {
              "name": "link",
              "type": "string",
              "internalType": "string"
            },
            {
              "name": "owner",
              "type": "address",
              "internalType": "address"
            },
            {
              "name": "result",
              "type": "string",
              "internalType": "string"
            },
            {
              "name": "status",
              "type": "uint8",
              "internalType": "enum HubStruct.BetStatus"
            },
            {
              "name": "createdAt",
              "type": "string",
              "internalType": "string"
            },
            {
              "name": "updatedAt",
              "type": "string",
              "internalType": "string"
            },
            {
              "name": "privateBet",
              "type": "bool",
              "internalType": "bool"
            }
          ]
        }
      ],
      "stateMutability": "view"
    },
    {
      "type": "function",
      "name": "getGroups",
      "inputs": [
        {
          "name": "gameId",
          "type": "uint256",
          "internalType": "uint256"
        }
      ],
      "outputs": [
        {
          "name": "",
          "type": "address[]",
          "internalType": "address[]"
        }
      ],
      "stateMutability": "view"
    },
    {
      "type": "function",
      "name": "getResult",
      "inputs": [
        {
          "name": "id",
          "type": "uint256",
          "internalType": "uint256"
        }
      ],
      "outputs": [
        {
          "name": "",
          "type": "string",
          "internalType": "string"
        }
      ],
      "stateMutability": "view"
    },
    {
      "type": "function",
      "name": "getUserInGroups",
      "inputs": [
        {
          "name": "gameId",
          "type": "uint256",
          "internalType": "uint256"
        },
        {
          "name": "user",
          "type": "address",
          "internalType": "address"
        }
      ],
      "outputs": [
        {
          "name": "",
          "type": "bool",
          "internalType": "bool"
        }
      ],
      "stateMutability": "view"
    },
    {
      "type": "function",
      "name": "groups",
      "inputs": [
        {
          "name": "",
          "type": "uint256",
          "internalType": "uint256"
        },
        {
          "name": "",
          "type": "uint256",
          "internalType": "uint256"
        }
      ],
      "outputs": [
        {
          "name": "",
          "type": "address",
          "internalType": "address"
        }
      ],
      "stateMutability": "view"
    },
    {
      "type": "function",
      "name": "initialize",
      "inputs": [],
      "outputs": [],
      "stateMutability": "nonpayable"
    },
    {
      "type": "function",
      "name": "invitedUsers",
      "inputs": [
        {
          "name": "",
          "type": "uint256",
          "internalType": "uint256"
        },
        {
          "name": "",
          "type": "uint256",
          "internalType": "uint256"
        }
      ],
      "outputs": [
        {
          "name": "",
          "type": "address",
          "internalType": "address"
        }
      ],
      "stateMutability": "view"
    },
    {
      "type": "function",
      "name": "removeUserFromGroups",
      "inputs": [
        {
          "name": "gameId",
          "type": "uint256",
          "internalType": "uint256"
        },
        {
          "name": "user",
          "type": "address",
          "internalType": "address"
        }
      ],
      "outputs": [],
      "stateMutability": "nonpayable"
    },
    {
      "type": "function",
      "name": "requestId",
      "inputs": [
        {
          "name": "",
          "type": "uint256",
          "internalType": "uint256"
        }
      ],
      "outputs": [
        {
          "name": "",
          "type": "bytes",
          "internalType": "bytes"
        }
      ],
      "stateMutability": "view"
    },
    {
      "type": "function",
      "name": "resolveBet",
      "inputs": [
        {
          "name": "id",
          "type": "uint256",
          "internalType": "uint256"
        }
      ],
      "outputs": [],
      "stateMutability": "nonpayable"
    },
    {
      "type": "function",
      "name": "userInGroups",
      "inputs": [
        {
          "name": "",
          "type": "uint256",
          "internalType": "uint256"
        },
        {
          "name": "",
          "type": "address",
          "internalType": "address"
        }
      ],
      "outputs": [
        {
          "name": "",
          "type": "bool",
          "internalType": "bool"
        }
      ],
      "stateMutability": "view"
    },
    {
      "type": "event",
      "name": "BetCancelled",
      "inputs": [
        {
          "name": "id",
          "type": "uint256",
          "indexed": false,
          "internalType": "uint256"
        }
      ],
      "anonymous": false
    },
    {
      "type": "event",
      "name": "BetCreated",
      "inputs": [
        {
          "name": "id",
          "type": "uint256",
          "indexed": false,
          "internalType": "uint256"
        },
        {
          "name": "bet",
          "type": "tuple",
          "indexed": false,
          "internalType": "struct HubStruct.Bet",
          "components": [
            {
              "name": "id",
              "type": "uint256",
              "internalType": "uint256"
            },
            {
              "name": "options",
              "type": "tuple[]",
              "internalType": "struct HubStruct.Options[]",
              "components": [
                {
                  "name": "option",
                  "type": "string",
                  "internalType": "string"
                },
                {
                  "name": "odds",
                  "type": "uint256",
                  "internalType": "uint256"
                }
              ]
            },
            {
              "name": "betType",
              "type": "uint8",
              "internalType": "enum HubStruct.BetType"
            },
            {
              "name": "name",
              "type": "string",
              "internalType": "string"
            },
            {
              "name": "description",
              "type": "string",
              "internalType": "string"
            },
            {
              "name": "image",
              "type": "string",
              "internalType": "string"
            },
            {
              "name": "link",
              "type": "string",
              "internalType": "string"
            },
            {
              "name": "owner",
              "type": "address",
              "internalType": "address"
            },
            {
              "name": "result",
              "type": "string",
              "internalType": "string"
            },
            {
              "name": "status",
              "type": "uint8",
              "internalType": "enum HubStruct.BetStatus"
            },
            {
              "name": "createdAt",
              "type": "string",
              "internalType": "string"
            },
            {
              "name": "updatedAt",
              "type": "string",
              "internalType": "string"
            },
            {
              "name": "privateBet",
              "type": "bool",
              "internalType": "bool"
            }
          ]
        },
        {
          "name": "user",
          "type": "address",
          "indexed": false,
          "internalType": "address"
        },
        {
          "name": "requestId",
          "type": "bytes",
          "indexed": false,
          "internalType": "bytes"
        }
      ],
      "anonymous": false
    },
    {
      "type": "event",
      "name": "BetRequest",
      "inputs": [
        {
          "name": "id",
          "type": "uint256",
          "indexed": false,
          "internalType": "uint256"
        },
        {
          "name": "requestId",
          "type": "bytes",
          "indexed": false,
          "internalType": "bytes"
        }
      ],
      "anonymous": false
    },
    {
      "type": "event",
      "name": "BetResolved",
      "inputs": [
        {
          "name": "id",
          "type": "uint256",
          "indexed": false,
          "internalType": "uint256"
        },
        {
          "name": "result",
          "type": "string",
          "indexed": false,
          "internalType": "string"
        }
      ],
      "anonymous": false
    },
    {
      "type": "event",
      "name": "Initialized",
      "inputs": [
        {
          "name": "version",
          "type": "uint64",
          "indexed": false,
          "internalType": "uint64"
        }
      ],
      "anonymous": false
    },
    {
      "type": "error",
      "name": "InvalidInitialization",
      "inputs": []
    },
    {
      "type": "error",
      "name": "NotInitializing",
      "inputs": []
    }
  ],
  "bytecode": {
    "object": "0x608060405234610027576100116101cd565b61001961002c565b6133436101d9823961334390f35b610032565b60405190565b5f80fd5b634e487b7160e01b5f52602260045260245ffd5b906001600283049216801561006a575b602083101461006557565b610036565b91607f169161005a565b5f5260205f2090565b601f602091010490565b1b90565b919060086100a69102916100a05f1984610087565b92610087565b9181191691161790565b90565b90565b6100ca6100c56100cf926100b0565b6100b3565b6100b0565b90565b90565b91906100eb6100e66100f3936100b6565b6100d2565b90835461008b565b9055565b5f90565b61010d916101076100f7565b916100d5565b565b5b81811061011b575050565b806101285f6001936100fb565b01610110565b9190601f811161013e575b505050565b61014a61016f93610074565b9060206101568461007d565b83019310610177575b6101689061007d565b019061010f565b5f8080610139565b91506101688192905061015f565b61019a6016610194835461004a565b8361012e565b602c7f68747470733a2f2f7777772e676f6f676c652e636f6d00000000000000000000019055565b6101cb90610185565b565b6101d65f6101c2565b56fe60806040526004361015610013575b611a8b565b61001d5f356101cc565b8063061e494f146101c75780630793aa53146101c257806322af00fa146101bd57806327bce91b146101b8578063357401f5146101b35780633f290096146101ae57806342c3196e146101a95780634411b3eb146101a4578063464c5b6c1461019f5780634ae855cf1461019a5780634c36c36e146101955780635aed7802146101905780638129fc1c1461018b578063815ff1ac1461018657806385f07bbe14610181578063995e43391461017c578063a769c0fe14610177578063aee3239114610172578063bb0922921461016d578063c0eb83c514610168578063d113f6f614610163578063d9a190591461015e578063dbbf2c4714610159578063e6df74b914610154578063f082f17a1461014f578063f157182f1461014a5763fdcdb06b0361000e57611a56565b6119e9565b6119b4565b61191f565b6118ea565b611855565b611820565b6117dc565b611772565b611359565b6112eb565b61128f565b61125a565b6111ee565b61103e565b611009565b610f75565b610f3f565b610e0e565b610dd9565b610d6d565b610ca5565b610b66565b610b2c565b610a99565b6106a5565b610522565b60e01c90565b60405190565b5f80fd5b5f80fd5b5f80fd5b90565b6101f0816101e4565b036101f757565b5f80fd5b90503590610208826101e7565b565b9060208282031261022357610220915f016101fb565b90565b6101dc565b610231906101e4565b9052565b5190565b60209181520190565b60200190565b5190565b60209181520190565b90825f9392825e0152565b601f801991011690565b6102896102926020936102979361028081610248565b9384809361024c565b95869101610255565b610260565b0190565b906102c5906020806102ba604084015f8701518582035f87015261026a565b940151910190610228565b90565b906102d29161029b565b90565b60200190565b906102ef6102e883610235565b8092610239565b908161030060208302840194610242565b925f915b83831061031357505050505090565b9091929394602061033561032f838560019503875289516102c8565b976102d5565b9301930191939290610304565b634e487b7160e01b5f52602160045260245ffd5b6003111561036057565b610342565b9061036f82610356565b565b61037a90610365565b90565b61038690610371565b9052565b60018060a01b031690565b61039e9061038a565b90565b6103aa90610395565b9052565b600411156103b857565b610342565b906103c7826103ae565b565b6103d2906103bd565b90565b6103de906103c9565b9052565b151590565b6103f0906103e2565b9052565b9061050790610180806104fc6104e86104c061049a6104886104766104648b61045260406104458d6101a08101906104325f8701515f830190610228565b60208601519060208184039101526102db565b92015160408d019061037d565b60608d01518b820360608d015261026a565b60808c01518a820360808c015261026a565b60a08b015189820360a08b015261026a565b60c08a015188820360c08a015261026a565b6104ac60e08a015160e08901906103a1565b61010089015187820361010089015261026a565b6104d46101208901516101208801906103d5565b61014088015186820361014088015261026a565b61016087015185820361016087015261026a565b9401519101906103e7565b90565b61051f9160208201915f8184039101526103f4565b90565b346105525761054e61053d61053836600461020a565b611dd4565b6105456101d2565b9182918261050a565b0390f35b6101d8565b5f91031261056157565b6101dc565b634e487b7160e01b5f52604160045260245ffd5b9061058490610260565b810190811067ffffffffffffffff82111761059e57604052565b610566565b906105b66105af6101d2565b928361057a565b565b67ffffffffffffffff81116105d6576105d2602091610260565b0190565b610566565b906105ed6105e8836105b8565b6105a3565b918252565b5f7f68747470733a2f2f7669612e706c616365686f6c6465722e636f6d2f31353000910152565b610623601f6105db565b90610630602083016105f2565b565b61063a610619565b90565b610645610632565b90565b61065061063d565b90565b60209181520190565b61067b6106846020936106899361067281610248565b93848093610653565b95869101610255565b610260565b0190565b6106a29160208201915f81840391015261065c565b90565b346106d5576106b5366004610557565b6106d16106c0610648565b6106c86101d2565b9182918261068d565b0390f35b6101d8565b90565b6106f16106ec6106f6926101e4565b6106da565b6101e4565b90565b90610703906106dd565b5f5260205260405f2090565b5f1c90565b90565b6107236107289161070f565b610714565b90565b6107359054610717565b90565b60ff1690565b61074a61074f9161070f565b610738565b90565b61075c905461073e565b90565b634e487b7160e01b5f52602260045260245ffd5b9060016002830492168015610793575b602083101461078e57565b61075f565b91607f1691610783565b5f5260205f2090565b905f92918054906107c06107b983610773565b809461024c565b916001811690815f1461081757506001146107db575b505050565b6107e8919293945061079d565b915f925b8184106107ff57505001905f80806107d6565b600181602092959395548486015201910192906107ec565b92949550505060ff19168252151560200201905f80806107d6565b9061083c916107a6565b90565b9061085f6108589261084f6101d2565b93848092610832565b038361057a565b565b60018060a01b031690565b61087861087d9161070f565b610861565b90565b61088a905461086c565b90565b60ff1690565b61089f6108a49161070f565b61088d565b90565b6108b19054610893565b90565b60ff1690565b6108c66108cb9161070f565b6108b4565b90565b6108d890546108ba565b90565b6108e69060016106f9565b906108f25f830161072b565b916108ff60028201610752565b9161090c6003830161083f565b916109196004820161083f565b916109266005830161083f565b916109336006820161083f565b9161094060078301610880565b9161094d6008820161083f565b9161095a600983016108a7565b91610967600a820161083f565b91610980600c610979600b850161083f565b93016108ce565b90565b61098c906101e4565b9052565b61099990610371565b9052565b6109a690610395565b9052565b6109b3906103c9565b9052565b6109c0906103e2565b9052565b9c9b999397610a58610a979c988f93610a50610a809a610a426101609f9b610a8f9f610a3490610a2660c097610a729e610a18610a669f8f602090610a116101808201965f830190610983565b0190610990565b8d604081840391015261065c565b908b820360608d015261065c565b9089820360808b015261065c565b9087820360a089015261065c565b94019061099d565b8d60e081840391015261065c565b926101008c01906109aa565b8982036101208b015261065c565b9087820361014089015261065c565b9401906109b7565b565b34610ad957610ad5610ab4610aaf36600461020a565b6108db565b98610acc9c9a9c9891989792979693969594956101d2565b9c8d9c8d6109c4565b0390f35b6101d8565b1c90565b610af2906008610af79302610ade565b610714565b90565b90610b059154610ae2565b90565b610b1460065f90610afa565b90565b9190610b2a905f60208501940190610983565b565b34610b5c57610b3c366004610557565b610b58610b47610b08565b610b4f6101d2565b91829182610b17565b0390f35b6101d8565b5f0190565b34610b9457610b7e610b7936600461020a565b611ebf565b610b866101d2565b80610b9081610b61565b0390f35b6101d8565b610ba281610395565b03610ba957565b5f80fd5b90503590610bba82610b99565b565b9190604083820312610be45780610bd8610be1925f86016101fb565b93602001610bad565b90565b6101dc565b90610bf3906106dd565b5f5260205260405f2090565b610c13610c0e610c189261038a565b6106da565b61038a565b90565b610c2490610bff565b90565b610c3090610c1b565b90565b90610c3d90610c27565b5f5260205260405f2090565b610c59906008610c5e9302610ade565b6108b4565b90565b90610c6c9154610c49565b90565b610c88610c8d92610c836002935f94610be9565b610c33565b610c61565b90565b9190610ca3905f602085019401906109b7565b565b34610cd657610cd2610cc1610cbb366004610bbc565b90610c6f565b610cc96101d2565b91829182610c90565b0390f35b6101d8565b5190565b60209181520190565b60200190565b90610cfb816020936103a1565b0190565b60200190565b90610d22610d1c610d1584610cdb565b8093610cdf565b92610ce8565b905f5b818110610d325750505090565b909192610d4b610d456001928651610cee565b94610cff565b9101919091610d25565b610d6a9160208201915f818403910152610d05565b90565b34610d9d57610d99610d88610d8336600461020a565b611ff9565b610d906101d2565b91829182610d55565b0390f35b6101d8565b90565b610db9610db4610dbe92610da2565b6106da565b6101e4565b90565b610dcb600a610da5565b90565b610dd6610dc1565b90565b34610e0957610de9366004610557565b610e05610df4610dce565b610dfc6101d2565b91829182610b17565b0390f35b6101d8565b34610e3e57610e3a610e29610e2436600461020a565b6121e3565b610e316101d2565b91829182610c90565b0390f35b6101d8565b9190604083820312610e6b5780610e5f610e68925f86016101fb565b936020016101fb565b90565b6101dc565b90610e7a906106dd565b5f5260205260405f2090565b634e487b7160e01b5f52603260045260245ffd5b5490565b5f5260205f2090565b610eb081610e9a565b821015610eca57610ec2600191610e9e565b910201905f90565b610e86565b610edf906008610ee49302610ade565b610861565b90565b90610ef29154610ecf565b90565b610f00906003610e70565b610f0981610e9a565b821015610f2657610f2391610f1d91610ea7565b90610ee7565b90565b5f80fd5b9190610f3d905f6020850194019061099d565b565b34610f7057610f6c610f5b610f55366004610e43565b90610ef5565b610f636101d2565b91829182610f2a565b0390f35b6101d8565b34610fa357610f8d610f8836600461020a565b61259c565b610f956101d2565b80610f9f81610b61565b0390f35b6101d8565b5f7f47616d6531000000000000000000000000000000000000000000000000000000910152565b610fd960056105db565b90610fe660208301610fa8565b565b610ff0610fcf565b90565b610ffb610fe8565b90565b611006610ff3565b90565b3461103957611019366004610557565b611035611024610ffe565b61102c6101d2565b9182918261068d565b0390f35b6101d8565b3461106c5761104e366004610557565b61105661290b565b61105e6101d2565b8061106881610b61565b0390f35b6101d8565b9061107b906106dd565b5f5260205260405f2090565b634e487b7160e01b5f525f60045260245ffd5b60209181520190565b5f5260205f2090565b905f92918054906110c66110bf83610773565b809461109a565b916001811690815f1461111d57506001146110e1575b505050565b6110ee91929394506110a3565b915f925b81841061110557505001905f80806110dc565b600181602092959395548486015201910192906110f2565b92949550505060ff19168252151560200201905f80806110dc565b90611142916110ac565b90565b9061116561115e926111556101d2565b93848092611138565b038361057a565b565b905f1061117a5761117790611145565b90565b611087565b611195906111906004915f92611071565b611167565b90565b5190565b60209181520190565b6111c46111cd6020936111d2936111bb81611198565b9384809361119c565b95869101610255565b610260565b0190565b6111eb9160208201915f8184039101526111a5565b90565b3461121e5761121a61120961120436600461020a565b61117f565b6112116101d2565b918291826111d6565b0390f35b6101d8565b90565b61123a61123561123f92611223565b6106da565b6101e4565b90565b61124c6002611226565b90565b611257611242565b90565b3461128a5761126a366004610557565b61128661127561124f565b61127d6101d2565b91829182610b17565b0390f35b6101d8565b346112bf576112bb6112aa6112a536600461020a565b612926565b6112b26101d2565b9182918261068d565b0390f35b6101d8565b905f106112d7576112d49061083f565b90565b611087565b6112e860075f906112c4565b90565b3461131b576112fb366004610557565b6113176113066112dc565b61130e6101d2565b9182918261068d565b0390f35b6101d8565b90565b61133761133261133c92611320565b6106da565b6101e4565b90565b61134b6203f480611323565b90565b61135661133f565b90565b3461138957611369366004610557565b61138561137461134e565b61137c6101d2565b91829182610b17565b0390f35b6101d8565b5f80fd5b5f80fd5b5f80fd5b67ffffffffffffffff81116113b25760208091020190565b610566565b5f80fd5b5f80fd5b90825f939282370152565b909291926113df6113da826105b8565b6105a3565b938185526020850190828401116113fb576113f9926113bf565b565b6113bb565b9080601f8301121561141e5781602061141b933591016113ca565b90565b611396565b9190916040818403126114765761143a60406105a3565b925f8201359167ffffffffffffffff83116114715761145e8261146a948301611400565b5f8601526020016101fb565b6020830152565b611392565b61138e565b92919061148f61148a8261139a565b6105a3565b93818552602080860192028101918383116114e65781905b8382106114b5575050505050565b813567ffffffffffffffff81116114e1576020916114d68784938701611423565b8152019101906114a7565b611396565b6113b7565b9080601f83011215611509578160206115069335910161147b565b90565b611396565b6003111561151857565b5f80fd5b905035906115298261150e565b565b6004111561153557565b5f80fd5b905035906115468261152b565b565b611551816103e2565b0361155857565b5f80fd5b9050359061156982611548565b565b9190916101a081840312611738576115846101a06105a3565b92611591815f84016101fb565b5f850152602082013567ffffffffffffffff811161173357816115b59184016114eb565b60208501526115c7816040840161151c565b6040850152606082013567ffffffffffffffff811161172e57816115ec918401611400565b6060850152608082013567ffffffffffffffff81116117295781611611918401611400565b608085015260a082013567ffffffffffffffff81116117245781611636918401611400565b60a085015260c082013567ffffffffffffffff811161171f578161165b918401611400565b60c085015261166d8160e08401610bad565b60e085015261010082013567ffffffffffffffff811161171a5781611693918401611400565b6101008501526116a7816101208401611539565b61012085015261014082013567ffffffffffffffff811161171557816116ce918401611400565b6101408501526101608201359167ffffffffffffffff8311611710576116f982611708948301611400565b6101608601526101800161155c565b610180830152565b611392565b611392565b611392565b611392565b611392565b611392565b611392565b611392565b61138e565b9060208282031261176d575f82013567ffffffffffffffff811161176857611765920161156b565b90565b6101e0565b6101dc565b346117a25761179e61178d61178836600461173d565b612a8d565b6117956101d2565b91829182610b17565b0390f35b6101d8565b6117b2906005610e70565b6117bb81610e9a565b8210156117d8576117d5916117cf91610ea7565b90610ee7565b90565b5f80fd5b3461180d576118096117f86117f2366004610e43565b906117a7565b6118006101d2565b91829182610f2a565b0390f35b6101d8565b61181d5f5f906112c4565b90565b3461185057611830366004610557565b61184c61183b611812565b6118436101d2565b9182918261068d565b0390f35b6101d8565b346118845761186e611868366004610bbc565b90612dee565b6118766101d2565b8061188081610b61565b0390f35b6101d8565b5f7f53696e676c650000000000000000000000000000000000000000000000000000910152565b6118ba60066105db565b906118c760208301611889565b565b6118d16118b0565b90565b6118dc6118c9565b90565b6118e76118d4565b90565b3461191a576118fa366004610557565b6119166119056118df565b61190d6101d2565b9182918261068d565b0390f35b6101d8565b3461194e57611938611932366004610bbc565b90613033565b6119406101d2565b8061194a81610b61565b0390f35b6101d8565b5f7f48656c6c6f20576f726c64000000000000000000000000000000000000000000910152565b611984600b6105db565b9061199160208301611953565b565b61199b61197a565b90565b6119a6611993565b90565b6119b161199e565b90565b346119e4576119c4366004610557565b6119e06119cf6119a9565b6119d76101d2565b9182918261068d565b0390f35b6101d8565b34611a1a57611a16611a056119ff366004610bbc565b9061303f565b611a0d6101d2565b91829182610c90565b0390f35b6101d8565b90565b611a36611a31611a3b92611a1f565b6106da565b6101e4565b90565b611a486001611a22565b90565b611a53611a3e565b90565b34611a8657611a66366004610557565b611a82611a71611a4b565b611a796101d2565b91829182610b17565b0390f35b6101d8565b5f80fd5b611a9a6101a06105a3565b90565b5f90565b606090565b5f90565b606090565b5f90565b5f90565b5f90565b602090818080808080808080808080611ad2611a8f565b9d8e611adc611a9d565b815201611ae7611aa1565b815201611af2611aa6565b815201611afd611aaa565b815201611b08611aaa565b815201611b13611aaa565b815201611b1e611aaa565b815201611b29611aaf565b815201611b34611aaa565b815201611b3f611ab3565b815201611b4a611aaa565b815201611b55611aaa565b815201611b60611ab7565b81525050565b611b6e611abb565b90565b90611b7b906101e4565b9052565b5490565b90611b95611b908361139a565b6105a3565b918252565b5f5260205f2090565b52565b611bb060406105a3565b90565b90611bea611be16001611bc4611ba6565b94611bdb611bd35f830161083f565b5f8801611ba3565b0161072b565b60208401611b71565b565b611bf590611bb3565b90565b90611c0282611b7f565b611c0b81611b83565b92611c196020850191611b9a565b5f915b838310611c295750505050565b60026020600192611c3985611bec565b815201920192019190611c1c565b52565b90611c5490610365565b9052565b90611c6290610395565b9052565b90611c70906103bd565b9052565b90611c7e906103e2565b9052565b90611dc6611dbc600c611c93611a8f565b94611caa611ca25f830161072b565b5f8801611b71565b611cc2611cb960018301611bf8565b60208801611c47565b611cda611cd160028301610752565b60408801611c4a565b611cf2611ce96003830161083f565b60608801611ba3565b611d0a611d016004830161083f565b60808801611ba3565b611d22611d196005830161083f565b60a08801611ba3565b611d3a611d316006830161083f565b60c08801611ba3565b611d52611d4960078301610880565b60e08801611c58565b611d6b611d616008830161083f565b6101008801611ba3565b611d84611d7a600983016108a7565b6101208801611c66565b611d9d611d93600a830161083f565b6101408801611ba3565b611db6611dac600b830161083f565b6101608801611ba3565b016108ce565b6101808401611c74565b565b611dd190611c82565b90565b611deb611df091611de3611b66565b5060016106f9565b611dc8565b90565b5f7f426574206e6f742070656e64696e670000000000000000000000000000000000910152565b611e27600f602092610653565b611e3081611df3565b0190565b611e499060208101905f818303910152611e1a565b90565b15611e5357565b611e5b6101d2565b62461bcd60e51b815280611e7160048201611e34565b0390fd5b5f1b90565b90611e8660ff91611e75565b9181191691161790565b611e99906103bd565b90565b90565b90611eb4611eaf611ebb92611e90565b611e9c565b8254611e7a565b9055565b611ef2611ed96009611ed3600185906106f9565b016108a7565b611eec611ee660016103bd565b916103bd565b14611e4c565b611f0b60036009611f05600185906106f9565b01611e9f565b611f417fe3906e8d1e2167ef706b023e6e83af697db5cd38f233c71bf5021b26b316c3a291611f386101d2565b91829182610b17565b0390a1565b606090565b60209181520190565b611f5e905461086c565b90565b60010190565b90611f84611f7e611f7784610e9a565b8093611f4b565b92610e9e565b905f5b818110611f945750505090565b909192611fb4611fae600192611fa987611f54565b610cee565b94611f61565b9101919091611f87565b90611fc891611f67565b90565b90611feb611fe492611fdb6101d2565b93848092611fbe565b038361057a565b565b611ff690611fcb565b90565b61201061201591612008611f46565b506003610e70565b611fed565b90565b5f90565b90565b61203361202e6120389261201c565b6106da565b6101e4565b90565b5f7f4e6f20696e7669746174696f6e20666f756e6400000000000000000000000000910152565b61206f6013602092610653565b6120788161203b565b0190565b6120919060208101905f818303910152612062565b90565b1561209b57565b6120a36101d2565b62461bcd60e51b8152806120b96004820161207c565b0390fd5b60016120c991016101e4565b90565b6120d5906103e2565b90565b90565b906120f06120eb6120f7926120cc565b6120d8565b8254611e7a565b9055565b61210f61210a6121149261201c565b6106da565b61038a565b90565b612120906120fb565b90565b1b90565b9190600861214791029161214160018060a01b0384612123565b92612123565b9181191691161790565b90565b919061216a61216561217293610c27565b612151565b908354612127565b9055565b90565b5f5260205f2090565b5490565b61218f81612182565b8210156121a9576121a1600191612179565b910201905f90565b610e86565b90815491680100000000000000008310156121de57826121d69160016121dc95018155612186565b90612154565b565b610566565b6121eb612018565b5061221b6122036121fe60058490610e70565b610e9a565b61221561220f5f61201f565b916101e4565b11612094565b6122245f61201f565b5b8061224b61224561224061223b60058790610e70565b610e9a565b6101e4565b916101e4565b10156122ff5761227061226a61226360058590610e70565b8390610ea7565b90610ee7565b61228261227c33610395565b91610395565b1461229557612290906120bd565b612225565b6122ee6122fa926122e76122f3936122c360016122be6122b760028790610be9565b3390610c33565b6120db565b6122e16122cf5f612117565b916122dc60058690610e70565b610ea7565b90612154565b6003610e70565b612176565b33906121ae565b600190565b5050600190565b601f602091010490565b9190600861232b9102916123255f1984612123565b92612123565b9181191691161790565b90565b919061234e612349612356936106dd565b612335565b908354612310565b9055565b5f90565b6123709161236a61235a565b91612338565b565b5b81811061237e575050565b8061238b5f60019361235e565b01612373565b9190601f81116123a1575b505050565b6123ad6123d29361079d565b9060206123b984612306565b830193106123da575b6123cb90612306565b0190612372565b5f808061239c565b91506123cb819290506123c2565b906123f8905f1990600802610ade565b191690565b81612407916123e8565b906002021790565b9061241981610248565b9067ffffffffffffffff82116124d95761243d826124378554610773565b85612391565b602090601f831160011461247157918091612460935f92612465575b50506123fd565b90555b565b90915001515f80612459565b601f198316916124808561079d565b925f5b8181106124c1575091600293918560019694106124a7575b50505002019055612463565b6124b7910151601f8416906123e8565b90555f808061249b565b91936020600181928787015181550195019201612483565b610566565b906124e89161240f565b565b905f92918054906125046124fd83610773565b8094610653565b916001811690815f1461255b575060011461251f575b505050565b61252c919293945061079d565b915f925b81841061254357505001905f808061251a565b60018160209295939554848601520191019290612530565b92949550505060ff19168252151560200201905f808061251a565b916125999261258c60408201935f830190610983565b60208184039101526124ea565b90565b6125cf6125b660096125b0600185906106f9565b016108a7565b6125c96125c360016103bd565b916103bd565b14611e4c565b6125e8600260096125e2600185906106f9565b01611e9f565b6126086125f4826130e8565b6008612602600185906106f9565b016124de565b60086126158260016106f9565b017fc2e1982e2e7e5f430d49f79ef7583b4996724b83c9e7429c42b12eb9f706de949161264c6126436101d2565b92839283612576565b0390a1565b60401c90565b61266361266891612651565b6108b4565b90565b6126759054612657565b90565b67ffffffffffffffff1690565b6126916126969161070f565b612678565b90565b6126a39054612685565b90565b67ffffffffffffffff1690565b6126c76126c26126cc9261201c565b6106da565b6126a6565b90565b6126e36126de6126e892611a1f565b6106da565b6126a6565b90565b6126f490610c1b565b90565b9061270a67ffffffffffffffff91611e75565b9181191691161790565b61272861272361272d926126a6565b6106da565b6126a6565b90565b90565b9061274861274361274f92612714565b612730565b82546126f7565b9055565b60401b90565b9061276d68ff000000000000000091612753565b9181191691161790565b9061278c612787612793926120cc565b6120d8565b8254612759565b9055565b6127a0906126cf565b9052565b91906127b7905f60208501940190612797565b565b6127c1613128565b6127d56127cf5f830161266b565b156103e2565b6127e05f8301612699565b806127f36127ed5f6126b3565b916126a6565b1480612904575b9061280e61280860016126cf565b916126a6565b14806128dc575b6128209091156103e2565b90816128cb575b506128af5761284161283960016126cf565b5f8401612733565b8061289d575b61284f575b50565b61285c905f809101612777565b60016128947fc7f505b2f371ae2175ee4913f4499e1f2633a7b5936321eed1cdaeb6115181d29161288b6101d2565b918291826127a4565b0390a15f61284c565b6128aa60015f8401612777565b612847565b5f63f92ee8a960e01b8152806128c760048201610b61565b0390fd5b6128d69150156103e2565b5f612827565b506128206128e9306126eb565b3b6128fc6128f65f61201f565b916101e4565b149050612815565b50816127fa565b6129136127b9565b565b606090565b6129239061083f565b90565b600861293f61294592612937612915565b5060016106f9565b0161291a565b90565b634e487b7160e01b5f52601160045260245ffd5b612965906101e4565b5f1981146129735760010190565b612948565b906129845f1991611e75565b9181191691161790565b906129a361299e6129aa926106dd565b612335565b8254612978565b9055565b6129b89051610365565b90565b905f92918054906129d56129ce83610773565b809461119c565b916001811690815f14612a2c57506001146129f0575b505050565b6129fd91929394506110a3565b915f925b818410612a1457505001905f80806129eb565b60018160209295939554848601520191019290612a01565b92949550505060ff19168252151560200201905f80806129eb565b90612a72612a7d91612a8a9694612a6560808601925f870190610983565b84820360208601526103f4565b93604083019061099d565b60608184039101526129bb565b90565b612a9561235a565b50612ab2612aab612aa6600661072b565b61295c565b600661298e565b612abc600661072b565b90612ac682613265565b612ad2604082016129ae565b612ae4612ade5f610365565b91610365565b14612b71575b612af6604082016129ae565b612b09612b036001610365565b91610365565b14612b61575b81612b52612b1f33946004611071565b7fcec6fad8652b400d8739092fb2de21a42970b0e07d044c5a0ad204cccb599c6494612b496101d2565b94859485612a47565b0390a1612b5e5f61201f565b90565b612b6c823390613033565b612b0f565b612b7c823390613033565b612aea565b60207f756e6374696f6e00000000000000000000000000000000000000000000000000917f4f6e6c79206265742063726561746f722063616e2063616c6c207468697320665f8201520152565b612bdb6027604092610653565b612be481612b81565b0190565b612bfd9060208101905f818303910152612bce565b90565b15612c0757565b612c0f6101d2565b62461bcd60e51b815280612c2560048201612be8565b0390fd5b90612c6491612c5f612c476007612c418460016106f9565b01610880565b612c59612c5333610395565b91610395565b14612c00565b612ce8565b565b5f7f55736572206e6f7420696e2067726f7570000000000000000000000000000000910152565b612c9a6011602092610653565b612ca381612c66565b0190565b612cbc9060208101905f818303910152612c8d565b90565b15612cc657565b612cce6101d2565b62461bcd60e51b815280612ce460048201612ca7565b0390fd5b612d22612d09612d04612cfd60028590610be9565b8590610c33565b6108ce565b612d1c612d1660016103e2565b916103e2565b14612cbf565b612d415f612d3c612d3560028590610be9565b8590610c33565b6120db565b612d4a5f61201f565b5b80612d71612d6b612d66612d6160038790610e70565b610e9a565b6101e4565b916101e4565b1015612de957612db790612d9a612d94612d8d60038690610e70565b8390610ea7565b90610ee7565b612dac612da686610395565b91610395565b14612dbc575b6120bd565b612d4b565b612de4612dc85f612117565b612dde612dd760038790610e70565b8490610ea7565b90612154565b612db2565b505050565b90612df891612c29565b565b90612e3591612e30612e186007612e128460016106f9565b01610880565b612e2a612e2433610395565b91610395565b14612c00565b612f3b565b565b5f7f5573657220616c726561647920696e2067726f75700000000000000000000000910152565b612e6b6015602092610653565b612e7481612e37565b0190565b612e8d9060208101905f818303910152612e5e565b90565b15612e9757565b612e9f6101d2565b62461bcd60e51b815280612eb560048201612e78565b0390fd5b5f7f47616d652069732066756c6c0000000000000000000000000000000000000000910152565b612eed600c602092610653565b612ef681612eb9565b0190565b612f0f9060208101905f818303910152612ee0565b90565b15612f1957565b612f216101d2565b62461bcd60e51b815280612f3760048201612efa565b0390fd5b919091612f77612f5f612f5a612f5360028590610be9565b8690610c33565b6108ce565b612f71612f6b5f6103e2565b916103e2565b14612e90565b612fad612f8e612f8960038490610e70565b610e9a565b612fa7612fa1612f9c610dc1565b6101e4565b916101e4565b10612f12565b612fb65f61201f565b5b80612fdd612fd7612fd2612fcd60038790610e70565b610e9a565b6101e4565b916101e4565b101561302d5761302890613005612ffe612ff960058690610e70565b612176565b86906121ae565b61302361301c61301760038490610e70565b612176565b86906121ae565b6120bd565b612fb7565b50509050565b9061303d91612dfa565b565b6130649161305a61305f92613052612018565b506002610be9565b610c33565b6108ce565b90565b90565b61307661307b916101e4565b613067565b9052565b6020816130916130999383969561306a565b01809261306a565b0190565b5f7f726573756c740000000000000000000000000000000000000000000000000000910152565b6130ce60066105db565b906130db6020830161309d565b565b6130e56130c4565b90565b61311d906130f4612915565b50429061310e6131026101d2565b9283926020840161307f565b6020820181038252039061057a565b6131256130dd565b90565b6131306132f9565b90565b9190601f8111613143575b505050565b61314f613174936110a3565b90602061315b84612306565b8301931061317c575b61316d90612306565b0190612372565b5f808061313e565b915061316d81929050613164565b9061319481611198565b9067ffffffffffffffff8211613254576131b8826131b28554610773565b85613133565b602090601f83116001146131ec579180916131db935f926131e0575b50506123fd565b90555b565b90915001515f806131d4565b601f198316916131fb856110a3565b925f5b81811061323c57509160029391856001969410613222575b505050020190556131de565b613232910151601f8416906123e8565b90555f8080613216565b919360206001819287870151815501950192016131fe565b610566565b906132639161318a565b565b6132a5906132a081613298429161328961327d6101d2565b9384926020840161307f565b6020820181038252038261057a565b916004611071565b613259565b565b5f90565b90565b90565b6132c56132c06132ca926132ab565b611e75565b6132ae565b90565b6132f67ff0c57e16840df040f15088dc2f81fe391c3923bec73e23a9662efc9c229c6a006132b1565b90565b6133016132a7565b5061330a6132cd565b9056fea2646970667358221220282643295076b2be389a2ae9944fe9bac33d82691b444ec829eb794d8451afa264736f6c634300081c0033",
    "linkReferences": {}
  },
  "methodIdentifiers": {
    "GAME_DESCRIPTION()": "f082f17a",
    "GAME_ID()": "fdcdb06b",
    "GAME_IMAGE()": "0793aa53",
    "GAME_LINK()": "d113f6f6",
    "GAME_NAME()": "5aed7802",
    "GAME_TYPE()": "dbbf2c47",
    "GAME_UPDATE_APPROVAL_DURATION()": "aee32391",
    "MAX_PLAYERS()": "4411b3eb",
    "MIN_PLAYERS()": "85f07bbe",
    "acceptInvitation(uint256)": "464c5b6c",
    "addUserToGroups(uint256,address)": "e6df74b9",
    "betId()": "27bce91b",
    "bets(uint256)": "22af00fa",
    "cancelBet(uint256)": "357401f5",
    "createBet((uint256,(string,uint256)[],uint8,string,string,string,string,address,string,uint8,string,string,bool))": "bb092292",
    "gameIpfs()": "a769c0fe",
    "getBet(uint256)": "061e494f",
    "getGroups(uint256)": "42c3196e",
    "getResult(uint256)": "995e4339",
    "getUserInGroups(uint256,address)": "f157182f",
    "groups(uint256,uint256)": "4ae855cf",
    "initialize()": "8129fc1c",
    "invitedUsers(uint256,uint256)": "c0eb83c5",
    "removeUserFromGroups(uint256,address)": "d9a19059",
    "requestId(uint256)": "815ff1ac",
    "resolveBet(uint256)": "4c36c36e",
    "userInGroups(uint256,address)": "3f290096"
  },
  "id": 24
}