{
  "abi": [
    {
      "type": "constructor",
      "inputs": [],
      "stateMutability": "nonpayable"
    },
    {
      "type": "function",
      "name": "GAME_DELETE_WARNING_TIME",
      "inputs": [],
      "outputs": [
        {
          "name": "",
          "type": "uint256",
          "internalType": "uint256"
        }
      ],
      "stateMutability": "view"
    },
    {
      "type": "function",
      "name": "GAME_ENTRY_FEE",
      "inputs": [],
      "outputs": [
        {
          "name": "",
          "type": "uint256",
          "internalType": "uint256"
        }
      ],
      "stateMutability": "view"
    },
    {
      "type": "function",
      "name": "MAX_GAME_STAKED_AMOUNT",
      "inputs": [],
      "outputs": [
        {
          "name": "",
          "type": "uint256",
          "internalType": "uint256"
        }
      ],
      "stateMutability": "view"
    },
    {
      "type": "function",
      "name": "MAX_PLAYERS",
      "inputs": [],
      "outputs": [
        {
          "name": "",
          "type": "uint256",
          "internalType": "uint256"
        }
      ],
      "stateMutability": "view"
    },
    {
      "type": "function",
      "name": "MIN_GAME_STAKED_AMOUNT",
      "inputs": [],
      "outputs": [
        {
          "name": "",
          "type": "uint256",
          "internalType": "uint256"
        }
      ],
      "stateMutability": "view"
    },
    {
      "type": "function",
      "name": "RESULT_DELAY_DURATION",
      "inputs": [],
      "outputs": [
        {
          "name": "",
          "type": "uint256",
          "internalType": "uint256"
        }
      ],
      "stateMutability": "view"
    },
    {
      "type": "function",
      "name": "addGame",
      "inputs": [
        {
          "name": "game",
          "type": "tuple",
          "internalType": "struct HubStruct.GameStruct",
          "components": [
            {
              "name": "id",
              "type": "uint256",
              "internalType": "uint256"
            },
            {
              "name": "rules",
              "type": "tuple",
              "internalType": "struct HubStruct.GameRules",
              "components": [
                {
                  "name": "maxPlayers",
                  "type": "uint256",
                  "internalType": "uint256"
                },
                {
                  "name": "entryFee",
                  "type": "uint256",
                  "internalType": "uint256"
                },
                {
                  "name": "duration",
                  "type": "uint256",
                  "internalType": "uint256"
                }
              ]
            },
            {
              "name": "gameSourceAddress",
              "type": "address",
              "internalType": "address"
            },
            {
              "name": "status",
              "type": "uint8",
              "internalType": "enum HubStruct.GameStatus"
            },
            {
              "name": "gameType",
              "type": "string",
              "internalType": "string"
            },
            {
              "name": "gameName",
              "type": "string",
              "internalType": "string"
            },
            {
              "name": "gameDescription",
              "type": "string",
              "internalType": "string"
            },
            {
              "name": "gameImage",
              "type": "string",
              "internalType": "string"
            },
            {
              "name": "gameLink",
              "type": "string",
              "internalType": "string"
            },
            {
              "name": "createdAt",
              "type": "uint256",
              "internalType": "uint256"
            },
            {
              "name": "updatedAt",
              "type": "uint256",
              "internalType": "uint256"
            },
            {
              "name": "gameUpdateApprovalDuration",
              "type": "uint256",
              "internalType": "uint256"
            }
          ]
        }
      ],
      "outputs": [
        {
          "name": "",
          "type": "uint256",
          "internalType": "uint256"
        }
      ],
      "stateMutability": "nonpayable"
    },
    {
      "type": "function",
      "name": "allowListGame",
      "inputs": [
        {
          "name": "id",
          "type": "uint256",
          "internalType": "uint256"
        }
      ],
      "outputs": [],
      "stateMutability": "nonpayable"
    },
    {
      "type": "function",
      "name": "allowListOracle",
      "inputs": [
        {
          "name": "id",
          "type": "uint256",
          "internalType": "uint256"
        }
      ],
      "outputs": [],
      "stateMutability": "nonpayable"
    },
    {
      "type": "function",
      "name": "allowListedGames",
      "inputs": [
        {
          "name": "",
          "type": "uint256",
          "internalType": "uint256"
        }
      ],
      "outputs": [
        {
          "name": "",
          "type": "bool",
          "internalType": "bool"
        }
      ],
      "stateMutability": "view"
    },
    {
      "type": "function",
      "name": "allowListedOracles",
      "inputs": [
        {
          "name": "",
          "type": "uint256",
          "internalType": "uint256"
        }
      ],
      "outputs": [
        {
          "name": "",
          "type": "bool",
          "internalType": "bool"
        }
      ],
      "stateMutability": "view"
    },
    {
      "type": "function",
      "name": "banGame",
      "inputs": [
        {
          "name": "id",
          "type": "uint256",
          "internalType": "uint256"
        }
      ],
      "outputs": [],
      "stateMutability": "nonpayable"
    },
    {
      "type": "function",
      "name": "bannedGames",
      "inputs": [
        {
          "name": "",
          "type": "uint256",
          "internalType": "uint256"
        }
      ],
      "outputs": [
        {
          "name": "",
          "type": "bool",
          "internalType": "bool"
        }
      ],
      "stateMutability": "view"
    },
    {
      "type": "function",
      "name": "changeGameStatus",
      "inputs": [
        {
          "name": "id",
          "type": "uint256",
          "internalType": "uint256"
        },
        {
          "name": "status",
          "type": "uint8",
          "internalType": "enum HubStruct.GameStatus"
        }
      ],
      "outputs": [],
      "stateMutability": "nonpayable"
    },
    {
      "type": "function",
      "name": "deleteGame",
      "inputs": [
        {
          "name": "id",
          "type": "uint256",
          "internalType": "uint256"
        }
      ],
      "outputs": [],
      "stateMutability": "nonpayable"
    },
    {
      "type": "function",
      "name": "gameId",
      "inputs": [],
      "outputs": [
        {
          "name": "",
          "type": "uint256",
          "internalType": "uint256"
        }
      ],
      "stateMutability": "view"
    },
    {
      "type": "function",
      "name": "games",
      "inputs": [
        {
          "name": "",
          "type": "uint256",
          "internalType": "uint256"
        }
      ],
      "outputs": [
        {
          "name": "id",
          "type": "uint256",
          "internalType": "uint256"
        },
        {
          "name": "rules",
          "type": "tuple",
          "internalType": "struct HubStruct.GameRules",
          "components": [
            {
              "name": "maxPlayers",
              "type": "uint256",
              "internalType": "uint256"
            },
            {
              "name": "entryFee",
              "type": "uint256",
              "internalType": "uint256"
            },
            {
              "name": "duration",
              "type": "uint256",
              "internalType": "uint256"
            }
          ]
        },
        {
          "name": "gameSourceAddress",
          "type": "address",
          "internalType": "address"
        },
        {
          "name": "status",
          "type": "uint8",
          "internalType": "enum HubStruct.GameStatus"
        },
        {
          "name": "gameType",
          "type": "string",
          "internalType": "string"
        },
        {
          "name": "gameName",
          "type": "string",
          "internalType": "string"
        },
        {
          "name": "gameDescription",
          "type": "string",
          "internalType": "string"
        },
        {
          "name": "gameImage",
          "type": "string",
          "internalType": "string"
        },
        {
          "name": "gameLink",
          "type": "string",
          "internalType": "string"
        },
        {
          "name": "createdAt",
          "type": "uint256",
          "internalType": "uint256"
        },
        {
          "name": "updatedAt",
          "type": "uint256",
          "internalType": "uint256"
        },
        {
          "name": "gameUpdateApprovalDuration",
          "type": "uint256",
          "internalType": "uint256"
        }
      ],
      "stateMutability": "view"
    },
    {
      "type": "function",
      "name": "getGame",
      "inputs": [
        {
          "name": "id",
          "type": "uint256",
          "internalType": "uint256"
        }
      ],
      "outputs": [
        {
          "name": "",
          "type": "tuple",
          "internalType": "struct HubStruct.GameStruct",
          "components": [
            {
              "name": "id",
              "type": "uint256",
              "internalType": "uint256"
            },
            {
              "name": "rules",
              "type": "tuple",
              "internalType": "struct HubStruct.GameRules",
              "components": [
                {
                  "name": "maxPlayers",
                  "type": "uint256",
                  "internalType": "uint256"
                },
                {
                  "name": "entryFee",
                  "type": "uint256",
                  "internalType": "uint256"
                },
                {
                  "name": "duration",
                  "type": "uint256",
                  "internalType": "uint256"
                }
              ]
            },
            {
              "name": "gameSourceAddress",
              "type": "address",
              "internalType": "address"
            },
            {
              "name": "status",
              "type": "uint8",
              "internalType": "enum HubStruct.GameStatus"
            },
            {
              "name": "gameType",
              "type": "string",
              "internalType": "string"
            },
            {
              "name": "gameName",
              "type": "string",
              "internalType": "string"
            },
            {
              "name": "gameDescription",
              "type": "string",
              "internalType": "string"
            },
            {
              "name": "gameImage",
              "type": "string",
              "internalType": "string"
            },
            {
              "name": "gameLink",
              "type": "string",
              "internalType": "string"
            },
            {
              "name": "createdAt",
              "type": "uint256",
              "internalType": "uint256"
            },
            {
              "name": "updatedAt",
              "type": "uint256",
              "internalType": "uint256"
            },
            {
              "name": "gameUpdateApprovalDuration",
              "type": "uint256",
              "internalType": "uint256"
            }
          ]
        }
      ],
      "stateMutability": "view"
    },
    {
      "type": "function",
      "name": "owner",
      "inputs": [],
      "outputs": [
        {
          "name": "",
          "type": "address",
          "internalType": "address"
        }
      ],
      "stateMutability": "view"
    },
    {
      "type": "function",
      "name": "pauseGame",
      "inputs": [
        {
          "name": "id",
          "type": "uint256",
          "internalType": "uint256"
        }
      ],
      "outputs": [],
      "stateMutability": "nonpayable"
    },
    {
      "type": "function",
      "name": "renounceOwnership",
      "inputs": [],
      "outputs": [],
      "stateMutability": "nonpayable"
    },
    {
      "type": "function",
      "name": "transferOwnership",
      "inputs": [
        {
          "name": "newOwner",
          "type": "address",
          "internalType": "address"
        }
      ],
      "outputs": [],
      "stateMutability": "nonpayable"
    },
    {
      "type": "function",
      "name": "unpauseGame",
      "inputs": [
        {
          "name": "id",
          "type": "uint256",
          "internalType": "uint256"
        }
      ],
      "outputs": [],
      "stateMutability": "nonpayable"
    },
    {
      "type": "function",
      "name": "updateGame",
      "inputs": [
        {
          "name": "id",
          "type": "uint256",
          "internalType": "uint256"
        },
        {
          "name": "game",
          "type": "tuple",
          "internalType": "struct HubStruct.GameStruct",
          "components": [
            {
              "name": "id",
              "type": "uint256",
              "internalType": "uint256"
            },
            {
              "name": "rules",
              "type": "tuple",
              "internalType": "struct HubStruct.GameRules",
              "components": [
                {
                  "name": "maxPlayers",
                  "type": "uint256",
                  "internalType": "uint256"
                },
                {
                  "name": "entryFee",
                  "type": "uint256",
                  "internalType": "uint256"
                },
                {
                  "name": "duration",
                  "type": "uint256",
                  "internalType": "uint256"
                }
              ]
            },
            {
              "name": "gameSourceAddress",
              "type": "address",
              "internalType": "address"
            },
            {
              "name": "status",
              "type": "uint8",
              "internalType": "enum HubStruct.GameStatus"
            },
            {
              "name": "gameType",
              "type": "string",
              "internalType": "string"
            },
            {
              "name": "gameName",
              "type": "string",
              "internalType": "string"
            },
            {
              "name": "gameDescription",
              "type": "string",
              "internalType": "string"
            },
            {
              "name": "gameImage",
              "type": "string",
              "internalType": "string"
            },
            {
              "name": "gameLink",
              "type": "string",
              "internalType": "string"
            },
            {
              "name": "createdAt",
              "type": "uint256",
              "internalType": "uint256"
            },
            {
              "name": "updatedAt",
              "type": "uint256",
              "internalType": "uint256"
            },
            {
              "name": "gameUpdateApprovalDuration",
              "type": "uint256",
              "internalType": "uint256"
            }
          ]
        }
      ],
      "outputs": [],
      "stateMutability": "nonpayable"
    },
    {
      "type": "event",
      "name": "GameAllowed",
      "inputs": [
        {
          "name": "id",
          "type": "uint256",
          "indexed": false,
          "internalType": "uint256"
        }
      ],
      "anonymous": false
    },
    {
      "type": "event",
      "name": "GameBanned",
      "inputs": [
        {
          "name": "id",
          "type": "uint256",
          "indexed": false,
          "internalType": "uint256"
        }
      ],
      "anonymous": false
    },
    {
      "type": "event",
      "name": "GameCreated",
      "inputs": [
        {
          "name": "id",
          "type": "uint256",
          "indexed": false,
          "internalType": "uint256"
        },
        {
          "name": "game",
          "type": "tuple",
          "indexed": false,
          "internalType": "struct HubStruct.GameStruct",
          "components": [
            {
              "name": "id",
              "type": "uint256",
              "internalType": "uint256"
            },
            {
              "name": "rules",
              "type": "tuple",
              "internalType": "struct HubStruct.GameRules",
              "components": [
                {
                  "name": "maxPlayers",
                  "type": "uint256",
                  "internalType": "uint256"
                },
                {
                  "name": "entryFee",
                  "type": "uint256",
                  "internalType": "uint256"
                },
                {
                  "name": "duration",
                  "type": "uint256",
                  "internalType": "uint256"
                }
              ]
            },
            {
              "name": "gameSourceAddress",
              "type": "address",
              "internalType": "address"
            },
            {
              "name": "status",
              "type": "uint8",
              "internalType": "enum HubStruct.GameStatus"
            },
            {
              "name": "gameType",
              "type": "string",
              "internalType": "string"
            },
            {
              "name": "gameName",
              "type": "string",
              "internalType": "string"
            },
            {
              "name": "gameDescription",
              "type": "string",
              "internalType": "string"
            },
            {
              "name": "gameImage",
              "type": "string",
              "internalType": "string"
            },
            {
              "name": "gameLink",
              "type": "string",
              "internalType": "string"
            },
            {
              "name": "createdAt",
              "type": "uint256",
              "internalType": "uint256"
            },
            {
              "name": "updatedAt",
              "type": "uint256",
              "internalType": "uint256"
            },
            {
              "name": "gameUpdateApprovalDuration",
              "type": "uint256",
              "internalType": "uint256"
            }
          ]
        }
      ],
      "anonymous": false
    },
    {
      "type": "event",
      "name": "GameDeleted",
      "inputs": [
        {
          "name": "id",
          "type": "uint256",
          "indexed": false,
          "internalType": "uint256"
        }
      ],
      "anonymous": false
    },
    {
      "type": "event",
      "name": "GamePaused",
      "inputs": [
        {
          "name": "id",
          "type": "uint256",
          "indexed": false,
          "internalType": "uint256"
        }
      ],
      "anonymous": false
    },
    {
      "type": "event",
      "name": "GameUnpaused",
      "inputs": [
        {
          "name": "id",
          "type": "uint256",
          "indexed": false,
          "internalType": "uint256"
        }
      ],
      "anonymous": false
    },
    {
      "type": "event",
      "name": "GameUpdated",
      "inputs": [
        {
          "name": "id",
          "type": "uint256",
          "indexed": false,
          "internalType": "uint256"
        },
        {
          "name": "game",
          "type": "tuple",
          "indexed": false,
          "internalType": "struct HubStruct.GameStruct",
          "components": [
            {
              "name": "id",
              "type": "uint256",
              "internalType": "uint256"
            },
            {
              "name": "rules",
              "type": "tuple",
              "internalType": "struct HubStruct.GameRules",
              "components": [
                {
                  "name": "maxPlayers",
                  "type": "uint256",
                  "internalType": "uint256"
                },
                {
                  "name": "entryFee",
                  "type": "uint256",
                  "internalType": "uint256"
                },
                {
                  "name": "duration",
                  "type": "uint256",
                  "internalType": "uint256"
                }
              ]
            },
            {
              "name": "gameSourceAddress",
              "type": "address",
              "internalType": "address"
            },
            {
              "name": "status",
              "type": "uint8",
              "internalType": "enum HubStruct.GameStatus"
            },
            {
              "name": "gameType",
              "type": "string",
              "internalType": "string"
            },
            {
              "name": "gameName",
              "type": "string",
              "internalType": "string"
            },
            {
              "name": "gameDescription",
              "type": "string",
              "internalType": "string"
            },
            {
              "name": "gameImage",
              "type": "string",
              "internalType": "string"
            },
            {
              "name": "gameLink",
              "type": "string",
              "internalType": "string"
            },
            {
              "name": "createdAt",
              "type": "uint256",
              "internalType": "uint256"
            },
            {
              "name": "updatedAt",
              "type": "uint256",
              "internalType": "uint256"
            },
            {
              "name": "gameUpdateApprovalDuration",
              "type": "uint256",
              "internalType": "uint256"
            }
          ]
        }
      ],
      "anonymous": false
    },
    {
      "type": "event",
      "name": "OracleAllowed",
      "inputs": [
        {
          "name": "id",
          "type": "uint256",
          "indexed": false,
          "internalType": "uint256"
        }
      ],
      "anonymous": false
    },
    {
      "type": "event",
      "name": "OwnershipTransferred",
      "inputs": [
        {
          "name": "previousOwner",
          "type": "address",
          "indexed": true,
          "internalType": "address"
        },
        {
          "name": "newOwner",
          "type": "address",
          "indexed": true,
          "internalType": "address"
        }
      ],
      "anonymous": false
    },
    {
      "type": "error",
      "name": "OwnableInvalidOwner",
      "inputs": [
        {
          "name": "owner",
          "type": "address",
          "internalType": "address"
        }
      ]
    },
    {
      "type": "error",
      "name": "OwnableUnauthorizedAccount",
      "inputs": [
        {
          "name": "account",
          "type": "address",
          "internalType": "address"
        }
      ]
    }
  ],
  "bytecode": {
    "object": "0x60806040523461002757610011610036565b61001961002c565b612504610207823961250490f35b610032565b60405190565b5f80fd5b61003f336100a8565b565b90565b60018060a01b031690565b90565b61006661006161006b92610041565b61004f565b610044565b90565b61007790610052565b90565b61008390610044565b90565b61008f9061007a565b9052565b91906100a6905f60208501940190610086565b565b806100c36100bd6100b85f61006e565b61007a565b9161007a565b146100d3576100d1906101a7565b565b6100f66100df5f61006e565b5f918291631e4fbdf760e01b835260048301610093565b0390fd5b5f1c90565b60018060a01b031690565b61011661011b916100fa565b6100ff565b90565b610128905461010a565b90565b5f1b90565b9061014160018060a01b039161012b565b9181191691161790565b61015f61015a61016492610044565b61004f565b610044565b90565b6101709061014b565b90565b61017c90610167565b90565b90565b9061019761019261019e92610173565b61017f565b8254610130565b9055565b5f0190565b6101b05f61011e565b6101ba825f610182565b906101ee6101e87f8be0079c531659141344cd1fd0a4f28419497f9722a3daafe3b4186f6b6457e093610173565b91610173565b916101f761002c565b80610201816101a2565b0390a356fe60806040526004361015610013575b611343565b61001d5f3561019c565b8063046d71a614610197578063109921b114610192578063117a5b901461018d5780631214e31e14610188578063248a55a11461018357806331e074431461017e5780634411b3eb1461017957806359c51def14610174578063624595431461016f578063715018a61461016a5780637e19f430146101655780638247d6c114610160578063824c99661461015b5780638da5cb5b146101565780639dac36ca14610151578063a2f77bcc1461014c578063aaaa7b1f14610147578063b494519914610142578063bbc9773e1461013d578063d7c81b5514610138578063ded4458514610133578063f2fde38b1461012e578063f448b146146101295763f482028d0361000e5761130f565b6112ad565b611242565b6111ef565b6111a1565b611139565b611105565b61108b565b61103e565b610e7b565b610e46565b610dfc565b610db0565b610d7b565b610d0f565b610cdc565b610ca7565b610c3a565b610bce565b610b15565b610ae2565b610a98565b6105c2565b610544565b60e01c90565b60405190565b5f80fd5b5f80fd5b5f80fd5b5f80fd5b601f801991011690565b634e487b7160e01b5f52604160045260245ffd5b906101e0906101b8565b810190811067ffffffffffffffff8211176101fa57604052565b6101c2565b9061021261020b6101a2565b92836101d6565b565b5f80fd5b90565b61022481610218565b0361022b57565b5f80fd5b9050359061023c8261021b565b565b919060608382031261028a576102839061025860606101ff565b93610265825f830161022f565b5f860152610276826020830161022f565b602086015260400161022f565b6040830152565b6101b4565b60018060a01b031690565b6102a39061028f565b90565b6102af8161029a565b036102b657565b5f80fd5b905035906102c7826102a6565b565b600411156102d357565b5f80fd5b905035906102e4826102c9565b565b5f80fd5b5f80fd5b67ffffffffffffffff811161030c576103086020916101b8565b0190565b6101c2565b90825f939282370152565b9092919261033161032c826102ee565b6101ff565b9381855260208501908284011161034d5761034b92610311565b565b6102ea565b9080601f830112156103705781602061036d9335910161031c565b90565b6102e6565b9190916101c0818403126104e85761038e6101806101ff565b9261039b815f840161022f565b5f8501526103ac816020840161023e565b60208501526103be81608084016102ba565b60408501526103d08160a084016102d7565b606085015260c082013567ffffffffffffffff81116104e357816103f5918401610352565b608085015260e082013567ffffffffffffffff81116104de578161041a918401610352565b60a085015261010082013567ffffffffffffffff81116104d95781610440918401610352565b60c085015261012082013567ffffffffffffffff81116104d45781610466918401610352565b60e08501526101408201359167ffffffffffffffff83116104cf57610490826104c7948301610352565b6101008601526104a482610160830161022f565b6101208601526104b882610180830161022f565b6101408601526101a00161022f565b610160830152565b610214565b610214565b610214565b610214565b610214565b6101b4565b9060208282031261051d575f82013567ffffffffffffffff8111610518576105159201610375565b90565b6101b0565b6101ac565b61052b90610218565b9052565b9190610542905f60208501940190610522565b565b346105745761057061055f61055a3660046104ed565b61190e565b6105676101a2565b9182918261052f565b0390f35b6101a8565b5f91031261058357565b6101ac565b90565b90565b6105a261059d6105a792610588565b61058b565b610218565b90565b6105b4606461058e565b90565b6105bf6105aa565b90565b346105f2576105d2366004610579565b6105ee6105dd6105b7565b6105e56101a2565b9182918261052f565b0390f35b6101a8565b906020828203126106105761060d915f0161022f565b90565b6101ac565b61062961062461062e92610218565b61058b565b610218565b90565b9061063b90610615565b5f5260205260405f2090565b5f1c90565b90565b61065b61066091610647565b61064c565b90565b61066d905461064f565b90565b9061067a90610218565b9052565b61068860606101ff565b90565b906106da6106d1600261069c61067e565b946106b36106ab5f8301610663565b5f8801610670565b6106cb6106c260018301610663565b60208801610670565b01610663565b60408401610670565b565b60018060a01b031690565b6106f36106f891610647565b6106dc565b90565b61070590546106e7565b90565b60a01c90565b60ff1690565b61072061072591610708565b61070e565b90565b6107329054610714565b90565b634e487b7160e01b5f52602260045260245ffd5b9060016002830492168015610769575b602083101461076457565b610735565b91607f1691610759565b60209181520190565b5f5260205f2090565b905f929180549061079f61079883610749565b8094610773565b916001811690815f146107f657506001146107ba575b505050565b6107c7919293945061077c565b915f925b8184106107de57505001905f80806107b5565b600181602092959395548486015201910192906107cb565b92949550505060ff19168252151560200201905f80806107b5565b9061081b91610785565b90565b9061083e6108379261082e6101a2565b93848092610811565b03836101d6565b565b61084b906001610631565b906108575f8301610663565b916108646001820161068b565b91610871600483016106fb565b9161087e60048201610728565b9161088b6005830161081e565b916108986006820161081e565b916108a56007830161081e565b916108b26008820161081e565b916108bf6009830161081e565b916108cc600a8201610663565b916108e5600c6108de600b8501610663565b9301610663565b90565b6108f190610218565b9052565b906040806109299361090d5f8201515f8601906108e8565b61091f602082015160208601906108e8565b01519101906108e8565b565b6109349061029a565b9052565b634e487b7160e01b5f52602160045260245ffd5b6004111561095657565b610938565b906109658261094c565b565b6109709061095b565b90565b61097c90610967565b9052565b5190565b60209181520190565b90825f9392825e0152565b6109b76109c06020936109c5936109ae81610980565b93848093610984565b9586910161098d565b6101b8565b0190565b9790610a8f97610a4b9b9e9d9b610a969d98610a3c610a5a94610a849a6101a09f998f90610a789c610a25610a2f92610a1b610a699e610a116101c08801995f890190610522565b60208701906108f5565b608085019061092b565b60a0830190610973565b60c0818403910152610998565b908c60e0818403910152610998565b908a82036101008c0152610998565b908882036101208a0152610998565b90868203610140880152610998565b98610160850190610522565b610180830190610522565b0190610522565b565b34610ad857610ad4610ab3610aae3660046105f7565b610840565b98610acb9c9a9c9891989792979693969594956101a2565b9c8d9c8d6109c9565b0390f35b6101a8565b5f0190565b34610b1057610afa610af53660046105f7565b611989565b610b026101a2565b80610b0c81610add565b0390f35b6101a8565b34610b4357610b2d610b283660046105f7565b6119fb565b610b356101a2565b80610b3f81610add565b0390f35b6101a8565b90610b5290610615565b5f5260205260405f2090565b1c90565b60ff1690565b610b78906008610b7d9302610b5e565b610b62565b90565b90610b8b9154610b68565b90565b610ba490610b9f6003915f92610b48565b610b80565b90565b151590565b610bb590610ba7565b9052565b9190610bcc905f60208501940190610bac565b565b34610bfe57610bfa610be9610be43660046105f7565b610b8e565b610bf16101a2565b91829182610bb9565b0390f35b6101a8565b90565b610c1a610c15610c1f92610c03565b61058b565b610218565b90565b610c2c600a610c06565b90565b610c37610c22565b90565b34610c6a57610c4a366004610579565b610c66610c55610c2f565b610c5d6101a2565b9182918261052f565b0390f35b6101a8565b90565b610c86610c81610c8b92610c6f565b61058b565b610218565b90565b610c99610258610c72565b90565b610ca4610c8e565b90565b34610cd757610cb7366004610579565b610cd3610cc2610c9c565b610cca6101a2565b9182918261052f565b0390f35b6101a8565b34610d0a57610cf4610cef3660046105f7565b611cd4565b610cfc6101a2565b80610d0681610add565b0390f35b6101a8565b34610d3d57610d1f366004610579565b610d27611d2f565b610d2f6101a2565b80610d3981610add565b0390f35b6101a8565b90565b610d59610d54610d5e92610d42565b61058b565b610218565b90565b610d6d62093a80610d45565b90565b610d78610d61565b90565b34610dab57610d8b366004610579565b610da7610d96610d70565b610d9e6101a2565b9182918261052f565b0390f35b6101a8565b34610dde57610dc8610dc33660046105f7565b611d9d565b610dd06101a2565b80610dda81610add565b0390f35b6101a8565b610df990610df46004915f92610b48565b610b80565b90565b34610e2c57610e28610e17610e123660046105f7565b610de3565b610e1f6101a2565b91829182610bb9565b0390f35b6101a8565b9190610e44905f6020850194019061092b565b565b34610e7657610e56366004610579565b610e72610e61611dac565b610e696101a2565b91829182610e31565b0390f35b6101a8565b34610ea957610e93610e8e3660046105f7565b611e25565b610e9b6101a2565b80610ea581610add565b0390f35b6101a8565b90604080610ee293610ec65f8201515f8601906108e8565b610ed8602082015160208601906108e8565b01519101906108e8565b565b610eed9061029a565b9052565b610efa90610967565b9052565b610f1d610f26602093610f2b93610f1481610980565b93848093610773565b9586910161098d565b6101b8565b0190565b90611023906101a0610160610ff2610fde610fcb610fb8610fa66101c08801610f5e5f8c01515f8b01906108e8565b610f7060208c015160208b0190610eae565b610f8260408c015160808b0190610ee4565b610f9460608c015160a08b0190610ef1565b60808b015189820360c08b0152610efe565b60a08a015188820360e08a0152610efe565b60c0890151878203610100890152610efe565b60e0880151868203610120880152610efe565b610100870151858203610140870152610efe565b94611005610120820151838601906108e8565b6110196101408201516101808601906108e8565b01519101906108e8565b90565b61103b9160208201915f818403910152610f2f565b90565b3461106e5761106a6110596110543660046105f7565b612090565b6110616101a2565b91829182611026565b0390f35b6101a8565b61107d606461058e565b90565b611088611073565b90565b346110bb5761109b366004610579565b6110b76110a6611080565b6110ae6101a2565b9182918261052f565b0390f35b6101a8565b919091604081840312611100576110d9835f830161022f565b92602082013567ffffffffffffffff81116110fb576110f89201610375565b90565b6101b0565b6101ac565b346111345761111e6111183660046110c0565b90612114565b6111266101a2565b8061113081610add565b0390f35b6101a8565b346111675761115161114c3660046105f7565b612187565b6111596101a2565b8061116381610add565b0390f35b6101a8565b61117c9060086111819302610b5e565b61064c565b90565b9061118f915461116c565b90565b61119e60055f90611184565b90565b346111d1576111b1366004610579565b6111cd6111bc611192565b6111c46101a2565b9182918261052f565b0390f35b6101a8565b6111ec906111e76002915f92610b48565b610b80565b90565b3461121f5761121b61120a6112053660046105f7565b6111d6565b6112126101a2565b91829182610bb9565b0390f35b6101a8565b9060208282031261123d5761123a915f016102ba565b90565b6101ac565b346112705761125a611255366004611224565b6121f7565b6112626101a2565b8061126c81610add565b0390f35b6101a8565b90565b61128c61128761129192611275565b61058b565b610218565b90565b61129f6103e8611278565b90565b6112aa611294565b90565b346112dd576112bd366004610579565b6112d96112c86112a2565b6112d06101a2565b9182918261052f565b0390f35b6101a8565b919060408382031261130a57806112fe611307925f860161022f565b936020016102d7565b90565b6101ac565b3461133e576113286113223660046112e2565b90612408565b6113306101a2565b8061133a81610add565b0390f35b6101a8565b5f80fd5b5f90565b9061135d91611358612414565b611859565b90565b634e487b7160e01b5f52601160045260245ffd5b61137d90610218565b5f19811461138b5760010190565b611360565b5f1b90565b906113a15f1991611390565b9181191691161790565b90565b906113c36113be6113ca92610615565b6113ab565b8254611395565b9055565b6113d89051610218565b90565b5190565b9061142360406002611429946114025f82016113fc5f88016113ce565b906113ae565b61141b60018201611415602088016113ce565b906113ae565b0192016113ce565b906113ae565b565b90611435916113df565b565b611441905161029a565b90565b9061145560018060a01b0391611390565b9181191691161790565b61147361146e6114789261028f565b61058b565b61028f565b90565b6114849061145f565b90565b6114909061147b565b90565b90565b906114ab6114a66114b292611487565b611493565b8254611444565b9055565b6114c0905161095b565b90565b60a01b90565b906114d860ff60a01b916114c3565b9181191691161790565b6114eb9061095b565b90565b90565b9061150661150161150d926114e2565b6114ee565b82546114c9565b9055565b5190565b601f602091010490565b1b90565b9190600861153e9102916115385f198461151f565b9261151f565b9181191691161790565b919061155e61155961156693610615565b6113ab565b908354611523565b9055565b61157c91611576611347565b91611548565b565b5b81811061158a575050565b806115975f60019361156a565b0161157f565b9190601f81116115ad575b505050565b6115b96115de9361077c565b9060206115c584611515565b830193106115e6575b6115d790611515565b019061157e565b5f80806115a8565b91506115d7819290506115ce565b90611604905f1990600802610b5e565b191690565b81611613916115f4565b906002021790565b9061162581610980565b9067ffffffffffffffff82116116e557611649826116438554610749565b8561159d565b602090601f831160011461167d5791809161166c935f92611671575b5050611609565b90555b565b90915001515f80611665565b601f1983169161168c8561077c565b925f5b8181106116cd575091600293918560019694106116b3575b5050500201905561166f565b6116c3910151601f8416906115f4565b90555f80806116a7565b9193602060018192878701518155019501920161168f565b6101c2565b906116f49161161b565b565b9061181f610160600c6118259461171a5f82016117145f88016113ce565b906113ae565b6117336001820161172d602088016113db565b9061142b565b61174c6004820161174660408801611437565b90611496565b6117656004820161175f606088016114b6565b906114f1565b61177e6005820161177860808801611511565b906116ea565b6117976006820161179160a08801611511565b906116ea565b6117b0600782016117aa60c08801611511565b906116ea565b6117c9600882016117c360e08801611511565b906116ea565b6117e3600982016117dd6101008801611511565b906116ea565b6117fd600a82016117f761012088016113ce565b906113ae565b611817600b820161181161014088016113ce565b906113ae565b0192016113ce565b906113ae565b565b90611831916116f6565b565b916118569261184960408201935f830190610522565b6020818403910152610f2f565b90565b5061187661186f61186a6005610663565b611374565b60056113ae565b6118948161188f60016118896005610663565b90610631565b611827565b6118bd6118a16005610663565b5f6118b760016118b16005610663565b90610631565b016113ae565b6118c76005610663565b907f25634d5045a5a126dde55d28b2f7520e4265059c2b66d12eb8837484e6b8f6b1916118fe6118f56101a2565b92839283611833565b0390a161190b6005610663565b90565b61191f9061191a611347565b61134b565b90565b6119339061192e612414565b611935565b565b61194e6002600461194860018590610631565b016114f1565b6119847f60f26477008aa4c656f8e1e30cdc74fa0be1c07ff15eead918e9614cdca8d1669161197b6101a2565b9182918261052f565b0390a1565b61199290611922565b565b6119a5906119a0612414565b6119a7565b565b6119c0600360046119ba60018590610631565b016114f1565b6119f67f5ef6221cc1c069a8c723210c08d526c7ca88540ee8d66470cf01844efaae0b94916119ed6101a2565b9182918261052f565b0390a1565b611a0490611994565b565b611a1790611a12612414565b611c05565b565b5f7f47616d6520697320616374697665000000000000000000000000000000000000910152565b611a4d600e602092610984565b611a5681611a19565b0190565b611a6f9060208101905f818303910152611a40565b90565b15611a7957565b611a816101a2565b62461bcd60e51b815280611a9760048201611a5a565b0390fd5b611aa7611aac91610647565b610b62565b90565b611ab99054611a9b565b90565b5f7f47616d652069732062616e6e6564000000000000000000000000000000000000910152565b611af0600e602092610984565b611af981611abc565b0190565b611b129060208101905f818303910152611ae3565b90565b15611b1c57565b611b246101a2565b62461bcd60e51b815280611b3a60048201611afd565b0390fd5b5f7f47616d6520697320616c726561647920616c6c6f776564000000000000000000910152565b611b726017602092610984565b611b7b81611b3e565b0190565b611b949060208101905f818303910152611b65565b90565b15611b9e57565b611ba66101a2565b62461bcd60e51b815280611bbc60048201611b7f565b0390fd5b90611bcc60ff91611390565b9181191691161790565b611bdf90610ba7565b90565b90565b90611bfa611bf5611c0192611bd6565b611be2565b8254611bc0565b9055565b611c39611c1f6004611c1960018590610631565b01610728565b611c32611c2c600161095b565b9161095b565b1415611a72565b611c5e611c59611c53611c4e60038590610b48565b611aaf565b15610ba7565b611b15565b611c83611c7e611c78611c7360028590610b48565b611aaf565b15610ba7565b611b97565b611c996001611c9460028490610b48565b611be5565b611ccf7fb293cc6f3f774b0f962397059336b9fa9199e87b58506e4965fc0df86dc73bda91611cc66101a2565b9182918261052f565b0390a1565b611cdd90611a06565b565b611ce7612414565b611cef611d1c565b565b90565b611d08611d03611d0d92611cf1565b61058b565b61028f565b90565b611d1990611cf4565b90565b611d2d611d285f611d10565b612462565b565b611d37611cdf565b565b611d4a90611d45612414565b611d4c565b565b611d626001611d5d60038490610b48565b611be5565b611d987f46dc4bd48b2d1c33f681b9a3dbdfa8bb7ee33ee4f2c97a35e3f841e67f497d2091611d8f6101a2565b9182918261052f565b0390a1565b611da690611d39565b565b5f90565b611db4611da8565b50611dbe5f6106fb565b90565b611dd290611dcd612414565b611dd4565b565b611dea6001611de560048490610b48565b611be5565b611e207f2dabe990cbb4dbd3eaea669251ad7b40e3d1434ff058a94f7fd8a9792e60b86b91611e176101a2565b9182918261052f565b0390a1565b611e2e90611dc1565b565b611e3b6101806101ff565b90565b5f90565b611e4a61067e565b906020808084611e58611e3e565b815201611e63611e3e565b815201611e6e611e3e565b81525050565b611e7c611e42565b90565b5f90565b5f90565b606090565b611e94611e30565b90602080808080808080808080808d611eab611e3e565b815201611eb6611e74565b815201611ec1611e7f565b815201611ecc611e83565b815201611ed7611e87565b815201611ee2611e87565b815201611eed611e87565b815201611ef8611e87565b815201611f03611e87565b815201611f0e611e3e565b815201611f19611e3e565b815201611f24611e3e565b81525050565b611f32611e8c565b90565b52565b90611f429061029a565b9052565b90611f509061095b565b9052565b52565b90612082612078600c611f68611e30565b94611f7f611f775f8301610663565b5f8801610670565b611f97611f8e6001830161068b565b60208801611f35565b611faf611fa6600483016106fb565b60408801611f38565b611fc7611fbe60048301610728565b60608801611f46565b611fdf611fd66005830161081e565b60808801611f54565b611ff7611fee6006830161081e565b60a08801611f54565b61200f6120066007830161081e565b60c08801611f54565b61202761201e6008830161081e565b60e08801611f54565b6120406120366009830161081e565b6101008801611f54565b61205961204f600a8301610663565b6101208801610670565b612072612068600b8301610663565b6101408801610670565b01610663565b6101608401610670565b565b61208d90611f57565b90565b6120a76120ac9161209f611f2a565b506001610631565b612084565b90565b906120c1916120bc612414565b6120c3565b565b6120d8826120d360018490610631565b611827565b907f1cb7ed6bc18e6514942dd6b4f6f28603a5b8f669bda1c485336f65ad6fd6511f9161210f6121066101a2565b92839283611833565b0390a1565b9061211e916120af565b565b6121319061212c612414565b612133565b565b61214c6001600461214660018590610631565b016114f1565b6121827f2d22aac8dc12cee445f598ee201620e7940136b4e5eeb24c91b6a5d2ab8c0004916121796101a2565b9182918261052f565b0390a1565b61219090612120565b565b6121a39061219e612414565b6121a5565b565b806121c06121ba6121b55f611d10565b61029a565b9161029a565b146121d0576121ce90612462565b565b6121f36121dc5f611d10565b5f918291631e4fbdf760e01b835260048301610e31565b0390fd5b61220090612192565b565b906122149161220f612414565b6123a9565b565b90604061225b60026122639461223a6122315f83015461064f565b5f8701906108e8565b61225461224a600183015461064f565b60208701906108e8565b015461064f565b9101906108e8565b565b90806101a0612378600c61233a6123286123166123046122f3612380996122e26122d860048e6122ba6101c08601956122ac6122a35f85015461064f565b5f8301906108e8565b602060018401910190612216565b01546122d38d60806122cb846106e7565b910190610ee4565b610714565b60a08c0190610ef1565b60058c018a820360c08c0152610785565b60068b0189820360e08b0152610785565b60078a018882036101008a0152610785565b60088901878203610120890152610785565b60098801868203610140880152610785565b9561235661234b600a83015461064f565b6101608701906108e8565b612371612366600b83015461064f565b6101808701906108e8565b015461064f565b9101906108e8565b90565b916123a69261239960408201935f830190610522565b6020818403910152612265565b90565b906123c29060046123bc60018590610631565b016114f1565b6123cd816001610631565b7f1cb7ed6bc18e6514942dd6b4f6f28603a5b8f669bda1c485336f65ad6fd6511f916124036123fa6101a2565b92839283612383565b0390a1565b9061241291612202565b565b61241c611dac565b61243561242f61242a6124c1565b61029a565b9161029a565b0361243c57565b61245e6124476124c1565b5f91829163118cdaa760e01b835260048301610e31565b0390fd5b61246b5f6106fb565b612475825f611496565b906124a96124a37f8be0079c531659141344cd1fd0a4f28419497f9722a3daafe3b4186f6b6457e093611487565b91611487565b916124b26101a2565b806124bc81610add565b0390a3565b6124c9611da8565b50339056fea264697066735822122055deb29797606149c2670fe4b200ba031f4ea6d510364d32c634601e36d10d6a64736f6c634300081c0033",
    "linkReferences": {}
  },
  "methodIdentifiers": {
    "GAME_DELETE_WARNING_TIME()": "7e19f430",
    "GAME_ENTRY_FEE()": "109921b1",
    "MAX_GAME_STAKED_AMOUNT()": "f448b146",
    "MAX_PLAYERS()": "4411b3eb",
    "MIN_GAME_STAKED_AMOUNT()": "aaaa7b1f",
    "RESULT_DELAY_DURATION()": "59c51def",
    "addGame((uint256,(uint256,uint256,uint256),address,uint8,string,string,string,string,string,uint256,uint256,uint256))": "046d71a6",
    "allowListGame(uint256)": "62459543",
    "allowListOracle(uint256)": "9dac36ca",
    "allowListedGames(uint256)": "ded44585",
    "allowListedOracles(uint256)": "824c9966",
    "banGame(uint256)": "8247d6c1",
    "bannedGames(uint256)": "31e07443",
    "changeGameStatus(uint256,uint8)": "f482028d",
    "deleteGame(uint256)": "248a55a1",
    "gameId()": "d7c81b55",
    "games(uint256)": "117a5b90",
    "getGame(uint256)": "a2f77bcc",
    "owner()": "8da5cb5b",
    "pauseGame(uint256)": "1214e31e",
    "renounceOwnership()": "715018a6",
    "transferOwnership(address)": "f2fde38b",
    "unpauseGame(uint256)": "bbc9773e",
    "updateGame(uint256,(uint256,(uint256,uint256,uint256),address,uint8,string,string,string,string,string,uint256,uint256,uint256))": "b4945199"
  },
  "id": 23
}