{
  "abi": [
    {
      "type": "function",
      "name": "delegates",
      "inputs": [
        {
          "name": "",
          "type": "address",
          "internalType": "address"
        }
      ],
      "outputs": [
        {
          "name": "",
          "type": "address",
          "internalType": "address"
        }
      ],
      "stateMutability": "view"
    },
    {
      "type": "function",
      "name": "deleteProfile",
      "inputs": [],
      "outputs": [],
      "stateMutability": "nonpayable"
    },
    {
      "type": "function",
      "name": "getProfile",
      "inputs": [
        {
          "name": "user",
          "type": "address",
          "internalType": "address"
        }
      ],
      "outputs": [
        {
          "name": "",
          "type": "tuple",
          "internalType": "struct Registry.Profile",
          "components": [
            {
              "name": "user",
              "type": "address",
              "internalType": "address"
            },
            {
              "name": "name",
              "type": "string",
              "internalType": "string"
            },
            {
              "name": "username",
              "type": "string",
              "internalType": "string"
            },
            {
              "name": "description",
              "type": "string",
              "internalType": "string"
            },
            {
              "name": "image",
              "type": "string",
              "internalType": "string"
            },
            {
              "name": "createdAt",
              "type": "uint256",
              "internalType": "uint256"
            },
            {
              "name": "timestamp",
              "type": "uint256",
              "internalType": "uint256"
            }
          ]
        }
      ],
      "stateMutability": "view"
    },
    {
      "type": "function",
      "name": "initialize",
      "inputs": [],
      "outputs": [],
      "stateMutability": "nonpayable"
    },
    {
      "type": "function",
      "name": "profiles",
      "inputs": [
        {
          "name": "",
          "type": "address",
          "internalType": "address"
        }
      ],
      "outputs": [
        {
          "name": "user",
          "type": "address",
          "internalType": "address"
        },
        {
          "name": "name",
          "type": "string",
          "internalType": "string"
        },
        {
          "name": "username",
          "type": "string",
          "internalType": "string"
        },
        {
          "name": "description",
          "type": "string",
          "internalType": "string"
        },
        {
          "name": "image",
          "type": "string",
          "internalType": "string"
        },
        {
          "name": "createdAt",
          "type": "uint256",
          "internalType": "uint256"
        },
        {
          "name": "timestamp",
          "type": "uint256",
          "internalType": "uint256"
        }
      ],
      "stateMutability": "view"
    },
    {
      "type": "function",
      "name": "register",
      "inputs": [
        {
          "name": "profile",
          "type": "tuple",
          "internalType": "struct Registry.Profile",
          "components": [
            {
              "name": "user",
              "type": "address",
              "internalType": "address"
            },
            {
              "name": "name",
              "type": "string",
              "internalType": "string"
            },
            {
              "name": "username",
              "type": "string",
              "internalType": "string"
            },
            {
              "name": "description",
              "type": "string",
              "internalType": "string"
            },
            {
              "name": "image",
              "type": "string",
              "internalType": "string"
            },
            {
              "name": "createdAt",
              "type": "uint256",
              "internalType": "uint256"
            },
            {
              "name": "timestamp",
              "type": "uint256",
              "internalType": "uint256"
            }
          ]
        }
      ],
      "outputs": [],
      "stateMutability": "nonpayable"
    },
    {
      "type": "function",
      "name": "updateProfile",
      "inputs": [
        {
          "name": "profile",
          "type": "tuple",
          "internalType": "struct Registry.Profile",
          "components": [
            {
              "name": "user",
              "type": "address",
              "internalType": "address"
            },
            {
              "name": "name",
              "type": "string",
              "internalType": "string"
            },
            {
              "name": "username",
              "type": "string",
              "internalType": "string"
            },
            {
              "name": "description",
              "type": "string",
              "internalType": "string"
            },
            {
              "name": "image",
              "type": "string",
              "internalType": "string"
            },
            {
              "name": "createdAt",
              "type": "uint256",
              "internalType": "uint256"
            },
            {
              "name": "timestamp",
              "type": "uint256",
              "internalType": "uint256"
            }
          ]
        }
      ],
      "outputs": [],
      "stateMutability": "nonpayable"
    },
    {
      "type": "event",
      "name": "DeletedProfile",
      "inputs": [
        {
          "name": "owner",
          "type": "address",
          "indexed": false,
          "internalType": "address"
        }
      ],
      "anonymous": false
    },
    {
      "type": "event",
      "name": "Initialized",
      "inputs": [
        {
          "name": "version",
          "type": "uint64",
          "indexed": false,
          "internalType": "uint64"
        }
      ],
      "anonymous": false
    },
    {
      "type": "event",
      "name": "Registered",
      "inputs": [
        {
          "name": "user",
          "type": "address",
          "indexed": true,
          "internalType": "address"
        },
        {
          "name": "username",
          "type": "string",
          "indexed": true,
          "internalType": "string"
        }
      ],
      "anonymous": false
    },
    {
      "type": "event",
      "name": "UpdatedProfile",
      "inputs": [
        {
          "name": "",
          "type": "address",
          "indexed": false,
          "internalType": "address"
        },
        {
          "name": "",
          "type": "tuple",
          "indexed": false,
          "internalType": "struct Registry.Profile",
          "components": [
            {
              "name": "user",
              "type": "address",
              "internalType": "address"
            },
            {
              "name": "name",
              "type": "string",
              "internalType": "string"
            },
            {
              "name": "username",
              "type": "string",
              "internalType": "string"
            },
            {
              "name": "description",
              "type": "string",
              "internalType": "string"
            },
            {
              "name": "image",
              "type": "string",
              "internalType": "string"
            },
            {
              "name": "createdAt",
              "type": "uint256",
              "internalType": "uint256"
            },
            {
              "name": "timestamp",
              "type": "uint256",
              "internalType": "uint256"
            }
          ]
        }
      ],
      "anonymous": false
    },
    {
      "type": "error",
      "name": "InvalidInitialization",
      "inputs": []
    },
    {
      "type": "error",
      "name": "NotInitializing",
      "inputs": []
    }
  ],
  "bytecode": {
    "object": "0x608060405234601c57600e6020565b61175461002b823961175490f35b6026565b60405190565b5f80fdfe60806040526004361015610013575b610919565b61001d5f3561008c565b80630f53a4701461008757806313b683a814610082578063587cde1e1461007d5780636d4540eb146100785780638129fc1c146100735780638b2c52e31461006e5763bbe156270361000e576108dd565b610622565b6105ef565b6105bc565b610578565b610489565b610214565b60e01c90565b60405190565b5f80fd5b5f80fd5b5f80fd5b60018060a01b031690565b6100b8906100a4565b90565b6100c4816100af565b036100cb57565b5f80fd5b905035906100dc826100bb565b565b906020828203126100f7576100f4915f016100cf565b90565b61009c565b610105906100af565b9052565b5190565b60209181520190565b90825f9392825e0152565b601f801991011690565b61014a6101536020936101589361014181610109565b9384809361010d565b95869101610116565b610121565b0190565b90565b6101689061015c565b9052565b906101f99060c0806101dc6101ca6101b86101a660e087016101945f8b01515f8a01906100fc565b60208a015188820360208a015261012b565b6040890151878203604089015261012b565b6060880151868203606088015261012b565b6080870151858203608087015261012b565b946101ef60a082015160a086019061015f565b015191019061015f565b90565b6102119160208201915f81840391015261016c565b90565b346102445761024061022f61022a3660046100de565b610a80565b610237610092565b918291826101fc565b0390f35b610098565b5f80fd5b634e487b7160e01b5f52604160045260245ffd5b9061026b90610121565b810190811067ffffffffffffffff82111761028557604052565b61024d565b9061029d610296610092565b9283610261565b565b5f80fd5b5f80fd5b5f80fd5b67ffffffffffffffff81116102c9576102c5602091610121565b0190565b61024d565b90825f939282370152565b909291926102ee6102e9826102ab565b61028a565b9381855260208501908284011161030a57610308926102ce565b565b6102a7565b9080601f8301121561032d5781602061032a933591016102d9565b90565b6102a3565b61033b8161015c565b0361034257565b5f80fd5b9050359061035382610332565b565b91909160e08184031261044a5761036c60e061028a565b92610379815f84016100cf565b5f850152602082013567ffffffffffffffff8111610445578161039d91840161030f565b6020850152604082013567ffffffffffffffff811161044057816103c291840161030f565b6040850152606082013567ffffffffffffffff811161043b57816103e791840161030f565b606085015260808201359167ffffffffffffffff8311610436576104108261042f94830161030f565b60808601526104228260a08301610346565b60a086015260c001610346565b60c0830152565b61029f565b61029f565b61029f565b61029f565b610249565b9060208282031261047f575f82013567ffffffffffffffff811161047a576104779201610355565b90565b6100a0565b61009c565b5f0190565b346104b7576104a161049c36600461044f565b610ee3565b6104a9610092565b806104b381610484565b0390f35b610098565b90565b6104d36104ce6104d8926100a4565b6104bc565b6100a4565b90565b6104e4906104bf565b90565b6104f0906104db565b90565b906104fd906104e7565b5f5260205260405f2090565b1c90565b60018060a01b031690565b61052890600861052d9302610509565b61050d565b90565b9061053b9154610518565b90565b6105539061054e5f915f926104f3565b610530565b90565b61055f906100af565b9052565b9190610576905f60208501940190610556565b565b346105a8576105a461059361058e3660046100de565b61053e565b61059b610092565b91829182610563565b0390f35b610098565b5f9103126105b757565b61009c565b346105ea576105cc3660046105ad565b6105d4611252565b6105dc610092565b806105e681610484565b0390f35b610098565b3461061d576105ff3660046105ad565b6106076115e8565b61060f610092565b8061061981610484565b0390f35b610098565b346106505761063a61063536600461044f565b611647565b610642610092565b8061064c81610484565b0390f35b610098565b9061065f906104e7565b5f5260205260405f2090565b5f1c90565b61067c6106819161066b565b61050d565b90565b61068e9054610670565b90565b634e487b7160e01b5f52602260045260245ffd5b90600160028304921680156106c5575b60208310146106c057565b610691565b91607f16916106b5565b5f5260205f2090565b905f92918054906106f26106eb836106a5565b809461010d565b916001811690815f14610749575060011461070d575b505050565b61071a91929394506106cf565b915f925b81841061073157505001905f8080610708565b6001816020929593955484860152019101929061071e565b92949550505060ff19168252151560200201905f8080610708565b9061076e916106d8565b90565b9061079161078a92610781610092565b93848092610764565b0383610261565b565b90565b6107a26107a79161066b565b610793565b90565b6107b49054610796565b90565b6107c2906001610655565b6107cd5f8201610684565b916107da60018301610771565b916107e760028201610771565b916107f460038301610771565b9161080160048201610771565b9161081a6006610813600585016107aa565b93016107aa565b90565b60209181520190565b61084561084e6020936108539361083c81610109565b9384809361081d565b95869101610116565b610121565b0190565b6108609061015c565b9052565b92946108bb60c0956108ad6108db999b9a9861089f6108c9966108d49861089260e08c01925f8d0190610556565b8a820360208c0152610826565b9088820360408a0152610826565b908682036060880152610826565b908482036080860152610826565b9660a0830190610857565b0190610857565b565b34610914576109106108f86108f33660046100de565b6107b7565b93610907979597939193610092565b97889788610864565b0390f35b610098565b5f80fd5b61092760e061028a565b90565b5f90565b606090565b5f90565b61093f61091d565b9060208080808080808861095161092a565b81520161095c61092e565b81520161096761092e565b81520161097261092e565b81520161097d61092e565b815201610988610933565b815201610993610933565b81525050565b6109a1610937565b90565b906109ae906100af565b9052565b52565b906109bf9061015c565b9052565b90610a72610a6960066109d461091d565b946109eb6109e35f8301610684565b5f88016109a4565b610a036109fa60018301610771565b602088016109b2565b610a1b610a1260028301610771565b604088016109b2565b610a33610a2a60038301610771565b606088016109b2565b610a4b610a4260048301610771565b608088016109b2565b610a63610a5a600583016107aa565b60a088016109b5565b016107aa565b60c084016109b5565b565b610a7d906109c3565b90565b610a97610a9c91610a8f610999565b506001610655565b610a74565b90565b90565b610aab90610771565b90565b634e487b7160e01b5f525f60045260245ffd5b610acb90516100af565b90565b5f1b90565b90610ae460018060a01b0391610ace565b9181191691161790565b90565b90610b06610b01610b0d926104e7565b610aee565b8254610ad3565b9055565b5190565b601f602091010490565b1b90565b91906008610b3e910291610b385f1984610b1f565b92610b1f565b9181191691161790565b610b5c610b57610b619261015c565b6104bc565b61015c565b90565b90565b9190610b7d610b78610b8593610b48565b610b64565b908354610b23565b9055565b5f90565b610b9f91610b99610b89565b91610b67565b565b5b818110610bad575050565b80610bba5f600193610b8d565b01610ba2565b9190601f8111610bd0575b505050565b610bdc610c01936106cf565b906020610be884610b15565b83019310610c09575b610bfa90610b15565b0190610ba1565b5f8080610bcb565b9150610bfa81929050610bf1565b90610c27905f1990600802610509565b191690565b81610c3691610c17565b906002021790565b90610c4881610109565b9067ffffffffffffffff8211610d0857610c6c82610c6685546106a5565b85610bc0565b602090601f8311600114610ca057918091610c8f935f92610c94575b5050610c2c565b90555b565b90915001515f80610c88565b601f19831691610caf856106cf565b925f5b818110610cf057509160029391856001969410610cd6575b50505002019055610c92565b610ce6910151601f841690610c17565b90555f8080610cca565b91936020600181928787015181550195019201610cb2565b61024d565b90610d1791610c3e565b565b610d23905161015c565b90565b90610d325f1991610ace565b9181191691161790565b90610d51610d4c610d5892610b48565b610b64565b8254610d26565b9055565b90610e0460c06006610e0a94610d7f5f8201610d795f8801610ac1565b90610af1565b610d9860018201610d9260208801610b11565b90610d0d565b610db160028201610dab60408801610b11565b90610d0d565b610dca60038201610dc460608801610b11565b90610d0d565b610de360048201610ddd60808801610b11565b90610d0d565b610dfc60058201610df660a08801610d19565b90610d3c565b019201610d19565b90610d3c565b565b90610e1691610d5c565b565b90610eba9060c0610eb26006610e90610e7f610e6e610e5d60e08801610e4c610e435f8d0154610670565b5f8b01906100fc565b60018b0189820360208b01526106d8565b60028a0188820360408a01526106d8565b6003890187820360608901526106d8565b6004880186820360808801526106d8565b95610eab610ea16005830154610796565b60a087019061015f565b0154610796565b91019061015f565b90565b91610ee092610ed360408201935f830190610556565b6020818403910152610e18565b90565b610f5390610f3f610efe610ef960013390610655565b610a9f565b610f2b610f196005610f1260028501610aa2565b93016107aa565b93610f2660013390610655565b610e0c565b6002610f3960013390610655565b01610d0d565b6005610f4d60013390610655565b01610d3c565b610f6b426006610f6560013390610655565b01610d3c565b33610f7860013390610655565b7ff6b662c6a9466745177f40247757800cd83c210429e5beaccc82ccb594632d2e91610fae610fa5610092565b92839283610ebd565b0390a1565b5f7f526567697374657255736572206e6f7420666f756e6400000000000000000000910152565b610fe7601660209261081d565b610ff081610fb3565b0190565b6110099060208101905f818303910152610fda565b90565b1561101357565b61101b610092565b62461bcd60e51b81528061103160048201610ff4565b0390fd5b90611048905f1990602003600802610509565b8154169055565b905f9161106661105e826106cf565b928354610c2c565b905555565b919290602082105f146110c457601f84116001146110945761108e929350610c2c565b90555b5b565b50906110ba6110bf9360016110b16110ab856106cf565b92610b15565b82019101610ba1565b61104f565b611091565b506110fb82936110d56001946106cf565b6110f46110e185610b15565b820192601f861680611106575b50610b15565b0190610ba1565b600202179055611092565b61111290888603611035565b5f6110ee565b929091680100000000000000008211611178576020115f1461116957602081105f1461114d5761114791610c2c565b90555b5b565b60019160ff191661115d846106cf565b5560020201905561114a565b6001915060020201905561114b565b61024d565b908154611189816106a5565b908183116111b2575b8183106111a0575b50505050565b6111a99361106b565b5f80808061119a565b6111be83838387611118565b611192565b5f6111cd9161117d565b565b905f036111e1576111df906111c3565b565b610aae565b5f60066112399282808201556111ff83600183016111cf565b61120c83600283016111cf565b61121983600383016111cf565b61122683600483016111cf565b6112338360058301610b8d565b01610b8d565b565b905f0361124d5761124b906111e6565b565b610aae565b6112833361127d6112776112725f61126c60013390610655565b01610684565b6100af565b916100af565b1461100c565b6112985f61129360013390610655565b61123b565b336112cf7fb70d7b79db5ae5441789a8aaf0b5624f97b20123357f1ad59925a0fd7225e8bb916112c6610092565b91829182610563565b0390a1565b60401c90565b60ff1690565b6112ec6112f1916112d4565b6112da565b90565b6112fe90546112e0565b90565b151590565b67ffffffffffffffff1690565b61131f6113249161066b565b611306565b90565b6113319054611313565b90565b67ffffffffffffffff1690565b90565b61135861135361135d92611341565b6104bc565b611334565b90565b90565b61137761137261137c92611360565b6104bc565b611334565b90565b611388906104db565b90565b61139f61139a6113a492611341565b6104bc565b61015c565b90565b906113ba67ffffffffffffffff91610ace565b9181191691161790565b6113d86113d36113dd92611334565b6104bc565b611334565b90565b90565b906113f86113f36113ff926113c4565b6113e0565b82546113a7565b9055565b60401b90565b9061141d68ff000000000000000091611403565b9181191691161790565b61143090611301565b90565b90565b9061144b61144661145292611427565b611433565b8254611409565b9055565b61145f90611363565b9052565b9190611476905f60208501940190611456565b565b6114806116ad565b61149461148e5f83016112f4565b15611301565b61149f5f8301611327565b806114b26114ac5f611344565b91611334565b14806115cb575b906114cd6114c76001611363565b91611334565b14806115a3575b6114df909115611301565b9081611592575b50611576576115006114f86001611363565b5f84016113e3565b80611564575b61150e6115d2565b611516575b50565b611523905f809101611436565b600161155b7fc7f505b2f371ae2175ee4913f4499e1f2633a7b5936321eed1cdaeb6115181d291611552610092565b91829182611463565b0390a15f611513565b61157160015f8401611436565b611506565b5f63f92ee8a960e01b81528061158e60048201610484565b0390fd5b61159d915015611301565b5f6114e6565b506114df6115b03061137f565b3b6115c36115bd5f61138b565b9161015c565b1490506114d4565b50816114b9565b6115e6336115e15f33906104f3565b610af1565b565b6115f0611478565b565b905090565b61161c6116139260209261160a81610109565b948580936115f2565b93849101610116565b0190565b611629916115f7565b90565b61164190611638610092565b91829182611620565b03902090565b61165c8161165760013390610655565b610e0c565b60403391015161169561168f7fb3eccf73f39b1c07947c780b2b39df2a1bb058b4037b0a42d0881ca1a028a132936104e7565b9161162c565b9161169e610092565b806116a881610484565b0390a3565b6116b561170a565b90565b5f90565b90565b90565b6116d66116d16116db926116bc565b610ace565b6116bf565b90565b6117077ff0c57e16840df040f15088dc2f81fe391c3923bec73e23a9662efc9c229c6a006116c2565b90565b6117126116b8565b5061171b6116de565b9056fea2646970667358221220745d624c51b93243c412bc11f707376310425c6d8298ff9d5f51690527b56c8764736f6c634300081c0033",
    "linkReferences": {}
  },
  "methodIdentifiers": {
    "delegates(address)": "587cde1e",
    "deleteProfile()": "6d4540eb",
    "getProfile(address)": "0f53a470",
    "initialize()": "8129fc1c",
    "profiles(address)": "bbe15627",
    "register((address,string,string,string,string,uint256,uint256))": "8b2c52e3",
    "updateProfile((address,string,string,string,string,uint256,uint256))": "13b683a8"
  },
  "id": 23
}