{
  "abi": [
    {
      "type": "function",
      "name": "delegates",
      "inputs": [
        {
          "name": "",
          "type": "address",
          "internalType": "address"
        }
      ],
      "outputs": [
        {
          "name": "",
          "type": "address",
          "internalType": "address"
        }
      ],
      "stateMutability": "view"
    },
    {
      "type": "function",
      "name": "deleteProfile",
      "inputs": [],
      "outputs": [],
      "stateMutability": "nonpayable"
    },
    {
      "type": "function",
      "name": "getProfile",
      "inputs": [
        {
          "name": "user",
          "type": "address",
          "internalType": "address"
        }
      ],
      "outputs": [
        {
          "name": "",
          "type": "tuple",
          "internalType": "struct Registry.Profile",
          "components": [
            {
              "name": "user",
              "type": "address",
              "internalType": "address"
            },
            {
              "name": "name",
              "type": "string",
              "internalType": "string"
            },
            {
              "name": "username",
              "type": "string",
              "internalType": "string"
            },
            {
              "name": "description",
              "type": "string",
              "internalType": "string"
            },
            {
              "name": "image",
              "type": "string",
              "internalType": "string"
            },
            {
              "name": "createdAt",
              "type": "uint256",
              "internalType": "uint256"
            },
            {
              "name": "timestamp",
              "type": "uint256",
              "internalType": "uint256"
            }
          ]
        }
      ],
      "stateMutability": "view"
    },
    {
      "type": "function",
      "name": "profiles",
      "inputs": [
        {
          "name": "",
          "type": "address",
          "internalType": "address"
        }
      ],
      "outputs": [
        {
          "name": "user",
          "type": "address",
          "internalType": "address"
        },
        {
          "name": "name",
          "type": "string",
          "internalType": "string"
        },
        {
          "name": "username",
          "type": "string",
          "internalType": "string"
        },
        {
          "name": "description",
          "type": "string",
          "internalType": "string"
        },
        {
          "name": "image",
          "type": "string",
          "internalType": "string"
        },
        {
          "name": "createdAt",
          "type": "uint256",
          "internalType": "uint256"
        },
        {
          "name": "timestamp",
          "type": "uint256",
          "internalType": "uint256"
        }
      ],
      "stateMutability": "view"
    },
    {
      "type": "function",
      "name": "register",
      "inputs": [
        {
          "name": "profile",
          "type": "tuple",
          "internalType": "struct Registry.Profile",
          "components": [
            {
              "name": "user",
              "type": "address",
              "internalType": "address"
            },
            {
              "name": "name",
              "type": "string",
              "internalType": "string"
            },
            {
              "name": "username",
              "type": "string",
              "internalType": "string"
            },
            {
              "name": "description",
              "type": "string",
              "internalType": "string"
            },
            {
              "name": "image",
              "type": "string",
              "internalType": "string"
            },
            {
              "name": "createdAt",
              "type": "uint256",
              "internalType": "uint256"
            },
            {
              "name": "timestamp",
              "type": "uint256",
              "internalType": "uint256"
            }
          ]
        }
      ],
      "outputs": [],
      "stateMutability": "nonpayable"
    },
    {
      "type": "function",
      "name": "updateProfile",
      "inputs": [
        {
          "name": "profile",
          "type": "tuple",
          "internalType": "struct Registry.Profile",
          "components": [
            {
              "name": "user",
              "type": "address",
              "internalType": "address"
            },
            {
              "name": "name",
              "type": "string",
              "internalType": "string"
            },
            {
              "name": "username",
              "type": "string",
              "internalType": "string"
            },
            {
              "name": "description",
              "type": "string",
              "internalType": "string"
            },
            {
              "name": "image",
              "type": "string",
              "internalType": "string"
            },
            {
              "name": "createdAt",
              "type": "uint256",
              "internalType": "uint256"
            },
            {
              "name": "timestamp",
              "type": "uint256",
              "internalType": "uint256"
            }
          ]
        }
      ],
      "outputs": [],
      "stateMutability": "nonpayable"
    },
    {
      "type": "event",
      "name": "DeletedProfile",
      "inputs": [
        {
          "name": "owner",
          "type": "address",
          "indexed": false,
          "internalType": "address"
        }
      ],
      "anonymous": false
    },
    {
      "type": "event",
      "name": "UpdatedProfile",
      "inputs": [
        {
          "name": "",
          "type": "address",
          "indexed": false,
          "internalType": "address"
        },
        {
          "name": "",
          "type": "tuple",
          "indexed": false,
          "internalType": "struct Registry.Profile",
          "components": [
            {
              "name": "user",
              "type": "address",
              "internalType": "address"
            },
            {
              "name": "name",
              "type": "string",
              "internalType": "string"
            },
            {
              "name": "username",
              "type": "string",
              "internalType": "string"
            },
            {
              "name": "description",
              "type": "string",
              "internalType": "string"
            },
            {
              "name": "image",
              "type": "string",
              "internalType": "string"
            },
            {
              "name": "createdAt",
              "type": "uint256",
              "internalType": "uint256"
            },
            {
              "name": "timestamp",
              "type": "uint256",
              "internalType": "uint256"
            }
          ]
        }
      ],
      "anonymous": false
    },
    {
      "type": "event",
      "name": "UserCreated",
      "inputs": [
        {
          "name": "user",
          "type": "address",
          "indexed": true,
          "internalType": "address"
        },
        {
          "name": "username",
          "type": "string",
          "indexed": false,
          "internalType": "string"
        },
        {
          "name": "profile",
          "type": "tuple",
          "indexed": false,
          "internalType": "struct Registry.Profile",
          "components": [
            {
              "name": "user",
              "type": "address",
              "internalType": "address"
            },
            {
              "name": "name",
              "type": "string",
              "internalType": "string"
            },
            {
              "name": "username",
              "type": "string",
              "internalType": "string"
            },
            {
              "name": "description",
              "type": "string",
              "internalType": "string"
            },
            {
              "name": "image",
              "type": "string",
              "internalType": "string"
            },
            {
              "name": "createdAt",
              "type": "uint256",
              "internalType": "uint256"
            },
            {
              "name": "timestamp",
              "type": "uint256",
              "internalType": "uint256"
            }
          ]
        }
      ],
      "anonymous": false
    }
  ],
  "bytecode": {
    "object": "0x608060405234601c57600e6020565b61135361002b823961135390f35b6026565b60405190565b5f80fdfe60806040526004361015610013575b6108d6565b61001d5f3561007c565b80630f53a4701461007757806313b683a814610072578063587cde1e1461006d5780636d4540eb146100685780638b2c52e3146100635763bbe156270361000e5761089a565b6105df565b6105ac565b610568565b610479565b610204565b60e01c90565b60405190565b5f80fd5b5f80fd5b5f80fd5b60018060a01b031690565b6100a890610094565b90565b6100b48161009f565b036100bb57565b5f80fd5b905035906100cc826100ab565b565b906020828203126100e7576100e4915f016100bf565b90565b61008c565b6100f59061009f565b9052565b5190565b60209181520190565b90825f9392825e0152565b601f801991011690565b61013a61014360209361014893610131816100f9565b938480936100fd565b95869101610106565b610111565b0190565b90565b6101589061014c565b9052565b906101e99060c0806101cc6101ba6101a861019660e087016101845f8b01515f8a01906100ec565b60208a015188820360208a015261011b565b6040890151878203604089015261011b565b6060880151868203606088015261011b565b6080870151858203608087015261011b565b946101df60a082015160a086019061014f565b015191019061014f565b90565b6102019160208201915f81840391015261015c565b90565b346102345761023061021f61021a3660046100ce565b610a3d565b610227610082565b918291826101ec565b0390f35b610088565b5f80fd5b634e487b7160e01b5f52604160045260245ffd5b9061025b90610111565b810190811067ffffffffffffffff82111761027557604052565b61023d565b9061028d610286610082565b9283610251565b565b5f80fd5b5f80fd5b5f80fd5b67ffffffffffffffff81116102b9576102b5602091610111565b0190565b61023d565b90825f939282370152565b909291926102de6102d98261029b565b61027a565b938185526020850190828401116102fa576102f8926102be565b565b610297565b9080601f8301121561031d5781602061031a933591016102c9565b90565b610293565b61032b8161014c565b0361033257565b5f80fd5b9050359061034382610322565b565b91909160e08184031261043a5761035c60e061027a565b92610369815f84016100bf565b5f850152602082013567ffffffffffffffff8111610435578161038d9184016102ff565b6020850152604082013567ffffffffffffffff811161043057816103b29184016102ff565b6040850152606082013567ffffffffffffffff811161042b57816103d79184016102ff565b606085015260808201359167ffffffffffffffff8311610426576104008261041f9483016102ff565b60808601526104128260a08301610336565b60a086015260c001610336565b60c0830152565b61028f565b61028f565b61028f565b61028f565b610239565b9060208282031261046f575f82013567ffffffffffffffff811161046a576104679201610345565b90565b610090565b61008c565b5f0190565b346104a75761049161048c36600461043f565b610ea0565b610499610082565b806104a381610474565b0390f35b610088565b90565b6104c36104be6104c892610094565b6104ac565b610094565b90565b6104d4906104af565b90565b6104e0906104cb565b90565b906104ed906104d7565b5f5260205260405f2090565b1c90565b60018060a01b031690565b61051890600861051d93026104f9565b6104fd565b90565b9061052b9154610508565b90565b6105439061053e5f915f926104e3565b610520565b90565b61054f9061009f565b9052565b9190610566905f60208501940190610546565b565b346105985761059461058361057e3660046100ce565b61052e565b61058b610082565b91829182610553565b0390f35b610088565b5f9103126105a757565b61008c565b346105da576105bc36600461059d565b6105c461120f565b6105cc610082565b806105d681610474565b0390f35b610088565b3461060d576105f76105f236600461043f565b6112bc565b6105ff610082565b8061060981610474565b0390f35b610088565b9061061c906104d7565b5f5260205260405f2090565b5f1c90565b61063961063e91610628565b6104fd565b90565b61064b905461062d565b90565b634e487b7160e01b5f52602260045260245ffd5b9060016002830492168015610682575b602083101461067d57565b61064e565b91607f1691610672565b5f5260205f2090565b905f92918054906106af6106a883610662565b80946100fd565b916001811690815f1461070657506001146106ca575b505050565b6106d7919293945061068c565b915f925b8184106106ee57505001905f80806106c5565b600181602092959395548486015201910192906106db565b92949550505060ff19168252151560200201905f80806106c5565b9061072b91610695565b90565b9061074e6107479261073e610082565b93848092610721565b0383610251565b565b90565b61075f61076491610628565b610750565b90565b6107719054610753565b90565b61077f906001610612565b61078a5f8201610641565b916107976001830161072e565b916107a46002820161072e565b916107b16003830161072e565b916107be6004820161072e565b916107d760066107d060058501610767565b9301610767565b90565b60209181520190565b61080261080b602093610810936107f9816100f9565b938480936107da565b95869101610106565b610111565b0190565b61081d9061014c565b9052565b929461087860c09561086a610898999b9a9861085c610886966108919861084f60e08c01925f8d0190610546565b8a820360208c01526107e3565b9088820360408a01526107e3565b9086820360608801526107e3565b9084820360808601526107e3565b9660a0830190610814565b0190610814565b565b346108d1576108cd6108b56108b03660046100ce565b610774565b936108c4979597939193610082565b97889788610821565b0390f35b610088565b5f80fd5b6108e460e061027a565b90565b5f90565b606090565b5f90565b6108fc6108da565b9060208080808080808861090e6108e7565b8152016109196108eb565b8152016109246108eb565b81520161092f6108eb565b81520161093a6108eb565b8152016109456108f0565b8152016109506108f0565b81525050565b61095e6108f4565b90565b9061096b9061009f565b9052565b52565b9061097c9061014c565b9052565b90610a2f610a2660066109916108da565b946109a86109a05f8301610641565b5f8801610961565b6109c06109b76001830161072e565b6020880161096f565b6109d86109cf6002830161072e565b6040880161096f565b6109f06109e76003830161072e565b6060880161096f565b610a086109ff6004830161072e565b6080880161096f565b610a20610a1760058301610767565b60a08801610972565b01610767565b60c08401610972565b565b610a3a90610980565b90565b610a54610a5991610a4c610956565b506001610612565b610a31565b90565b90565b610a689061072e565b90565b634e487b7160e01b5f525f60045260245ffd5b610a88905161009f565b90565b5f1b90565b90610aa160018060a01b0391610a8b565b9181191691161790565b90565b90610ac3610abe610aca926104d7565b610aab565b8254610a90565b9055565b5190565b601f602091010490565b1b90565b91906008610afb910291610af55f1984610adc565b92610adc565b9181191691161790565b610b19610b14610b1e9261014c565b6104ac565b61014c565b90565b90565b9190610b3a610b35610b4293610b05565b610b21565b908354610ae0565b9055565b5f90565b610b5c91610b56610b46565b91610b24565b565b5b818110610b6a575050565b80610b775f600193610b4a565b01610b5f565b9190601f8111610b8d575b505050565b610b99610bbe9361068c565b906020610ba584610ad2565b83019310610bc6575b610bb790610ad2565b0190610b5e565b5f8080610b88565b9150610bb781929050610bae565b90610be4905f19906008026104f9565b191690565b81610bf391610bd4565b906002021790565b90610c05816100f9565b9067ffffffffffffffff8211610cc557610c2982610c238554610662565b85610b7d565b602090601f8311600114610c5d57918091610c4c935f92610c51575b5050610be9565b90555b565b90915001515f80610c45565b601f19831691610c6c8561068c565b925f5b818110610cad57509160029391856001969410610c93575b50505002019055610c4f565b610ca3910151601f841690610bd4565b90555f8080610c87565b91936020600181928787015181550195019201610c6f565b61023d565b90610cd491610bfb565b565b610ce0905161014c565b90565b90610cef5f1991610a8b565b9181191691161790565b90610d0e610d09610d1592610b05565b610b21565b8254610ce3565b9055565b90610dc160c06006610dc794610d3c5f8201610d365f8801610a7e565b90610aae565b610d5560018201610d4f60208801610ace565b90610cca565b610d6e60028201610d6860408801610ace565b90610cca565b610d8760038201610d8160608801610ace565b90610cca565b610da060048201610d9a60808801610ace565b90610cca565b610db960058201610db360a08801610cd6565b90610cf9565b019201610cd6565b90610cf9565b565b90610dd391610d19565b565b90610e779060c0610e6f6006610e4d610e3c610e2b610e1a60e08801610e09610e005f8d015461062d565b5f8b01906100ec565b60018b0189820360208b0152610695565b60028a0188820360408a0152610695565b600389018782036060890152610695565b600488018682036080880152610695565b95610e68610e5e6005830154610753565b60a087019061014f565b0154610753565b91019061014f565b90565b91610e9d92610e9060408201935f830190610546565b6020818403910152610dd5565b90565b610f1090610efc610ebb610eb660013390610612565b610a5c565b610ee8610ed66005610ecf60028501610a5f565b9301610767565b93610ee360013390610612565b610dc9565b6002610ef660013390610612565b01610cca565b6005610f0a60013390610612565b01610cf9565b610f28426006610f2260013390610612565b01610cf9565b33610f3560013390610612565b7ff6b662c6a9466745177f40247757800cd83c210429e5beaccc82ccb594632d2e91610f6b610f62610082565b92839283610e7a565b0390a1565b5f7f526567697374657255736572206e6f7420666f756e6400000000000000000000910152565b610fa460166020926107da565b610fad81610f70565b0190565b610fc69060208101905f818303910152610f97565b90565b15610fd057565b610fd8610082565b62461bcd60e51b815280610fee60048201610fb1565b0390fd5b90611005905f19906020036008026104f9565b8154169055565b905f9161102361101b8261068c565b928354610be9565b905555565b919290602082105f1461108157601f84116001146110515761104b929350610be9565b90555b5b565b509061107761107c93600161106e6110688561068c565b92610ad2565b82019101610b5e565b61100c565b61104e565b506110b8829361109260019461068c565b6110b161109e85610ad2565b820192601f8616806110c3575b50610ad2565b0190610b5e565b60020217905561104f565b6110cf90888603610ff2565b5f6110ab565b929091680100000000000000008211611135576020115f1461112657602081105f1461110a5761110491610be9565b90555b5b565b60019160ff191661111a8461068c565b55600202019055611107565b60019150600202019055611108565b61023d565b90815461114681610662565b9081831161116f575b81831061115d575b50505050565b61116693611028565b5f808080611157565b61117b838383876110d5565b61114f565b5f61118a9161113a565b565b905f0361119e5761119c90611180565b565b610a6b565b5f60066111f69282808201556111bc836001830161118c565b6111c9836002830161118c565b6111d6836003830161118c565b6111e3836004830161118c565b6111f08360058301610b4a565b01610b4a565b565b905f0361120a57611208906111a3565b565b610a6b565b6112403361123a61123461122f5f61122960013390610612565b01610641565b61009f565b9161009f565b14610fc9565b6112555f61125060013390610612565b6111f8565b3361128c7fb70d7b79db5ae5441789a8aaf0b5624f97b20123357f1ad59925a0fd7225e8bb91611283610082565b91829182610553565b0390a1565b90916112ab6112b99360408401908482035f8601526107e3565b91602081840391015261015c565b90565b6112d1816112cc60013390610612565b610dc9565b60408101513390916113037f86bff43b49bda3793f0f34d4bdcc9e61a3a03346d3a83b3922e77f902bcc3d1b926104d7565b9261131861130f610082565b92839283611291565b0390a256fea26469706673582212204ef6068479d48a177e022b50bc5af51b32416fc13ef0d0b0adb0bc50f3bf978164736f6c634300081c0033",
    "linkReferences": {}
  },
  "methodIdentifiers": {
    "delegates(address)": "587cde1e",
    "deleteProfile()": "6d4540eb",
    "getProfile(address)": "0f53a470",
    "profiles(address)": "bbe15627",
    "register((address,string,string,string,string,uint256,uint256))": "8b2c52e3",
    "updateProfile((address,string,string,string,string,uint256,uint256))": "13b683a8"
  },
  "id": 31
}